{
  "_format": "hh-sol-artifact-1",
  "contractName": "DnAAuctionHouse",
  "sourceName": "contracts/DnAAuctionHouse.sol",
  "abi": [
    {
      "inputs": [],
      "stateMutability": "nonpayable",
      "type": "constructor"
    },
    {
      "inputs": [
        {
          "internalType": "address",
          "name": "owner",
          "type": "address"
        }
      ],
      "name": "OwnableInvalidOwner",
      "type": "error"
    },
    {
      "inputs": [
        {
          "internalType": "address",
          "name": "account",
          "type": "address"
        }
      ],
      "name": "OwnableUnauthorizedAccount",
      "type": "error"
    },
    {
      "inputs": [],
      "name": "ReentrancyGuardReentrantCall",
      "type": "error"
    },
    {
      "anonymous": false,
      "inputs": [
        {
          "indexed": true,
          "internalType": "address",
          "name": "admin",
          "type": "address"
        },
        {
          "indexed": false,
          "internalType": "bool",
          "name": "enabled",
          "type": "bool"
        }
      ],
      "name": "AdminUpdated",
      "type": "event"
    },
    {
      "anonymous": false,
      "inputs": [
        {
          "indexed": true,
          "internalType": "uint256",
          "name": "auctionId",
          "type": "uint256"
        },
        {
          "indexed": false,
          "internalType": "address",
          "name": "winner",
          "type": "address"
        },
        {
          "indexed": false,
          "internalType": "uint256",
          "name": "amount",
          "type": "uint256"
        }
      ],
      "name": "AuctionEnded",
      "type": "event"
    },
    {
      "anonymous": false,
      "inputs": [
        {
          "indexed": true,
          "internalType": "uint256",
          "name": "auctionId",
          "type": "uint256"
        },
        {
          "indexed": true,
          "internalType": "address",
          "name": "nft",
          "type": "address"
        },
        {
          "indexed": true,
          "internalType": "uint256",
          "name": "tokenId",
          "type": "uint256"
        },
        {
          "indexed": false,
          "internalType": "uint256",
          "name": "startingBid",
          "type": "uint256"
        },
        {
          "indexed": false,
          "internalType": "uint64",
          "name": "endTime",
          "type": "uint64"
        }
      ],
      "name": "AuctionStarted",
      "type": "event"
    },
    {
      "anonymous": false,
      "inputs": [
        {
          "indexed": true,
          "internalType": "uint256",
          "name": "auctionId",
          "type": "uint256"
        },
        {
          "indexed": true,
          "internalType": "address",
          "name": "bidder",
          "type": "address"
        },
        {
          "indexed": false,
          "internalType": "uint256",
          "name": "amount",
          "type": "uint256"
        }
      ],
      "name": "BidPlaced",
      "type": "event"
    },
    {
      "anonymous": false,
      "inputs": [
        {
          "indexed": true,
          "internalType": "uint256",
          "name": "auctionId",
          "type": "uint256"
        },
        {
          "indexed": true,
          "internalType": "address",
          "name": "winner",
          "type": "address"
        }
      ],
      "name": "Claimed",
      "type": "event"
    },
    {
      "anonymous": false,
      "inputs": [
        {
          "indexed": true,
          "internalType": "address",
          "name": "previousOwner",
          "type": "address"
        },
        {
          "indexed": true,
          "internalType": "address",
          "name": "newOwner",
          "type": "address"
        }
      ],
      "name": "OwnershipTransferred",
      "type": "event"
    },
    {
      "anonymous": false,
      "inputs": [
        {
          "indexed": true,
          "internalType": "uint256",
          "name": "auctionId",
          "type": "uint256"
        },
        {
          "indexed": true,
          "internalType": "address",
          "name": "bidder",
          "type": "address"
        },
        {
          "indexed": false,
          "internalType": "uint256",
          "name": "amount",
          "type": "uint256"
        }
      ],
      "name": "Withdrawn",
      "type": "event"
    },
    {
      "inputs": [],
      "name": "auctionCount",
      "outputs": [
        {
          "internalType": "uint256",
          "name": "",
          "type": "uint256"
        }
      ],
      "stateMutability": "view",
      "type": "function"
    },
    {
      "inputs": [
        {
          "internalType": "uint256",
          "name": "",
          "type": "uint256"
        }
      ],
      "name": "auctions",
      "outputs": [
        {
          "internalType": "address",
          "name": "nft",
          "type": "address"
        },
        {
          "internalType": "uint256",
          "name": "tokenId",
          "type": "uint256"
        },
        {
          "internalType": "uint256",
          "name": "startingBid",
          "type": "uint256"
        },
        {
          "internalType": "uint64",
          "name": "endTime",
          "type": "uint64"
        },
        {
          "internalType": "bool",
          "name": "active",
          "type": "bool"
        },
        {
          "internalType": "address",
          "name": "highestBidder",
          "type": "address"
        },
        {
          "internalType": "uint256",
          "name": "highestBid",
          "type": "uint256"
        }
      ],
      "stateMutability": "view",
      "type": "function"
    },
    {
      "inputs": [
        {
          "internalType": "uint256",
          "name": "auctionId",
          "type": "uint256"
        }
      ],
      "name": "bid",
      "outputs": [],
      "stateMutability": "payable",
      "type": "function"
    },
    {
      "inputs": [
        {
          "internalType": "uint256",
          "name": "auctionId",
          "type": "uint256"
        }
      ],
      "name": "claim",
      "outputs": [],
      "stateMutability": "nonpayable",
      "type": "function"
    },
    {
      "inputs": [
        {
          "internalType": "uint256",
          "name": "auctionId",
          "type": "uint256"
        }
      ],
      "name": "endAuction",
      "outputs": [],
      "stateMutability": "nonpayable",
      "type": "function"
    },
    {
      "inputs": [
        {
          "internalType": "address",
          "name": "",
          "type": "address"
        }
      ],
      "name": "isAdmin",
      "outputs": [
        {
          "internalType": "bool",
          "name": "",
          "type": "bool"
        }
      ],
      "stateMutability": "view",
      "type": "function"
    },
    {
      "inputs": [],
      "name": "owner",
      "outputs": [
        {
          "internalType": "address",
          "name": "",
          "type": "address"
        }
      ],
      "stateMutability": "view",
      "type": "function"
    },
    {
      "inputs": [
        {
          "internalType": "uint256",
          "name": "",
          "type": "uint256"
        },
        {
          "internalType": "address",
          "name": "",
          "type": "address"
        }
      ],
      "name": "pendingReturns",
      "outputs": [
        {
          "internalType": "uint256",
          "name": "",
          "type": "uint256"
        }
      ],
      "stateMutability": "view",
      "type": "function"
    },
    {
      "inputs": [],
      "name": "renounceOwnership",
      "outputs": [],
      "stateMutability": "nonpayable",
      "type": "function"
    },
    {
      "inputs": [
        {
          "internalType": "address",
          "name": "account",
          "type": "address"
        },
        {
          "internalType": "bool",
          "name": "enabled",
          "type": "bool"
        }
      ],
      "name": "setAdmin",
      "outputs": [],
      "stateMutability": "nonpayable",
      "type": "function"
    },
    {
      "inputs": [
        {
          "internalType": "address",
          "name": "nft",
          "type": "address"
        },
        {
          "internalType": "uint256",
          "name": "tokenId",
          "type": "uint256"
        },
        {
          "internalType": "uint256",
          "name": "startingBid",
          "type": "uint256"
        },
        {
          "internalType": "uint64",
          "name": "durationSeconds",
          "type": "uint64"
        }
      ],
      "name": "startAuction",
      "outputs": [
        {
          "internalType": "uint256",
          "name": "",
          "type": "uint256"
        }
      ],
      "stateMutability": "nonpayable",
      "type": "function"
    },
    {
      "inputs": [
        {
          "internalType": "address",
          "name": "newOwner",
          "type": "address"
        }
      ],
      "name": "transferOwnership",
      "outputs": [],
      "stateMutability": "nonpayable",
      "type": "function"
    },
    {
      "inputs": [
        {
          "internalType": "uint256",
          "name": "auctionId",
          "type": "uint256"
        }
      ],
      "name": "withdraw",
      "outputs": [],
      "stateMutability": "nonpayable",
      "type": "function"
    }
  ],
  "bytecode": "0x60806040523480156200001157600080fd5b5033600073ffffffffffffffffffffffffffffffffffffffff168173ffffffffffffffffffffffffffffffffffffffff1603620000885760006040517f1e4fbdf70000000000000000000000000000000000000000000000000000000081526004016200007f9190620001b0565b60405180910390fd5b6200009981620000a760201b60201c565b5060018081905550620001cd565b60008060009054906101000a900473ffffffffffffffffffffffffffffffffffffffff169050816000806101000a81548173ffffffffffffffffffffffffffffffffffffffff021916908373ffffffffffffffffffffffffffffffffffffffff1602179055508173ffffffffffffffffffffffffffffffffffffffff168173ffffffffffffffffffffffffffffffffffffffff167f8be0079c531659141344cd1fd0a4f28419497f9722a3daafe3b4186f6b6457e060405160405180910390a35050565b600073ffffffffffffffffffffffffffffffffffffffff82169050919050565b600062000198826200016b565b9050919050565b620001aa816200018b565b82525050565b6000602082019050620001c760008301846200019f565b92915050565b6122d380620001dd6000396000f3fe6080604052600436106100c25760003560e01c80634b0bddd21161007f5780638da5cb5b116100595780638da5cb5b1461025d5780638ddac1ef14610288578063b9a2de3a146102c5578063f2fde38b146102ee576100c2565b80634b0bddd2146101da578063571a26a014610203578063715018a614610246576100c2565b80631874923a146100c757806324d7806c146101045780632ad71573146101415780632e1a7d4d1461016c578063379607f514610195578063454a2ab3146101be575b600080fd5b3480156100d357600080fd5b506100ee60048036038101906100e99190611808565b610317565b6040516100fb919061187e565b60405180910390f35b34801561011057600080fd5b5061012b60048036038101906101269190611899565b6108e8565b60405161013891906118e1565b60405180910390f35b34801561014d57600080fd5b50610156610908565b604051610163919061187e565b60405180910390f35b34801561017857600080fd5b50610193600480360381019061018e91906118fc565b61090e565b005b3480156101a157600080fd5b506101bc60048036038101906101b791906118fc565b610b0c565b005b6101d860048036038101906101d391906118fc565b610d8f565b005b3480156101e657600080fd5b5061020160048036038101906101fc9190611955565b611037565b005b34801561020f57600080fd5b5061022a600480360381019061022591906118fc565b6110e8565b60405161023d97969594939291906119b3565b60405180910390f35b34801561025257600080fd5b5061025b61118b565b005b34801561026957600080fd5b5061027261119f565b60405161027f9190611a22565b60405180910390f35b34801561029457600080fd5b506102af60048036038101906102aa9190611a3d565b6111c8565b6040516102bc919061187e565b60405180910390f35b3480156102d157600080fd5b506102ec60048036038101906102e791906118fc565b6111ed565b005b3480156102fa57600080fd5b5061031560048036038101906103109190611899565b611507565b005b600061032161119f565b73ffffffffffffffffffffffffffffffffffffffff163373ffffffffffffffffffffffffffffffffffffffff1614806103a35750600460003373ffffffffffffffffffffffffffffffffffffffff1673ffffffffffffffffffffffffffffffffffffffff16815260200190815260200160002060009054906101000a900460ff165b6103e2576040517f08c379a00000000000000000000000000000000000000000000000000000000081526004016103d990611ada565b60405180910390fd5b603c8267ffffffffffffffff161015610430576040517f08c379a000000000000000000000000000000000000000000000000000000000815260040161042790611b46565b60405180910390fd5b60008311610473576040517f08c379a000000000000000000000000000000000000000000000000000000000815260040161046a90611bb2565b60405180910390fd5b600085905060008173ffffffffffffffffffffffffffffffffffffffff16636352211e876040518263ffffffff1660e01b81526004016104b3919061187e565b602060405180830381865afa1580156104d0573d6000803e3d6000fd5b505050506040513d601f19601f820116820180604052508101906104f49190611be7565b90503073ffffffffffffffffffffffffffffffffffffffff168273ffffffffffffffffffffffffffffffffffffffff1663081812fc886040518263ffffffff1660e01b8152600401610546919061187e565b602060405180830381865afa158015610563573d6000803e3d6000fd5b505050506040513d601f19601f820116820180604052508101906105879190611be7565b73ffffffffffffffffffffffffffffffffffffffff16148061062157508173ffffffffffffffffffffffffffffffffffffffff1663e985e9c582306040518363ffffffff1660e01b81526004016105df929190611c14565b602060405180830381865afa1580156105fc573d6000803e3d6000fd5b505050506040513d601f19601f820116820180604052508101906106209190611c52565b5b610660576040517f08c379a000000000000000000000000000000000000000000000000000000000815260040161065790611ccb565b60405180910390fd5b8173ffffffffffffffffffffffffffffffffffffffff166323b872dd8230896040518463ffffffff1660e01b815260040161069d93929190611ceb565b600060405180830381600087803b1580156106b757600080fd5b505af11580156106cb573d6000803e3d6000fd5b50505050600360008154809291906106e290611d51565b91905055506000600354905060008567ffffffffffffffff16426107069190611d99565b90506040518060e001604052808a73ffffffffffffffffffffffffffffffffffffffff1681526020018981526020018881526020018267ffffffffffffffff168152602001600115158152602001600073ffffffffffffffffffffffffffffffffffffffff16815260200160008152506002600084815260200190815260200160002060008201518160000160006101000a81548173ffffffffffffffffffffffffffffffffffffffff021916908373ffffffffffffffffffffffffffffffffffffffff160217905550602082015181600101556040820151816002015560608201518160030160006101000a81548167ffffffffffffffff021916908367ffffffffffffffff16021790555060808201518160030160086101000a81548160ff02191690831515021790555060a08201518160030160096101000a81548173ffffffffffffffffffffffffffffffffffffffff021916908373ffffffffffffffffffffffffffffffffffffffff16021790555060c08201518160040155905050878973ffffffffffffffffffffffffffffffffffffffff16837ffb18858a0a50a2443f73a197fb1f4624c17723e0309ad0f2c5059aa2903563038a856040516108d1929190611dcd565b60405180910390a481945050505050949350505050565b60046020528060005260406000206000915054906101000a900460ff1681565b60035481565b61091661158d565b60006005600083815260200190815260200160002060003373ffffffffffffffffffffffffffffffffffffffff1673ffffffffffffffffffffffffffffffffffffffff168152602001908152602001600020549050600081116109ae576040517f08c379a00000000000000000000000000000000000000000000000000000000081526004016109a590611e42565b60405180910390fd5b60006005600084815260200190815260200160002060003373ffffffffffffffffffffffffffffffffffffffff1673ffffffffffffffffffffffffffffffffffffffff1681526020019081526020016000208190555060003373ffffffffffffffffffffffffffffffffffffffff1682604051610a2a90611e93565b60006040518083038185875af1925050503d8060008114610a67576040519150601f19603f3d011682016040523d82523d6000602084013e610a6c565b606091505b5050905080610ab0576040517f08c379a0000000000000000000000000000000000000000000000000000000008152600401610aa790611ef4565b60405180910390fd5b3373ffffffffffffffffffffffffffffffffffffffff16837fcf7d23a3cbe4e8b36ff82fd1b05b1b17373dc7804b4ebbd6e2356716ef20237284604051610af7919061187e565b60405180910390a35050610b096115d3565b50565b610b1461158d565b60006002600083815260200190815260200160002090508060030160089054906101000a900460ff1615610b7d576040517f08c379a0000000000000000000000000000000000000000000000000000000008152600401610b7490611f60565b60405180910390fd5b600073ffffffffffffffffffffffffffffffffffffffff168160030160099054906101000a900473ffffffffffffffffffffffffffffffffffffffff1673ffffffffffffffffffffffffffffffffffffffff1603610c10576040517f08c379a0000000000000000000000000000000000000000000000000000000008152600401610c0790611fcc565b60405180910390fd5b8060030160099054906101000a900473ffffffffffffffffffffffffffffffffffffffff1673ffffffffffffffffffffffffffffffffffffffff163373ffffffffffffffffffffffffffffffffffffffff1614610ca2576040517f08c379a0000000000000000000000000000000000000000000000000000000008152600401610c9990612038565b60405180910390fd5b60008160000160009054906101000a900473ffffffffffffffffffffffffffffffffffffffff1690508073ffffffffffffffffffffffffffffffffffffffff166323b872dd303385600101546040518463ffffffff1660e01b8152600401610d0c93929190611ceb565b600060405180830381600087803b158015610d2657600080fd5b505af1158015610d3a573d6000803e3d6000fd5b505050503373ffffffffffffffffffffffffffffffffffffffff16837f6aa3eac93d079e5e100b1029be716caa33586c96aa4baac390669fb5c2a2121260405160405180910390a35050610d8c6115d3565b50565b60006002600083815260200190815260200160002090508060030160089054906101000a900460ff16610df7576040517f08c379a0000000000000000000000000000000000000000000000000000000008152600401610dee906120a4565b60405180910390fd5b8060030160009054906101000a900467ffffffffffffffff1667ffffffffffffffff164210610e5b576040517f08c379a0000000000000000000000000000000000000000000000000000000008152600401610e5290612110565b60405180910390fd5b806002015434118015610e715750806004015434115b610eb0576040517f08c379a0000000000000000000000000000000000000000000000000000000008152600401610ea79061217c565b60405180910390fd5b600073ffffffffffffffffffffffffffffffffffffffff168160030160099054906101000a900473ffffffffffffffffffffffffffffffffffffffff1673ffffffffffffffffffffffffffffffffffffffff1614610f985780600401546005600084815260200190815260200160002060008360030160099054906101000a900473ffffffffffffffffffffffffffffffffffffffff1673ffffffffffffffffffffffffffffffffffffffff1673ffffffffffffffffffffffffffffffffffffffff1681526020019081526020016000206000828254610f909190611d99565b925050819055505b338160030160096101000a81548173ffffffffffffffffffffffffffffffffffffffff021916908373ffffffffffffffffffffffffffffffffffffffff1602179055503481600401819055503373ffffffffffffffffffffffffffffffffffffffff16827f0e54eff26401bf69b81b26f60bd85ef47f5d85275c1d268d84f68d6897431c473460405161102b919061187e565b60405180910390a35050565b61103f6115dc565b80600460008473ffffffffffffffffffffffffffffffffffffffff1673ffffffffffffffffffffffffffffffffffffffff16815260200190815260200160002060006101000a81548160ff0219169083151502179055508173ffffffffffffffffffffffffffffffffffffffff167f235bc17e7930760029e9f4d860a2a8089976de5b381cf8380fc11c1d88a11133826040516110dc91906118e1565b60405180910390a25050565b60026020528060005260406000206000915090508060000160009054906101000a900473ffffffffffffffffffffffffffffffffffffffff16908060010154908060020154908060030160009054906101000a900467ffffffffffffffff16908060030160089054906101000a900460ff16908060030160099054906101000a900473ffffffffffffffffffffffffffffffffffffffff16908060040154905087565b6111936115dc565b61119d6000611663565b565b60008060009054906101000a900473ffffffffffffffffffffffffffffffffffffffff16905090565b6005602052816000526040600020602052806000526040600020600091509150505481565b6111f561158d565b60006002600083815260200190815260200160002090508060030160089054906101000a900460ff1661125d576040517f08c379a0000000000000000000000000000000000000000000000000000000008152600401611254906120a4565b60405180910390fd5b8060030160009054906101000a900467ffffffffffffffff1667ffffffffffffffff164210156112c2576040517f08c379a00000000000000000000000000000000000000000000000000000000081526004016112b9906121e8565b60405180910390fd5b60008160030160086101000a81548160ff021916908315150217905550817fd2aa34a4fdbbc6dff6a3e56f46e0f3ae2a31d7785ff3487aa5c95c642acea5018260030160099054906101000a900473ffffffffffffffffffffffffffffffffffffffff168360040154604051611339929190612208565b60405180910390a2600073ffffffffffffffffffffffffffffffffffffffff168160030160099054906101000a900473ffffffffffffffffffffffffffffffffffffffff1673ffffffffffffffffffffffffffffffffffffffff16141580156113a6575060008160040154115b156114fb5760008160000160009054906101000a900473ffffffffffffffffffffffffffffffffffffffff16905060008173ffffffffffffffffffffffffffffffffffffffff16638da5cb5b6040518163ffffffff1660e01b8152600401602060405180830381865afa158015611421573d6000803e3d6000fd5b505050506040513d601f19601f820116820180604052508101906114459190611be7565b905060008173ffffffffffffffffffffffffffffffffffffffff16846004015460405161147190611e93565b60006040518083038185875af1925050503d80600081146114ae576040519150601f19603f3d011682016040523d82523d6000602084013e6114b3565b606091505b50509050806114f7576040517f08c379a00000000000000000000000000000000000000000000000000000000081526004016114ee9061227d565b60405180910390fd5b5050505b506115046115d3565b50565b61150f6115dc565b600073ffffffffffffffffffffffffffffffffffffffff168173ffffffffffffffffffffffffffffffffffffffff16036115815760006040517f1e4fbdf70000000000000000000000000000000000000000000000000000000081526004016115789190611a22565b60405180910390fd5b61158a81611663565b50565b6002600154036115c9576040517f3ee5aeb500000000000000000000000000000000000000000000000000000000815260040160405180910390fd5b6002600181905550565b60018081905550565b6115e4611727565b73ffffffffffffffffffffffffffffffffffffffff1661160261119f565b73ffffffffffffffffffffffffffffffffffffffff161461166157611625611727565b6040517f118cdaa70000000000000000000000000000000000000000000000000000000081526004016116589190611a22565b60405180910390fd5b565b60008060009054906101000a900473ffffffffffffffffffffffffffffffffffffffff169050816000806101000a81548173ffffffffffffffffffffffffffffffffffffffff021916908373ffffffffffffffffffffffffffffffffffffffff1602179055508173ffffffffffffffffffffffffffffffffffffffff168173ffffffffffffffffffffffffffffffffffffffff167f8be0079c531659141344cd1fd0a4f28419497f9722a3daafe3b4186f6b6457e060405160405180910390a35050565b600033905090565b600080fd5b600073ffffffffffffffffffffffffffffffffffffffff82169050919050565b600061175f82611734565b9050919050565b61176f81611754565b811461177a57600080fd5b50565b60008135905061178c81611766565b92915050565b6000819050919050565b6117a581611792565b81146117b057600080fd5b50565b6000813590506117c28161179c565b92915050565b600067ffffffffffffffff82169050919050565b6117e5816117c8565b81146117f057600080fd5b50565b600081359050611802816117dc565b92915050565b600080600080608085870312156118225761182161172f565b5b60006118308782880161177d565b9450506020611841878288016117b3565b9350506040611852878288016117b3565b9250506060611863878288016117f3565b91505092959194509250565b61187881611792565b82525050565b6000602082019050611893600083018461186f565b92915050565b6000602082840312156118af576118ae61172f565b5b60006118bd8482850161177d565b91505092915050565b60008115159050919050565b6118db816118c6565b82525050565b60006020820190506118f660008301846118d2565b92915050565b6000602082840312156119125761191161172f565b5b6000611920848285016117b3565b91505092915050565b611932816118c6565b811461193d57600080fd5b50565b60008135905061194f81611929565b92915050565b6000806040838503121561196c5761196b61172f565b5b600061197a8582860161177d565b925050602061198b85828601611940565b9150509250929050565b61199e81611754565b82525050565b6119ad816117c8565b82525050565b600060e0820190506119c8600083018a611995565b6119d5602083018961186f565b6119e2604083018861186f565b6119ef60608301876119a4565b6119fc60808301866118d2565b611a0960a0830185611995565b611a1660c083018461186f565b98975050505050505050565b6000602082019050611a376000830184611995565b92915050565b60008060408385031215611a5457611a5361172f565b5b6000611a62858286016117b3565b9250506020611a738582860161177d565b9150509250929050565b600082825260208201905092915050565b7f4e6f742061646d696e0000000000000000000000000000000000000000000000600082015250565b6000611ac4600983611a7d565b9150611acf82611a8e565b602082019050919050565b60006020820190508181036000830152611af381611ab7565b9050919050565b7f4475726174696f6e20746f6f2073686f72740000000000000000000000000000600082015250565b6000611b30601283611a7d565b9150611b3b82611afa565b602082019050919050565b60006020820190508181036000830152611b5f81611b23565b9050919050565b7f496e76616c6964207374617274696e6720626964000000000000000000000000600082015250565b6000611b9c601483611a7d565b9150611ba782611b66565b602082019050919050565b60006020820190508181036000830152611bcb81611b8f565b9050919050565b600081519050611be181611766565b92915050565b600060208284031215611bfd57611bfc61172f565b5b6000611c0b84828501611bd2565b91505092915050565b6000604082019050611c296000830185611995565b611c366020830184611995565b9392505050565b600081519050611c4c81611929565b92915050565b600060208284031215611c6857611c6761172f565b5b6000611c7684828501611c3d565b91505092915050565b7f41756374696f6e206e6f7420617070726f766564000000000000000000000000600082015250565b6000611cb5601483611a7d565b9150611cc082611c7f565b602082019050919050565b60006020820190508181036000830152611ce481611ca8565b9050919050565b6000606082019050611d006000830186611995565b611d0d6020830185611995565b611d1a604083018461186f565b949350505050565b7f4e487b7100000000000000000000000000000000000000000000000000000000600052601160045260246000fd5b6000611d5c82611792565b91507fffffffffffffffffffffffffffffffffffffffffffffffffffffffffffffffff8203611d8e57611d8d611d22565b5b600182019050919050565b6000611da482611792565b9150611daf83611792565b9250828201905080821115611dc757611dc6611d22565b5b92915050565b6000604082019050611de2600083018561186f565b611def60208301846119a4565b9392505050565b7f4e6f7468696e6720746f20776974686472617700000000000000000000000000600082015250565b6000611e2c601383611a7d565b9150611e3782611df6565b602082019050919050565b60006020820190508181036000830152611e5b81611e1f565b9050919050565b600081905092915050565b50565b6000611e7d600083611e62565b9150611e8882611e6d565b600082019050919050565b6000611e9e82611e70565b9150819050919050565b7f5769746864726177206661696c65640000000000000000000000000000000000600082015250565b6000611ede600f83611a7d565b9150611ee982611ea8565b602082019050919050565b60006020820190508181036000830152611f0d81611ed1565b9050919050565b7f41756374696f6e207374696c6c20616374697665000000000000000000000000600082015250565b6000611f4a601483611a7d565b9150611f5582611f14565b602082019050919050565b60006020820190508181036000830152611f7981611f3d565b9050919050565b7f4e6f2077696e6e65720000000000000000000000000000000000000000000000600082015250565b6000611fb6600983611a7d565b9150611fc182611f80565b602082019050919050565b60006020820190508181036000830152611fe581611fa9565b9050919050565b7f4e6f742077696e6e657200000000000000000000000000000000000000000000600082015250565b6000612022600a83611a7d565b915061202d82611fec565b602082019050919050565b6000602082019050818103600083015261205181612015565b9050919050565b7f41756374696f6e206e6f74206163746976650000000000000000000000000000600082015250565b600061208e601283611a7d565b915061209982612058565b602082019050919050565b600060208201905081810360008301526120bd81612081565b9050919050565b7f41756374696f6e20656e64656400000000000000000000000000000000000000600082015250565b60006120fa600d83611a7d565b9150612105826120c4565b602082019050919050565b60006020820190508181036000830152612129816120ed565b9050919050565b7f42696420746f6f206c6f77000000000000000000000000000000000000000000600082015250565b6000612166600b83611a7d565b915061217182612130565b602082019050919050565b6000602082019050818103600083015261219581612159565b9050919050565b7f41756374696f6e206e6f7420656e646564207965740000000000000000000000600082015250565b60006121d2601583611a7d565b91506121dd8261219c565b602082019050919050565b60006020820190508181036000830152612201816121c5565b9050919050565b600060408201905061221d6000830185611995565b61222a602083018461186f565b9392505050565b7f5061796f7574206661696c656400000000000000000000000000000000000000600082015250565b6000612267600d83611a7d565b915061227282612231565b602082019050919050565b600060208201905081810360008301526122968161225a565b905091905056fea264697066735822122062936be8f86a3aa5d09e9207fad2bf5a7b985eae9ebc273ad3f604818a0b643264736f6c63430008180033",
  "linkReferences": {},
  "deployedLinkReferences": {}
}