{
  "_format": "hh-sol-artifact-1",
  "contractName": "DnANFT",
  "sourceName": "contracts/DnANFT.sol",
  "abi": [
    {
      "inputs": [
        {
          "internalType": "string",
          "name": "name_",
          "type": "string"
        },
        {
          "internalType": "string",
          "name": "symbol_",
          "type": "string"
        }
      ],
      "stateMutability": "nonpayable",
      "type": "constructor"
    },
    {
      "inputs": [
        {
          "internalType": "address",
          "name": "sender",
          "type": "address"
        },
        {
          "internalType": "uint256",
          "name": "tokenId",
          "type": "uint256"
        },
        {
          "internalType": "address",
          "name": "owner",
          "type": "address"
        }
      ],
      "name": "ERC721IncorrectOwner",
      "type": "error"
    },
    {
      "inputs": [
        {
          "internalType": "address",
          "name": "operator",
          "type": "address"
        },
        {
          "internalType": "uint256",
          "name": "tokenId",
          "type": "uint256"
        }
      ],
      "name": "ERC721InsufficientApproval",
      "type": "error"
    },
    {
      "inputs": [
        {
          "internalType": "address",
          "name": "approver",
          "type": "address"
        }
      ],
      "name": "ERC721InvalidApprover",
      "type": "error"
    },
    {
      "inputs": [
        {
          "internalType": "address",
          "name": "operator",
          "type": "address"
        }
      ],
      "name": "ERC721InvalidOperator",
      "type": "error"
    },
    {
      "inputs": [
        {
          "internalType": "address",
          "name": "owner",
          "type": "address"
        }
      ],
      "name": "ERC721InvalidOwner",
      "type": "error"
    },
    {
      "inputs": [
        {
          "internalType": "address",
          "name": "receiver",
          "type": "address"
        }
      ],
      "name": "ERC721InvalidReceiver",
      "type": "error"
    },
    {
      "inputs": [
        {
          "internalType": "address",
          "name": "sender",
          "type": "address"
        }
      ],
      "name": "ERC721InvalidSender",
      "type": "error"
    },
    {
      "inputs": [
        {
          "internalType": "uint256",
          "name": "tokenId",
          "type": "uint256"
        }
      ],
      "name": "ERC721NonexistentToken",
      "type": "error"
    },
    {
      "inputs": [
        {
          "internalType": "address",
          "name": "owner",
          "type": "address"
        }
      ],
      "name": "OwnableInvalidOwner",
      "type": "error"
    },
    {
      "inputs": [
        {
          "internalType": "address",
          "name": "account",
          "type": "address"
        }
      ],
      "name": "OwnableUnauthorizedAccount",
      "type": "error"
    },
    {
      "inputs": [],
      "name": "ReentrancyGuardReentrantCall",
      "type": "error"
    },
    {
      "anonymous": false,
      "inputs": [
        {
          "indexed": true,
          "internalType": "address",
          "name": "admin",
          "type": "address"
        },
        {
          "indexed": false,
          "internalType": "bool",
          "name": "enabled",
          "type": "bool"
        }
      ],
      "name": "AdminUpdated",
      "type": "event"
    },
    {
      "anonymous": false,
      "inputs": [
        {
          "indexed": true,
          "internalType": "address",
          "name": "owner",
          "type": "address"
        },
        {
          "indexed": true,
          "internalType": "address",
          "name": "approved",
          "type": "address"
        },
        {
          "indexed": true,
          "internalType": "uint256",
          "name": "tokenId",
          "type": "uint256"
        }
      ],
      "name": "Approval",
      "type": "event"
    },
    {
      "anonymous": false,
      "inputs": [
        {
          "indexed": true,
          "internalType": "address",
          "name": "owner",
          "type": "address"
        },
        {
          "indexed": true,
          "internalType": "address",
          "name": "operator",
          "type": "address"
        },
        {
          "indexed": false,
          "internalType": "bool",
          "name": "approved",
          "type": "bool"
        }
      ],
      "name": "ApprovalForAll",
      "type": "event"
    },
    {
      "anonymous": false,
      "inputs": [
        {
          "indexed": false,
          "internalType": "uint256",
          "name": "_fromTokenId",
          "type": "uint256"
        },
        {
          "indexed": false,
          "internalType": "uint256",
          "name": "_toTokenId",
          "type": "uint256"
        }
      ],
      "name": "BatchMetadataUpdate",
      "type": "event"
    },
    {
      "anonymous": false,
      "inputs": [
        {
          "indexed": false,
          "internalType": "uint256",
          "name": "_tokenId",
          "type": "uint256"
        }
      ],
      "name": "MetadataUpdate",
      "type": "event"
    },
    {
      "anonymous": false,
      "inputs": [
        {
          "indexed": true,
          "internalType": "address",
          "name": "to",
          "type": "address"
        },
        {
          "indexed": true,
          "internalType": "uint256",
          "name": "tokenId",
          "type": "uint256"
        },
        {
          "indexed": false,
          "internalType": "string",
          "name": "uri",
          "type": "string"
        }
      ],
      "name": "Minted",
      "type": "event"
    },
    {
      "anonymous": false,
      "inputs": [
        {
          "indexed": true,
          "internalType": "address",
          "name": "previousOwner",
          "type": "address"
        },
        {
          "indexed": true,
          "internalType": "address",
          "name": "newOwner",
          "type": "address"
        }
      ],
      "name": "OwnershipTransferred",
      "type": "event"
    },
    {
      "anonymous": false,
      "inputs": [
        {
          "indexed": true,
          "internalType": "uint256",
          "name": "tokenId",
          "type": "uint256"
        },
        {
          "indexed": false,
          "internalType": "uint256",
          "name": "price",
          "type": "uint256"
        }
      ],
      "name": "PriceSet",
      "type": "event"
    },
    {
      "anonymous": false,
      "inputs": [
        {
          "indexed": true,
          "internalType": "address",
          "name": "buyer",
          "type": "address"
        },
        {
          "indexed": true,
          "internalType": "uint256",
          "name": "tokenId",
          "type": "uint256"
        },
        {
          "indexed": false,
          "internalType": "uint256",
          "name": "price",
          "type": "uint256"
        }
      ],
      "name": "Purchased",
      "type": "event"
    },
    {
      "anonymous": false,
      "inputs": [
        {
          "indexed": true,
          "internalType": "address",
          "name": "from",
          "type": "address"
        },
        {
          "indexed": true,
          "internalType": "address",
          "name": "to",
          "type": "address"
        },
        {
          "indexed": true,
          "internalType": "uint256",
          "name": "tokenId",
          "type": "uint256"
        }
      ],
      "name": "Transfer",
      "type": "event"
    },
    {
      "inputs": [
        {
          "internalType": "address",
          "name": "to",
          "type": "address"
        },
        {
          "internalType": "uint256",
          "name": "tokenId",
          "type": "uint256"
        }
      ],
      "name": "approve",
      "outputs": [],
      "stateMutability": "nonpayable",
      "type": "function"
    },
    {
      "inputs": [
        {
          "internalType": "address",
          "name": "owner",
          "type": "address"
        }
      ],
      "name": "balanceOf",
      "outputs": [
        {
          "internalType": "uint256",
          "name": "",
          "type": "uint256"
        }
      ],
      "stateMutability": "view",
      "type": "function"
    },
    {
      "inputs": [
        {
          "internalType": "uint256",
          "name": "tokenId",
          "type": "uint256"
        }
      ],
      "name": "buy",
      "outputs": [],
      "stateMutability": "payable",
      "type": "function"
    },
    {
      "inputs": [],
      "name": "getAllNFTs",
      "outputs": [
        {
          "internalType": "uint256[]",
          "name": "ids",
          "type": "uint256[]"
        },
        {
          "internalType": "address[]",
          "name": "owners",
          "type": "address[]"
        },
        {
          "internalType": "string[]",
          "name": "uris",
          "type": "string[]"
        },
        {
          "internalType": "uint256[]",
          "name": "prices",
          "type": "uint256[]"
        }
      ],
      "stateMutability": "view",
      "type": "function"
    },
    {
      "inputs": [
        {
          "internalType": "uint256",
          "name": "tokenId",
          "type": "uint256"
        }
      ],
      "name": "getApproved",
      "outputs": [
        {
          "internalType": "address",
          "name": "",
          "type": "address"
        }
      ],
      "stateMutability": "view",
      "type": "function"
    },
    {
      "inputs": [
        {
          "internalType": "address",
          "name": "",
          "type": "address"
        }
      ],
      "name": "isAdmin",
      "outputs": [
        {
          "internalType": "bool",
          "name": "",
          "type": "bool"
        }
      ],
      "stateMutability": "view",
      "type": "function"
    },
    {
      "inputs": [
        {
          "internalType": "address",
          "name": "owner",
          "type": "address"
        },
        {
          "internalType": "address",
          "name": "operator",
          "type": "address"
        }
      ],
      "name": "isApprovedForAll",
      "outputs": [
        {
          "internalType": "bool",
          "name": "",
          "type": "bool"
        }
      ],
      "stateMutability": "view",
      "type": "function"
    },
    {
      "inputs": [
        {
          "internalType": "address",
          "name": "to",
          "type": "address"
        },
        {
          "internalType": "string",
          "name": "uri",
          "type": "string"
        }
      ],
      "name": "mintTo",
      "outputs": [],
      "stateMutability": "nonpayable",
      "type": "function"
    },
    {
      "inputs": [],
      "name": "name",
      "outputs": [
        {
          "internalType": "string",
          "name": "",
          "type": "string"
        }
      ],
      "stateMutability": "view",
      "type": "function"
    },
    {
      "inputs": [],
      "name": "owner",
      "outputs": [
        {
          "internalType": "address",
          "name": "",
          "type": "address"
        }
      ],
      "stateMutability": "view",
      "type": "function"
    },
    {
      "inputs": [
        {
          "internalType": "uint256",
          "name": "tokenId",
          "type": "uint256"
        }
      ],
      "name": "ownerOf",
      "outputs": [
        {
          "internalType": "address",
          "name": "",
          "type": "address"
        }
      ],
      "stateMutability": "view",
      "type": "function"
    },
    {
      "inputs": [],
      "name": "renounceOwnership",
      "outputs": [],
      "stateMutability": "nonpayable",
      "type": "function"
    },
    {
      "inputs": [
        {
          "internalType": "address",
          "name": "from",
          "type": "address"
        },
        {
          "internalType": "address",
          "name": "to",
          "type": "address"
        },
        {
          "internalType": "uint256",
          "name": "tokenId",
          "type": "uint256"
        }
      ],
      "name": "safeTransferFrom",
      "outputs": [],
      "stateMutability": "nonpayable",
      "type": "function"
    },
    {
      "inputs": [
        {
          "internalType": "address",
          "name": "from",
          "type": "address"
        },
        {
          "internalType": "address",
          "name": "to",
          "type": "address"
        },
        {
          "internalType": "uint256",
          "name": "tokenId",
          "type": "uint256"
        },
        {
          "internalType": "bytes",
          "name": "data",
          "type": "bytes"
        }
      ],
      "name": "safeTransferFrom",
      "outputs": [],
      "stateMutability": "nonpayable",
      "type": "function"
    },
    {
      "inputs": [
        {
          "internalType": "address",
          "name": "account",
          "type": "address"
        },
        {
          "internalType": "bool",
          "name": "enabled",
          "type": "bool"
        }
      ],
      "name": "setAdmin",
      "outputs": [],
      "stateMutability": "nonpayable",
      "type": "function"
    },
    {
      "inputs": [
        {
          "internalType": "address",
          "name": "operator",
          "type": "address"
        },
        {
          "internalType": "bool",
          "name": "approved",
          "type": "bool"
        }
      ],
      "name": "setApprovalForAll",
      "outputs": [],
      "stateMutability": "nonpayable",
      "type": "function"
    },
    {
      "inputs": [
        {
          "internalType": "uint256",
          "name": "tokenId",
          "type": "uint256"
        },
        {
          "internalType": "uint256",
          "name": "priceWei",
          "type": "uint256"
        }
      ],
      "name": "setTokenPrice",
      "outputs": [],
      "stateMutability": "nonpayable",
      "type": "function"
    },
    {
      "inputs": [
        {
          "internalType": "bytes4",
          "name": "interfaceId",
          "type": "bytes4"
        }
      ],
      "name": "supportsInterface",
      "outputs": [
        {
          "internalType": "bool",
          "name": "",
          "type": "bool"
        }
      ],
      "stateMutability": "view",
      "type": "function"
    },
    {
      "inputs": [],
      "name": "symbol",
      "outputs": [
        {
          "internalType": "string",
          "name": "",
          "type": "string"
        }
      ],
      "stateMutability": "view",
      "type": "function"
    },
    {
      "inputs": [
        {
          "internalType": "uint256",
          "name": "",
          "type": "uint256"
        }
      ],
      "name": "tokenPrice",
      "outputs": [
        {
          "internalType": "uint256",
          "name": "",
          "type": "uint256"
        }
      ],
      "stateMutability": "view",
      "type": "function"
    },
    {
      "inputs": [
        {
          "internalType": "uint256",
          "name": "tokenId",
          "type": "uint256"
        }
      ],
      "name": "tokenURI",
      "outputs": [
        {
          "internalType": "string",
          "name": "",
          "type": "string"
        }
      ],
      "stateMutability": "view",
      "type": "function"
    },
    {
      "inputs": [
        {
          "internalType": "address",
          "name": "from",
          "type": "address"
        },
        {
          "internalType": "address",
          "name": "to",
          "type": "address"
        },
        {
          "internalType": "uint256",
          "name": "tokenId",
          "type": "uint256"
        }
      ],
      "name": "transferFrom",
      "outputs": [],
      "stateMutability": "nonpayable",
      "type": "function"
    },
    {
      "inputs": [
        {
          "internalType": "address",
          "name": "newOwner",
          "type": "address"
        }
      ],
      "name": "transferOwnership",
      "outputs": [],
      "stateMutability": "nonpayable",
      "type": "function"
    }
  ],
  "bytecode": "0x60806040526001600b553480156200001657600080fd5b50604051620040f9380380620040f983398181016040528101906200003c919062000355565b338282816000908162000050919062000625565b50806001908162000062919062000625565b505050600073ffffffffffffffffffffffffffffffffffffffff168173ffffffffffffffffffffffffffffffffffffffff1603620000da5760006040517f1e4fbdf7000000000000000000000000000000000000000000000000000000008152600401620000d1919062000751565b60405180910390fd5b620000eb81620000fc60201b60201c565b50600160088190555050506200076e565b6000600760009054906101000a900473ffffffffffffffffffffffffffffffffffffffff16905081600760006101000a81548173ffffffffffffffffffffffffffffffffffffffff021916908373ffffffffffffffffffffffffffffffffffffffff1602179055508173ffffffffffffffffffffffffffffffffffffffff168173ffffffffffffffffffffffffffffffffffffffff167f8be0079c531659141344cd1fd0a4f28419497f9722a3daafe3b4186f6b6457e060405160405180910390a35050565b6000604051905090565b600080fd5b600080fd5b600080fd5b600080fd5b6000601f19601f8301169050919050565b7f4e487b7100000000000000000000000000000000000000000000000000000000600052604160045260246000fd5b6200022b82620001e0565b810181811067ffffffffffffffff821117156200024d576200024c620001f1565b5b80604052505050565b600062000262620001c2565b905062000270828262000220565b919050565b600067ffffffffffffffff821115620002935762000292620001f1565b5b6200029e82620001e0565b9050602081019050919050565b60005b83811015620002cb578082015181840152602081019050620002ae565b60008484015250505050565b6000620002ee620002e88462000275565b62000256565b9050828152602081018484840111156200030d576200030c620001db565b5b6200031a848285620002ab565b509392505050565b600082601f8301126200033a5762000339620001d6565b5b81516200034c848260208601620002d7565b91505092915050565b600080604083850312156200036f576200036e620001cc565b5b600083015167ffffffffffffffff81111562000390576200038f620001d1565b5b6200039e8582860162000322565b925050602083015167ffffffffffffffff811115620003c257620003c1620001d1565b5b620003d08582860162000322565b9150509250929050565b600081519050919050565b7f4e487b7100000000000000000000000000000000000000000000000000000000600052602260045260246000fd5b600060028204905060018216806200042d57607f821691505b602082108103620004435762000442620003e5565b5b50919050565b60008190508160005260206000209050919050565b60006020601f8301049050919050565b600082821b905092915050565b600060088302620004ad7fffffffffffffffffffffffffffffffffffffffffffffffffffffffffffffffff826200046e565b620004b986836200046e565b95508019841693508086168417925050509392505050565b6000819050919050565b6000819050919050565b60006200050662000500620004fa84620004d1565b620004db565b620004d1565b9050919050565b6000819050919050565b6200052283620004e5565b6200053a62000531826200050d565b8484546200047b565b825550505050565b600090565b6200055162000542565b6200055e81848462000517565b505050565b5b8181101562000586576200057a60008262000547565b60018101905062000564565b5050565b601f821115620005d5576200059f8162000449565b620005aa846200045e565b81016020851015620005ba578190505b620005d2620005c9856200045e565b83018262000563565b50505b505050565b600082821c905092915050565b6000620005fa60001984600802620005da565b1980831691505092915050565b6000620006158383620005e7565b9150826002028217905092915050565b6200063082620003da565b67ffffffffffffffff8111156200064c576200064b620001f1565b5b62000658825462000414565b620006658282856200058a565b600060209050601f8311600181146200069d576000841562000688578287015190505b62000694858262000607565b86555062000704565b601f198416620006ad8662000449565b60005b82811015620006d757848901518255600182019150602085019450602081019050620006b0565b86831015620006f75784890151620006f3601f891682620005e7565b8355505b6001600288020188555050505b505050505050565b600073ffffffffffffffffffffffffffffffffffffffff82169050919050565b600062000739826200070c565b9050919050565b6200074b816200072c565b82525050565b600060208201905062000768600083018462000740565b92915050565b61397b806200077e6000396000f3fe60806040526004361061013f5760003560e01c8063715018a6116100b6578063d4ddce8a1161006f578063d4ddce8a14610469578063d96a094a146104a6578063e0391b09146104c2578063e985e9c5146104f0578063eb685c471461052d578063f2fde38b146105565761013f565b8063715018a61461036d5780638da5cb5b1461038457806395d89b41146103af578063a22cb465146103da578063b88d4fde14610403578063c87b56dd1461042c5761013f565b806323b872dd1161010857806323b872dd1461023b57806324d7806c1461026457806342842e0e146102a15780634b0bddd2146102ca5780636352211e146102f357806370a08231146103305761013f565b806275a3171461014457806301ffc9a71461016d57806306fdde03146101aa578063081812fc146101d5578063095ea7b314610212575b600080fd5b34801561015057600080fd5b5061016b60048036038101906101669190612804565b61057f565b005b34801561017957600080fd5b50610194600480360381019061018f91906128bc565b61073b565b6040516101a19190612904565b60405180910390f35b3480156101b657600080fd5b506101bf61079c565b6040516101cc91906129af565b60405180910390f35b3480156101e157600080fd5b506101fc60048036038101906101f79190612a07565b61082e565b6040516102099190612a43565b60405180910390f35b34801561021e57600080fd5b5061023960048036038101906102349190612a5e565b61084a565b005b34801561024757600080fd5b50610262600480360381019061025d9190612a9e565b610860565b005b34801561027057600080fd5b5061028b60048036038101906102869190612af1565b610962565b6040516102989190612904565b60405180910390f35b3480156102ad57600080fd5b506102c860048036038101906102c39190612a9e565b610982565b005b3480156102d657600080fd5b506102f160048036038101906102ec9190612b4a565b6109a2565b005b3480156102ff57600080fd5b5061031a60048036038101906103159190612a07565b610a53565b6040516103279190612a43565b60405180910390f35b34801561033c57600080fd5b5061035760048036038101906103529190612af1565b610a65565b6040516103649190612b99565b60405180910390f35b34801561037957600080fd5b50610382610b1f565b005b34801561039057600080fd5b50610399610b33565b6040516103a69190612a43565b60405180910390f35b3480156103bb57600080fd5b506103c4610b5d565b6040516103d191906129af565b60405180910390f35b3480156103e657600080fd5b5061040160048036038101906103fc9190612b4a565b610bef565b005b34801561040f57600080fd5b5061042a60048036038101906104259190612ce4565b610c05565b005b34801561043857600080fd5b50610453600480360381019061044e9190612a07565b610c2a565b60405161046091906129af565b60405180910390f35b34801561047557600080fd5b50610490600480360381019061048b9190612a07565b610d3d565b60405161049d9190612b99565b60405180910390f35b6104c060048036038101906104bb9190612a07565b610d55565b005b3480156104ce57600080fd5b506104d7610fa9565b6040516104e79493929190612fef565b60405180910390f35b3480156104fc57600080fd5b5061051760048036038101906105129190613050565b611251565b6040516105249190612904565b60405180910390f35b34801561053957600080fd5b50610554600480360381019061054f9190613090565b6112e5565b005b34801561056257600080fd5b5061057d60048036038101906105789190612af1565b611479565b005b610587610b33565b73ffffffffffffffffffffffffffffffffffffffff163373ffffffffffffffffffffffffffffffffffffffff1614806106095750600960003373ffffffffffffffffffffffffffffffffffffffff1673ffffffffffffffffffffffffffffffffffffffff16815260200190815260200160002060009054906101000a900460ff165b610648576040517f08c379a000000000000000000000000000000000000000000000000000000000815260040161063f9061311c565b60405180910390fd5b6000600b600081548092919061065d9061316b565b91905055905061066d84826114ff565b6106bb8184848080601f016020809104026020016040519081016040528093929190818152602001838380828437600081840152601f19601f8201169050808301925050505050505061151d565b600c819080600181540180825580915050600190039060005260206000200160009091909190915055808473ffffffffffffffffffffffffffffffffffffffff167fe7cd4ce7f2a465edc730269a1305e8a48bad821e8fb7e152ec413829c01a53c4858560405161072d9291906131e0565b60405180910390a350505050565b6000634906490660e01b7bffffffffffffffffffffffffffffffffffffffffffffffffffffffff1916827bffffffffffffffffffffffffffffffffffffffffffffffffffffffff19161480610795575061079482611579565b5b9050919050565b6060600080546107ab90613233565b80601f01602080910402602001604051908101604052809291908181526020018280546107d790613233565b80156108245780601f106107f957610100808354040283529160200191610824565b820191906000526020600020905b81548152906001019060200180831161080757829003601f168201915b5050505050905090565b60006108398261165b565b50610843826116e3565b9050919050565b61085c8282610857611720565b611728565b5050565b600073ffffffffffffffffffffffffffffffffffffffff168273ffffffffffffffffffffffffffffffffffffffff16036108d25760006040517f64a0ae920000000000000000000000000000000000000000000000000000000081526004016108c99190612a43565b60405180910390fd5b60006108e683836108e1611720565b61173a565b90508373ffffffffffffffffffffffffffffffffffffffff168173ffffffffffffffffffffffffffffffffffffffff161461095c578382826040517f64283d7b00000000000000000000000000000000000000000000000000000000815260040161095393929190613264565b60405180910390fd5b50505050565b60096020528060005260406000206000915054906101000a900460ff1681565b61099d83838360405180602001604052806000815250610c05565b505050565b6109aa611954565b80600960008473ffffffffffffffffffffffffffffffffffffffff1673ffffffffffffffffffffffffffffffffffffffff16815260200190815260200160002060006101000a81548160ff0219169083151502179055508173ffffffffffffffffffffffffffffffffffffffff167f235bc17e7930760029e9f4d860a2a8089976de5b381cf8380fc11c1d88a1113382604051610a479190612904565b60405180910390a25050565b6000610a5e8261165b565b9050919050565b60008073ffffffffffffffffffffffffffffffffffffffff168273ffffffffffffffffffffffffffffffffffffffff1603610ad85760006040517f89c62b64000000000000000000000000000000000000000000000000000000008152600401610acf9190612a43565b60405180910390fd5b600360008373ffffffffffffffffffffffffffffffffffffffff1673ffffffffffffffffffffffffffffffffffffffff168152602001908152602001600020549050919050565b610b27611954565b610b3160006119db565b565b6000600760009054906101000a900473ffffffffffffffffffffffffffffffffffffffff16905090565b606060018054610b6c90613233565b80601f0160208091040260200160405190810160405280929190818152602001828054610b9890613233565b8015610be55780601f10610bba57610100808354040283529160200191610be5565b820191906000526020600020905b815481529060010190602001808311610bc857829003601f168201915b5050505050905090565b610c01610bfa611720565b8383611aa1565b5050565b610c10848484610860565b610c24610c1b611720565b85858585611c10565b50505050565b6060610c358261165b565b506000600660008481526020019081526020016000208054610c5690613233565b80601f0160208091040260200160405190810160405280929190818152602001828054610c8290613233565b8015610ccf5780601f10610ca457610100808354040283529160200191610ccf565b820191906000526020600020905b815481529060010190602001808311610cb257829003601f168201915b505050505090506000610ce0611dc1565b90506000815103610cf5578192505050610d38565b600082511115610d2a578082604051602001610d129291906132d7565b60405160208183030381529060405292505050610d38565b610d3384611dd8565b925050505b919050565b600a6020528060005260406000206000915090505481565b610d5d611e41565b6000600a600083815260200190815260200160002054905060008111610db8576040517f08c379a0000000000000000000000000000000000000000000000000000000008152600401610daf90613347565b60405180910390fd5b803414610dfa576040517f08c379a0000000000000000000000000000000000000000000000000000000008152600401610df1906133b3565b60405180910390fd5b6000610e0583610a53565b90503373ffffffffffffffffffffffffffffffffffffffff168173ffffffffffffffffffffffffffffffffffffffff1603610e75576040517f08c379a0000000000000000000000000000000000000000000000000000000008152600401610e6c9061341f565b60405180910390fd5b6000610e7f610b33565b73ffffffffffffffffffffffffffffffffffffffff1634604051610ea290613470565b60006040518083038185875af1925050503d8060008114610edf576040519150601f19603f3d011682016040523d82523d6000602084013e610ee4565b606091505b5050905080610f28576040517f08c379a0000000000000000000000000000000000000000000000000000000008152600401610f1f906134d1565b60405180910390fd5b610f33823386611e87565b6000600a600086815260200190815260200160002081905550833373ffffffffffffffffffffffffffffffffffffffff167ff761777482b4b40d2bcc0d050cfba6829900a2d8b3484bd0244ec0feeb3db50485604051610f939190612b99565b60405180910390a3505050610fa6611ff4565b50565b6060806060806000600c8054905090508067ffffffffffffffff811115610fd357610fd2612bb9565b5b6040519080825280602002602001820160405280156110015781602001602082028036833780820191505090505b5094508067ffffffffffffffff81111561101e5761101d612bb9565b5b60405190808252806020026020018201604052801561104c5781602001602082028036833780820191505090505b5093508067ffffffffffffffff81111561106957611068612bb9565b5b60405190808252806020026020018201604052801561109c57816020015b60608152602001906001900390816110875790505b5092508067ffffffffffffffff8111156110b9576110b8612bb9565b5b6040519080825280602002602001820160405280156110e75781602001602082028036833780820191505090505b5091506000805b82811015611248576000600c828154811061110c5761110b6134f1565b5b90600052602060002001549050600073ffffffffffffffffffffffffffffffffffffffff1661113a82611ffe565b73ffffffffffffffffffffffffffffffffffffffff160361115b575061123b565b8088848151811061116f5761116e6134f1565b5b60200260200101818152505061118481610a53565b878481518110611197576111966134f1565b5b602002602001019073ffffffffffffffffffffffffffffffffffffffff16908173ffffffffffffffffffffffffffffffffffffffff16815250506111da81610c2a565b8684815181106111ed576111ec6134f1565b5b6020026020010181905250600a60008281526020019081526020016000205485848151811061121f5761121e6134f1565b5b60200260200101818152505082806112369061316b565b935050505b80806001019150506110ee565b50505090919293565b6000600560008473ffffffffffffffffffffffffffffffffffffffff1673ffffffffffffffffffffffffffffffffffffffff16815260200190815260200160002060008373ffffffffffffffffffffffffffffffffffffffff1673ffffffffffffffffffffffffffffffffffffffff16815260200190815260200160002060009054906101000a900460ff16905092915050565b6112ed610b33565b73ffffffffffffffffffffffffffffffffffffffff163373ffffffffffffffffffffffffffffffffffffffff16148061136f5750600960003373ffffffffffffffffffffffffffffffffffffffff1673ffffffffffffffffffffffffffffffffffffffff16815260200190815260200160002060009054906101000a900460ff165b6113ae576040517f08c379a00000000000000000000000000000000000000000000000000000000081526004016113a59061311c565b60405180910390fd5b600073ffffffffffffffffffffffffffffffffffffffff166113cf83611ffe565b73ffffffffffffffffffffffffffffffffffffffff1603611425576040517f08c379a000000000000000000000000000000000000000000000000000000000815260040161141c9061356c565b60405180910390fd5b80600a600084815260200190815260200160002081905550817fa0f1665b7b659537b52deec61ea64d134a3bccda74c7f4e79f2246e7a8187a8a8260405161146d9190612b99565b60405180910390a25050565b611481611954565b600073ffffffffffffffffffffffffffffffffffffffff168173ffffffffffffffffffffffffffffffffffffffff16036114f35760006040517f1e4fbdf70000000000000000000000000000000000000000000000000000000081526004016114ea9190612a43565b60405180910390fd5b6114fc816119db565b50565b61151982826040518060200160405280600081525061203b565b5050565b8060066000848152602001908152602001600020908161153d9190613738565b507ff8e1a15aba9398e019f0b49df1a4fde98ee17ae345cb5f6b5e2c27f5033e8ce78260405161156d9190612b99565b60405180910390a15050565b60007f80ac58cd000000000000000000000000000000000000000000000000000000007bffffffffffffffffffffffffffffffffffffffffffffffffffffffff1916827bffffffffffffffffffffffffffffffffffffffffffffffffffffffff1916148061164457507f5b5e139f000000000000000000000000000000000000000000000000000000007bffffffffffffffffffffffffffffffffffffffffffffffffffffffff1916827bffffffffffffffffffffffffffffffffffffffffffffffffffffffff1916145b8061165457506116538261205f565b5b9050919050565b60008061166783611ffe565b9050600073ffffffffffffffffffffffffffffffffffffffff168173ffffffffffffffffffffffffffffffffffffffff16036116da57826040517f7e2732890000000000000000000000000000000000000000000000000000000081526004016116d19190612b99565b60405180910390fd5b80915050919050565b60006004600083815260200190815260200160002060009054906101000a900473ffffffffffffffffffffffffffffffffffffffff169050919050565b600033905090565b61173583838360016120c9565b505050565b60008061174684611ffe565b9050600073ffffffffffffffffffffffffffffffffffffffff168373ffffffffffffffffffffffffffffffffffffffff16146117885761178781848661228e565b5b600073ffffffffffffffffffffffffffffffffffffffff168173ffffffffffffffffffffffffffffffffffffffff1614611819576117ca6000856000806120c9565b6001600360008373ffffffffffffffffffffffffffffffffffffffff1673ffffffffffffffffffffffffffffffffffffffff168152602001908152602001600020600082825403925050819055505b600073ffffffffffffffffffffffffffffffffffffffff168573ffffffffffffffffffffffffffffffffffffffff161461189c576001600360008773ffffffffffffffffffffffffffffffffffffffff1673ffffffffffffffffffffffffffffffffffffffff168152602001908152602001600020600082825401925050819055505b846002600086815260200190815260200160002060006101000a81548173ffffffffffffffffffffffffffffffffffffffff021916908373ffffffffffffffffffffffffffffffffffffffff160217905550838573ffffffffffffffffffffffffffffffffffffffff168273ffffffffffffffffffffffffffffffffffffffff167fddf252ad1be2c89b69c2b068fc378daa952ba7f163c4a11628f55a4df523b3ef60405160405180910390a4809150509392505050565b61195c611720565b73ffffffffffffffffffffffffffffffffffffffff1661197a610b33565b73ffffffffffffffffffffffffffffffffffffffff16146119d95761199d611720565b6040517f118cdaa70000000000000000000000000000000000000000000000000000000081526004016119d09190612a43565b60405180910390fd5b565b6000600760009054906101000a900473ffffffffffffffffffffffffffffffffffffffff16905081600760006101000a81548173ffffffffffffffffffffffffffffffffffffffff021916908373ffffffffffffffffffffffffffffffffffffffff1602179055508173ffffffffffffffffffffffffffffffffffffffff168173ffffffffffffffffffffffffffffffffffffffff167f8be0079c531659141344cd1fd0a4f28419497f9722a3daafe3b4186f6b6457e060405160405180910390a35050565b600073ffffffffffffffffffffffffffffffffffffffff168273ffffffffffffffffffffffffffffffffffffffff1603611b1257816040517f5b08ba18000000000000000000000000000000000000000000000000000000008152600401611b099190612a43565b60405180910390fd5b80600560008573ffffffffffffffffffffffffffffffffffffffff1673ffffffffffffffffffffffffffffffffffffffff16815260200190815260200160002060008473ffffffffffffffffffffffffffffffffffffffff1673ffffffffffffffffffffffffffffffffffffffff16815260200190815260200160002060006101000a81548160ff0219169083151502179055508173ffffffffffffffffffffffffffffffffffffffff168373ffffffffffffffffffffffffffffffffffffffff167f17307eab39ab6107e8899845ad3d59bd9653f200f220920489ca2b5937696c3183604051611c039190612904565b60405180910390a3505050565b60008373ffffffffffffffffffffffffffffffffffffffff163b1115611dba578273ffffffffffffffffffffffffffffffffffffffff1663150b7a02868685856040518563ffffffff1660e01b8152600401611c6f949392919061385f565b6020604051808303816000875af1925050508015611cab57506040513d601f19601f82011682018060405250810190611ca891906138c0565b60015b611d2f573d8060008114611cdb576040519150601f19603f3d011682016040523d82523d6000602084013e611ce0565b606091505b506000815103611d2757836040517f64a0ae92000000000000000000000000000000000000000000000000000000008152600401611d1e9190612a43565b60405180910390fd5b805160208201fd5b63150b7a0260e01b7bffffffffffffffffffffffffffffffffffffffffffffffffffffffff1916817bffffffffffffffffffffffffffffffffffffffffffffffffffffffff191614611db857836040517f64a0ae92000000000000000000000000000000000000000000000000000000008152600401611daf9190612a43565b60405180910390fd5b505b5050505050565b606060405180602001604052806000815250905090565b6060611de38261165b565b506000611dee611dc1565b90506000815111611e0e5760405180602001604052806000815250611e39565b80611e1884612352565b604051602001611e299291906132d7565b6040516020818303038152906040525b915050919050565b600260085403611e7d576040517f3ee5aeb500000000000000000000000000000000000000000000000000000000815260040160405180910390fd5b6002600881905550565b600073ffffffffffffffffffffffffffffffffffffffff168273ffffffffffffffffffffffffffffffffffffffff1603611ef95760006040517f64a0ae92000000000000000000000000000000000000000000000000000000008152600401611ef09190612a43565b60405180910390fd5b6000611f078383600061173a565b9050600073ffffffffffffffffffffffffffffffffffffffff168173ffffffffffffffffffffffffffffffffffffffff1603611f7a57816040517f7e273289000000000000000000000000000000000000000000000000000000008152600401611f719190612b99565b60405180910390fd5b8373ffffffffffffffffffffffffffffffffffffffff168173ffffffffffffffffffffffffffffffffffffffff1614611fee578382826040517f64283d7b000000000000000000000000000000000000000000000000000000008152600401611fe593929190613264565b60405180910390fd5b50505050565b6001600881905550565b60006002600083815260200190815260200160002060009054906101000a900473ffffffffffffffffffffffffffffffffffffffff169050919050565b6120458383612420565b61205a612050611720565b6000858585611c10565b505050565b60007f01ffc9a7000000000000000000000000000000000000000000000000000000007bffffffffffffffffffffffffffffffffffffffffffffffffffffffff1916827bffffffffffffffffffffffffffffffffffffffffffffffffffffffff1916149050919050565b80806121025750600073ffffffffffffffffffffffffffffffffffffffff168273ffffffffffffffffffffffffffffffffffffffff1614155b156122365760006121128461165b565b9050600073ffffffffffffffffffffffffffffffffffffffff168373ffffffffffffffffffffffffffffffffffffffff161415801561217d57508273ffffffffffffffffffffffffffffffffffffffff168173ffffffffffffffffffffffffffffffffffffffff1614155b8015612190575061218e8184611251565b155b156121d257826040517fa9fbf51f0000000000000000000000000000000000000000000000000000000081526004016121c99190612a43565b60405180910390fd5b811561223457838573ffffffffffffffffffffffffffffffffffffffff168273ffffffffffffffffffffffffffffffffffffffff167f8c5be1e5ebec7d5bd14f71427d1e84f3dd0314c0f7b2291e5b200ac8c7c3b92560405160405180910390a45b505b836004600085815260200190815260200160002060006101000a81548173ffffffffffffffffffffffffffffffffffffffff021916908373ffffffffffffffffffffffffffffffffffffffff16021790555050505050565b612299838383612519565b61234d57600073ffffffffffffffffffffffffffffffffffffffff168373ffffffffffffffffffffffffffffffffffffffff160361230e57806040517f7e2732890000000000000000000000000000000000000000000000000000000081526004016123059190612b99565b60405180910390fd5b81816040517f177e802f0000000000000000000000000000000000000000000000000000000081526004016123449291906138ed565b60405180910390fd5b505050565b606060006001612361846125da565b01905060008167ffffffffffffffff8111156123805761237f612bb9565b5b6040519080825280601f01601f1916602001820160405280156123b25781602001600182028036833780820191505090505b509050600082602083010190505b600115612415578080600190039150507f3031323334353637383961626364656600000000000000000000000000000000600a86061a8153600a858161240957612408613916565b5b049450600085036123c0575b819350505050919050565b600073ffffffffffffffffffffffffffffffffffffffff168273ffffffffffffffffffffffffffffffffffffffff16036124925760006040517f64a0ae920000000000000000000000000000000000000000000000000000000081526004016124899190612a43565b60405180910390fd5b60006124a08383600061173a565b9050600073ffffffffffffffffffffffffffffffffffffffff168173ffffffffffffffffffffffffffffffffffffffff16146125145760006040517f73c6ac6e00000000000000000000000000000000000000000000000000000000815260040161250b9190612a43565b60405180910390fd5b505050565b60008073ffffffffffffffffffffffffffffffffffffffff168373ffffffffffffffffffffffffffffffffffffffff16141580156125d157508273ffffffffffffffffffffffffffffffffffffffff168473ffffffffffffffffffffffffffffffffffffffff16148061259257506125918484611251565b5b806125d057508273ffffffffffffffffffffffffffffffffffffffff166125b8836116e3565b73ffffffffffffffffffffffffffffffffffffffff16145b5b90509392505050565b600080600090507a184f03e93ff9f4daa797ed6e38ed64bf6a1f0100000000000000008310612638577a184f03e93ff9f4daa797ed6e38ed64bf6a1f010000000000000000838161262e5761262d613916565b5b0492506040810190505b6d04ee2d6d415b85acef81000000008310612675576d04ee2d6d415b85acef8100000000838161266b5761266a613916565b5b0492506020810190505b662386f26fc1000083106126a457662386f26fc10000838161269a57612699613916565b5b0492506010810190505b6305f5e10083106126cd576305f5e10083816126c3576126c2613916565b5b0492506008810190505b61271083106126f25761271083816126e8576126e7613916565b5b0492506004810190505b60648310612715576064838161270b5761270a613916565b5b0492506002810190505b600a8310612724576001810190505b80915050919050565b6000604051905090565b600080fd5b600080fd5b600073ffffffffffffffffffffffffffffffffffffffff82169050919050565b600061276c82612741565b9050919050565b61277c81612761565b811461278757600080fd5b50565b60008135905061279981612773565b92915050565b600080fd5b600080fd5b600080fd5b60008083601f8401126127c4576127c361279f565b5b8235905067ffffffffffffffff8111156127e1576127e06127a4565b5b6020830191508360018202830111156127fd576127fc6127a9565b5b9250929050565b60008060006040848603121561281d5761281c612737565b5b600061282b8682870161278a565b935050602084013567ffffffffffffffff81111561284c5761284b61273c565b5b612858868287016127ae565b92509250509250925092565b60007fffffffff0000000000000000000000000000000000000000000000000000000082169050919050565b61289981612864565b81146128a457600080fd5b50565b6000813590506128b681612890565b92915050565b6000602082840312156128d2576128d1612737565b5b60006128e0848285016128a7565b91505092915050565b60008115159050919050565b6128fe816128e9565b82525050565b600060208201905061291960008301846128f5565b92915050565b600081519050919050565b600082825260208201905092915050565b60005b8381101561295957808201518184015260208101905061293e565b60008484015250505050565b6000601f19601f8301169050919050565b60006129818261291f565b61298b818561292a565b935061299b81856020860161293b565b6129a481612965565b840191505092915050565b600060208201905081810360008301526129c98184612976565b905092915050565b6000819050919050565b6129e4816129d1565b81146129ef57600080fd5b50565b600081359050612a01816129db565b92915050565b600060208284031215612a1d57612a1c612737565b5b6000612a2b848285016129f2565b91505092915050565b612a3d81612761565b82525050565b6000602082019050612a586000830184612a34565b92915050565b60008060408385031215612a7557612a74612737565b5b6000612a838582860161278a565b9250506020612a94858286016129f2565b9150509250929050565b600080600060608486031215612ab757612ab6612737565b5b6000612ac58682870161278a565b9350506020612ad68682870161278a565b9250506040612ae7868287016129f2565b9150509250925092565b600060208284031215612b0757612b06612737565b5b6000612b158482850161278a565b91505092915050565b612b27816128e9565b8114612b3257600080fd5b50565b600081359050612b4481612b1e565b92915050565b60008060408385031215612b6157612b60612737565b5b6000612b6f8582860161278a565b9250506020612b8085828601612b35565b9150509250929050565b612b93816129d1565b82525050565b6000602082019050612bae6000830184612b8a565b92915050565b600080fd5b7f4e487b7100000000000000000000000000000000000000000000000000000000600052604160045260246000fd5b612bf182612965565b810181811067ffffffffffffffff82111715612c1057612c0f612bb9565b5b80604052505050565b6000612c2361272d565b9050612c2f8282612be8565b919050565b600067ffffffffffffffff821115612c4f57612c4e612bb9565b5b612c5882612965565b9050602081019050919050565b82818337600083830152505050565b6000612c87612c8284612c34565b612c19565b905082815260208101848484011115612ca357612ca2612bb4565b5b612cae848285612c65565b509392505050565b600082601f830112612ccb57612cca61279f565b5b8135612cdb848260208601612c74565b91505092915050565b60008060008060808587031215612cfe57612cfd612737565b5b6000612d0c8782880161278a565b9450506020612d1d8782880161278a565b9350506040612d2e878288016129f2565b925050606085013567ffffffffffffffff811115612d4f57612d4e61273c565b5b612d5b87828801612cb6565b91505092959194509250565b600081519050919050565b600082825260208201905092915050565b6000819050602082019050919050565b612d9c816129d1565b82525050565b6000612dae8383612d93565b60208301905092915050565b6000602082019050919050565b6000612dd282612d67565b612ddc8185612d72565b9350612de783612d83565b8060005b83811015612e18578151612dff8882612da2565b9750612e0a83612dba565b925050600181019050612deb565b5085935050505092915050565b600081519050919050565b600082825260208201905092915050565b6000819050602082019050919050565b612e5a81612761565b82525050565b6000612e6c8383612e51565b60208301905092915050565b6000602082019050919050565b6000612e9082612e25565b612e9a8185612e30565b9350612ea583612e41565b8060005b83811015612ed6578151612ebd8882612e60565b9750612ec883612e78565b925050600181019050612ea9565b5085935050505092915050565b600081519050919050565b600082825260208201905092915050565b6000819050602082019050919050565b600082825260208201905092915050565b6000612f2b8261291f565b612f358185612f0f565b9350612f4581856020860161293b565b612f4e81612965565b840191505092915050565b6000612f658383612f20565b905092915050565b6000602082019050919050565b6000612f8582612ee3565b612f8f8185612eee565b935083602082028501612fa185612eff565b8060005b85811015612fdd5784840389528151612fbe8582612f59565b9450612fc983612f6d565b925060208a01995050600181019050612fa5565b50829750879550505050505092915050565b600060808201905081810360008301526130098187612dc7565b9050818103602083015261301d8186612e85565b905081810360408301526130318185612f7a565b905081810360608301526130458184612dc7565b905095945050505050565b6000806040838503121561306757613066612737565b5b60006130758582860161278a565b92505060206130868582860161278a565b9150509250929050565b600080604083850312156130a7576130a6612737565b5b60006130b5858286016129f2565b92505060206130c6858286016129f2565b9150509250929050565b7f4e6f742061646d696e0000000000000000000000000000000000000000000000600082015250565b600061310660098361292a565b9150613111826130d0565b602082019050919050565b60006020820190508181036000830152613135816130f9565b9050919050565b7f4e487b7100000000000000000000000000000000000000000000000000000000600052601160045260246000fd5b6000613176826129d1565b91507fffffffffffffffffffffffffffffffffffffffffffffffffffffffffffffffff82036131a8576131a761313c565b5b600182019050919050565b60006131bf838561292a565b93506131cc838584612c65565b6131d583612965565b840190509392505050565b600060208201905081810360008301526131fb8184866131b3565b90509392505050565b7f4e487b7100000000000000000000000000000000000000000000000000000000600052602260045260246000fd5b6000600282049050600182168061324b57607f821691505b60208210810361325e5761325d613204565b5b50919050565b60006060820190506132796000830186612a34565b6132866020830185612b8a565b6132936040830184612a34565b949350505050565b600081905092915050565b60006132b18261291f565b6132bb818561329b565b93506132cb81856020860161293b565b80840191505092915050565b60006132e382856132a6565b91506132ef82846132a6565b91508190509392505050565b7f4e6f7420666f722073616c650000000000000000000000000000000000000000600082015250565b6000613331600c8361292a565b915061333c826132fb565b602082019050919050565b6000602082019050818103600083015261336081613324565b9050919050565b7f496e636f72726563742070726963650000000000000000000000000000000000600082015250565b600061339d600f8361292a565b91506133a882613367565b602082019050919050565b600060208201905081810360008301526133cc81613390565b9050919050565b7f416c7265616479206f776e657200000000000000000000000000000000000000600082015250565b6000613409600d8361292a565b9150613414826133d3565b602082019050919050565b60006020820190508181036000830152613438816133fc565b9050919050565b600081905092915050565b50565b600061345a60008361343f565b91506134658261344a565b600082019050919050565b600061347b8261344d565b9150819050919050565b7f5061796d656e74206661696c6564000000000000000000000000000000000000600082015250565b60006134bb600e8361292a565b91506134c682613485565b602082019050919050565b600060208201905081810360008301526134ea816134ae565b9050919050565b7f4e487b7100000000000000000000000000000000000000000000000000000000600052603260045260246000fd5b7f546f6b656e20646f6573206e6f74206578697374000000000000000000000000600082015250565b600061355660148361292a565b915061356182613520565b602082019050919050565b6000602082019050818103600083015261358581613549565b9050919050565b60008190508160005260206000209050919050565b60006020601f8301049050919050565b600082821b905092915050565b6000600883026135ee7fffffffffffffffffffffffffffffffffffffffffffffffffffffffffffffffff826135b1565b6135f886836135b1565b95508019841693508086168417925050509392505050565b6000819050919050565b600061363561363061362b846129d1565b613610565b6129d1565b9050919050565b6000819050919050565b61364f8361361a565b61366361365b8261363c565b8484546135be565b825550505050565b600090565b61367861366b565b613683818484613646565b505050565b5b818110156136a75761369c600082613670565b600181019050613689565b5050565b601f8211156136ec576136bd8161358c565b6136c6846135a1565b810160208510156136d5578190505b6136e96136e1856135a1565b830182613688565b50505b505050565b600082821c905092915050565b600061370f600019846008026136f1565b1980831691505092915050565b600061372883836136fe565b9150826002028217905092915050565b6137418261291f565b67ffffffffffffffff81111561375a57613759612bb9565b5b6137648254613233565b61376f8282856136ab565b600060209050601f8311600181146137a25760008415613790578287015190505b61379a858261371c565b865550613802565b601f1984166137b08661358c565b60005b828110156137d8578489015182556001820191506020850194506020810190506137b3565b868310156137f557848901516137f1601f8916826136fe565b8355505b6001600288020188555050505b505050505050565b600081519050919050565b600082825260208201905092915050565b60006138318261380a565b61383b8185613815565b935061384b81856020860161293b565b61385481612965565b840191505092915050565b60006080820190506138746000830187612a34565b6138816020830186612a34565b61388e6040830185612b8a565b81810360608301526138a08184613826565b905095945050505050565b6000815190506138ba81612890565b92915050565b6000602082840312156138d6576138d5612737565b5b60006138e4848285016138ab565b91505092915050565b60006040820190506139026000830185612a34565b61390f6020830184612b8a565b9392505050565b7f4e487b7100000000000000000000000000000000000000000000000000000000600052601260045260246000fdfea26469706673582212207517768977eb1e9403479002ab220dd9ae79c5177379ff6d0ed154c8b303f83a64736f6c63430008180033",
  "linkReferences": {},
  "deployedLinkReferences": {}
}