{
  "_format": "hh-sol-artifact-1",
  "contractName": "DnANFT",
  "sourceName": "contracts/DnANFT.sol",
  "abi": [
    {
      "inputs": [
        {
          "internalType": "string",
          "name": "name_",
          "type": "string"
        },
        {
          "internalType": "string",
          "name": "symbol_",
          "type": "string"
        }
      ],
      "stateMutability": "nonpayable",
      "type": "constructor"
    },
    {
      "inputs": [
        {
          "internalType": "address",
          "name": "sender",
          "type": "address"
        },
        {
          "internalType": "uint256",
          "name": "tokenId",
          "type": "uint256"
        },
        {
          "internalType": "address",
          "name": "owner",
          "type": "address"
        }
      ],
      "name": "ERC721IncorrectOwner",
      "type": "error"
    },
    {
      "inputs": [
        {
          "internalType": "address",
          "name": "operator",
          "type": "address"
        },
        {
          "internalType": "uint256",
          "name": "tokenId",
          "type": "uint256"
        }
      ],
      "name": "ERC721InsufficientApproval",
      "type": "error"
    },
    {
      "inputs": [
        {
          "internalType": "address",
          "name": "approver",
          "type": "address"
        }
      ],
      "name": "ERC721InvalidApprover",
      "type": "error"
    },
    {
      "inputs": [
        {
          "internalType": "address",
          "name": "operator",
          "type": "address"
        }
      ],
      "name": "ERC721InvalidOperator",
      "type": "error"
    },
    {
      "inputs": [
        {
          "internalType": "address",
          "name": "owner",
          "type": "address"
        }
      ],
      "name": "ERC721InvalidOwner",
      "type": "error"
    },
    {
      "inputs": [
        {
          "internalType": "address",
          "name": "receiver",
          "type": "address"
        }
      ],
      "name": "ERC721InvalidReceiver",
      "type": "error"
    },
    {
      "inputs": [
        {
          "internalType": "address",
          "name": "sender",
          "type": "address"
        }
      ],
      "name": "ERC721InvalidSender",
      "type": "error"
    },
    {
      "inputs": [
        {
          "internalType": "uint256",
          "name": "tokenId",
          "type": "uint256"
        }
      ],
      "name": "ERC721NonexistentToken",
      "type": "error"
    },
    {
      "inputs": [
        {
          "internalType": "address",
          "name": "owner",
          "type": "address"
        }
      ],
      "name": "OwnableInvalidOwner",
      "type": "error"
    },
    {
      "inputs": [
        {
          "internalType": "address",
          "name": "account",
          "type": "address"
        }
      ],
      "name": "OwnableUnauthorizedAccount",
      "type": "error"
    },
    {
      "inputs": [],
      "name": "ReentrancyGuardReentrantCall",
      "type": "error"
    },
    {
      "anonymous": false,
      "inputs": [
        {
          "indexed": true,
          "internalType": "address",
          "name": "admin",
          "type": "address"
        },
        {
          "indexed": false,
          "internalType": "bool",
          "name": "enabled",
          "type": "bool"
        }
      ],
      "name": "AdminUpdated",
      "type": "event"
    },
    {
      "anonymous": false,
      "inputs": [
        {
          "indexed": true,
          "internalType": "address",
          "name": "owner",
          "type": "address"
        },
        {
          "indexed": true,
          "internalType": "address",
          "name": "approved",
          "type": "address"
        },
        {
          "indexed": true,
          "internalType": "uint256",
          "name": "tokenId",
          "type": "uint256"
        }
      ],
      "name": "Approval",
      "type": "event"
    },
    {
      "anonymous": false,
      "inputs": [
        {
          "indexed": true,
          "internalType": "address",
          "name": "owner",
          "type": "address"
        },
        {
          "indexed": true,
          "internalType": "address",
          "name": "operator",
          "type": "address"
        },
        {
          "indexed": false,
          "internalType": "bool",
          "name": "approved",
          "type": "bool"
        }
      ],
      "name": "ApprovalForAll",
      "type": "event"
    },
    {
      "anonymous": false,
      "inputs": [
        {
          "indexed": false,
          "internalType": "uint256",
          "name": "_fromTokenId",
          "type": "uint256"
        },
        {
          "indexed": false,
          "internalType": "uint256",
          "name": "_toTokenId",
          "type": "uint256"
        }
      ],
      "name": "BatchMetadataUpdate",
      "type": "event"
    },
    {
      "anonymous": false,
      "inputs": [
        {
          "indexed": false,
          "internalType": "uint256",
          "name": "_tokenId",
          "type": "uint256"
        }
      ],
      "name": "MetadataUpdate",
      "type": "event"
    },
    {
      "anonymous": false,
      "inputs": [
        {
          "indexed": true,
          "internalType": "address",
          "name": "to",
          "type": "address"
        },
        {
          "indexed": true,
          "internalType": "uint256",
          "name": "tokenId",
          "type": "uint256"
        },
        {
          "indexed": false,
          "internalType": "string",
          "name": "uri",
          "type": "string"
        }
      ],
      "name": "Minted",
      "type": "event"
    },
    {
      "anonymous": false,
      "inputs": [
        {
          "indexed": true,
          "internalType": "address",
          "name": "previousOwner",
          "type": "address"
        },
        {
          "indexed": true,
          "internalType": "address",
          "name": "newOwner",
          "type": "address"
        }
      ],
      "name": "OwnershipTransferred",
      "type": "event"
    },
    {
      "anonymous": false,
      "inputs": [
        {
          "indexed": true,
          "internalType": "uint256",
          "name": "tokenId",
          "type": "uint256"
        },
        {
          "indexed": false,
          "internalType": "uint256",
          "name": "price",
          "type": "uint256"
        }
      ],
      "name": "PriceSet",
      "type": "event"
    },
    {
      "anonymous": false,
      "inputs": [
        {
          "indexed": true,
          "internalType": "address",
          "name": "buyer",
          "type": "address"
        },
        {
          "indexed": true,
          "internalType": "uint256",
          "name": "tokenId",
          "type": "uint256"
        },
        {
          "indexed": false,
          "internalType": "uint256",
          "name": "price",
          "type": "uint256"
        }
      ],
      "name": "Purchased",
      "type": "event"
    },
    {
      "anonymous": false,
      "inputs": [
        {
          "indexed": true,
          "internalType": "address",
          "name": "from",
          "type": "address"
        },
        {
          "indexed": true,
          "internalType": "address",
          "name": "to",
          "type": "address"
        },
        {
          "indexed": true,
          "internalType": "uint256",
          "name": "tokenId",
          "type": "uint256"
        }
      ],
      "name": "Transfer",
      "type": "event"
    },
    {
      "inputs": [
        {
          "internalType": "address",
          "name": "to",
          "type": "address"
        },
        {
          "internalType": "uint256",
          "name": "tokenId",
          "type": "uint256"
        }
      ],
      "name": "approve",
      "outputs": [],
      "stateMutability": "nonpayable",
      "type": "function"
    },
    {
      "inputs": [
        {
          "internalType": "address",
          "name": "owner",
          "type": "address"
        }
      ],
      "name": "balanceOf",
      "outputs": [
        {
          "internalType": "uint256",
          "name": "",
          "type": "uint256"
        }
      ],
      "stateMutability": "view",
      "type": "function"
    },
    {
      "inputs": [
        {
          "internalType": "uint256",
          "name": "tokenId",
          "type": "uint256"
        }
      ],
      "name": "buy",
      "outputs": [],
      "stateMutability": "payable",
      "type": "function"
    },
    {
      "inputs": [],
      "name": "getAllNFTs",
      "outputs": [
        {
          "internalType": "uint256[]",
          "name": "ids",
          "type": "uint256[]"
        },
        {
          "internalType": "address[]",
          "name": "owners",
          "type": "address[]"
        },
        {
          "internalType": "string[]",
          "name": "uris",
          "type": "string[]"
        },
        {
          "internalType": "uint256[]",
          "name": "prices",
          "type": "uint256[]"
        }
      ],
      "stateMutability": "view",
      "type": "function"
    },
    {
      "inputs": [
        {
          "internalType": "uint256",
          "name": "tokenId",
          "type": "uint256"
        }
      ],
      "name": "getApproved",
      "outputs": [
        {
          "internalType": "address",
          "name": "",
          "type": "address"
        }
      ],
      "stateMutability": "view",
      "type": "function"
    },
    {
      "inputs": [
        {
          "internalType": "address",
          "name": "user",
          "type": "address"
        }
      ],
      "name": "getOwnedNFTs",
      "outputs": [
        {
          "internalType": "uint256[]",
          "name": "ids",
          "type": "uint256[]"
        },
        {
          "internalType": "string[]",
          "name": "uris",
          "type": "string[]"
        },
        {
          "internalType": "uint256[]",
          "name": "prices",
          "type": "uint256[]"
        }
      ],
      "stateMutability": "view",
      "type": "function"
    },
    {
      "inputs": [
        {
          "internalType": "address",
          "name": "",
          "type": "address"
        }
      ],
      "name": "isAdmin",
      "outputs": [
        {
          "internalType": "bool",
          "name": "",
          "type": "bool"
        }
      ],
      "stateMutability": "view",
      "type": "function"
    },
    {
      "inputs": [
        {
          "internalType": "address",
          "name": "owner",
          "type": "address"
        },
        {
          "internalType": "address",
          "name": "operator",
          "type": "address"
        }
      ],
      "name": "isApprovedForAll",
      "outputs": [
        {
          "internalType": "bool",
          "name": "",
          "type": "bool"
        }
      ],
      "stateMutability": "view",
      "type": "function"
    },
    {
      "inputs": [
        {
          "internalType": "address",
          "name": "to",
          "type": "address"
        },
        {
          "internalType": "string",
          "name": "uri",
          "type": "string"
        }
      ],
      "name": "mintTo",
      "outputs": [],
      "stateMutability": "nonpayable",
      "type": "function"
    },
    {
      "inputs": [],
      "name": "name",
      "outputs": [
        {
          "internalType": "string",
          "name": "",
          "type": "string"
        }
      ],
      "stateMutability": "view",
      "type": "function"
    },
    {
      "inputs": [],
      "name": "owner",
      "outputs": [
        {
          "internalType": "address",
          "name": "",
          "type": "address"
        }
      ],
      "stateMutability": "view",
      "type": "function"
    },
    {
      "inputs": [
        {
          "internalType": "uint256",
          "name": "tokenId",
          "type": "uint256"
        }
      ],
      "name": "ownerOf",
      "outputs": [
        {
          "internalType": "address",
          "name": "",
          "type": "address"
        }
      ],
      "stateMutability": "view",
      "type": "function"
    },
    {
      "inputs": [],
      "name": "renounceOwnership",
      "outputs": [],
      "stateMutability": "nonpayable",
      "type": "function"
    },
    {
      "inputs": [
        {
          "internalType": "address",
          "name": "from",
          "type": "address"
        },
        {
          "internalType": "address",
          "name": "to",
          "type": "address"
        },
        {
          "internalType": "uint256",
          "name": "tokenId",
          "type": "uint256"
        }
      ],
      "name": "safeTransferFrom",
      "outputs": [],
      "stateMutability": "nonpayable",
      "type": "function"
    },
    {
      "inputs": [
        {
          "internalType": "address",
          "name": "from",
          "type": "address"
        },
        {
          "internalType": "address",
          "name": "to",
          "type": "address"
        },
        {
          "internalType": "uint256",
          "name": "tokenId",
          "type": "uint256"
        },
        {
          "internalType": "bytes",
          "name": "data",
          "type": "bytes"
        }
      ],
      "name": "safeTransferFrom",
      "outputs": [],
      "stateMutability": "nonpayable",
      "type": "function"
    },
    {
      "inputs": [
        {
          "internalType": "address",
          "name": "account",
          "type": "address"
        },
        {
          "internalType": "bool",
          "name": "enabled",
          "type": "bool"
        }
      ],
      "name": "setAdmin",
      "outputs": [],
      "stateMutability": "nonpayable",
      "type": "function"
    },
    {
      "inputs": [
        {
          "internalType": "address",
          "name": "operator",
          "type": "address"
        },
        {
          "internalType": "bool",
          "name": "approved",
          "type": "bool"
        }
      ],
      "name": "setApprovalForAll",
      "outputs": [],
      "stateMutability": "nonpayable",
      "type": "function"
    },
    {
      "inputs": [
        {
          "internalType": "uint256",
          "name": "tokenId",
          "type": "uint256"
        },
        {
          "internalType": "uint256",
          "name": "priceWei",
          "type": "uint256"
        }
      ],
      "name": "setTokenPrice",
      "outputs": [],
      "stateMutability": "nonpayable",
      "type": "function"
    },
    {
      "inputs": [
        {
          "internalType": "bytes4",
          "name": "interfaceId",
          "type": "bytes4"
        }
      ],
      "name": "supportsInterface",
      "outputs": [
        {
          "internalType": "bool",
          "name": "",
          "type": "bool"
        }
      ],
      "stateMutability": "view",
      "type": "function"
    },
    {
      "inputs": [],
      "name": "symbol",
      "outputs": [
        {
          "internalType": "string",
          "name": "",
          "type": "string"
        }
      ],
      "stateMutability": "view",
      "type": "function"
    },
    {
      "inputs": [
        {
          "internalType": "uint256",
          "name": "",
          "type": "uint256"
        }
      ],
      "name": "tokenPrice",
      "outputs": [
        {
          "internalType": "uint256",
          "name": "",
          "type": "uint256"
        }
      ],
      "stateMutability": "view",
      "type": "function"
    },
    {
      "inputs": [
        {
          "internalType": "uint256",
          "name": "tokenId",
          "type": "uint256"
        }
      ],
      "name": "tokenURI",
      "outputs": [
        {
          "internalType": "string",
          "name": "",
          "type": "string"
        }
      ],
      "stateMutability": "view",
      "type": "function"
    },
    {
      "inputs": [
        {
          "internalType": "address",
          "name": "from",
          "type": "address"
        },
        {
          "internalType": "address",
          "name": "to",
          "type": "address"
        },
        {
          "internalType": "uint256",
          "name": "tokenId",
          "type": "uint256"
        }
      ],
      "name": "transferFrom",
      "outputs": [],
      "stateMutability": "nonpayable",
      "type": "function"
    },
    {
      "inputs": [
        {
          "internalType": "address",
          "name": "newOwner",
          "type": "address"
        }
      ],
      "name": "transferOwnership",
      "outputs": [],
      "stateMutability": "nonpayable",
      "type": "function"
    }
  ],
  "bytecode": "0x60806040526001600b553480156200001657600080fd5b50604051620044183803806200441883398181016040528101906200003c919062000355565b338282816000908162000050919062000625565b50806001908162000062919062000625565b505050600073ffffffffffffffffffffffffffffffffffffffff168173ffffffffffffffffffffffffffffffffffffffff1603620000da5760006040517f1e4fbdf7000000000000000000000000000000000000000000000000000000008152600401620000d1919062000751565b60405180910390fd5b620000eb81620000fc60201b60201c565b50600160088190555050506200076e565b6000600760009054906101000a900473ffffffffffffffffffffffffffffffffffffffff16905081600760006101000a81548173ffffffffffffffffffffffffffffffffffffffff021916908373ffffffffffffffffffffffffffffffffffffffff1602179055508173ffffffffffffffffffffffffffffffffffffffff168173ffffffffffffffffffffffffffffffffffffffff167f8be0079c531659141344cd1fd0a4f28419497f9722a3daafe3b4186f6b6457e060405160405180910390a35050565b6000604051905090565b600080fd5b600080fd5b600080fd5b600080fd5b6000601f19601f8301169050919050565b7f4e487b7100000000000000000000000000000000000000000000000000000000600052604160045260246000fd5b6200022b82620001e0565b810181811067ffffffffffffffff821117156200024d576200024c620001f1565b5b80604052505050565b600062000262620001c2565b905062000270828262000220565b919050565b600067ffffffffffffffff821115620002935762000292620001f1565b5b6200029e82620001e0565b9050602081019050919050565b60005b83811015620002cb578082015181840152602081019050620002ae565b60008484015250505050565b6000620002ee620002e88462000275565b62000256565b9050828152602081018484840111156200030d576200030c620001db565b5b6200031a848285620002ab565b509392505050565b600082601f8301126200033a5762000339620001d6565b5b81516200034c848260208601620002d7565b91505092915050565b600080604083850312156200036f576200036e620001cc565b5b600083015167ffffffffffffffff81111562000390576200038f620001d1565b5b6200039e8582860162000322565b925050602083015167ffffffffffffffff811115620003c257620003c1620001d1565b5b620003d08582860162000322565b9150509250929050565b600081519050919050565b7f4e487b7100000000000000000000000000000000000000000000000000000000600052602260045260246000fd5b600060028204905060018216806200042d57607f821691505b602082108103620004435762000442620003e5565b5b50919050565b60008190508160005260206000209050919050565b60006020601f8301049050919050565b600082821b905092915050565b600060088302620004ad7fffffffffffffffffffffffffffffffffffffffffffffffffffffffffffffffff826200046e565b620004b986836200046e565b95508019841693508086168417925050509392505050565b6000819050919050565b6000819050919050565b60006200050662000500620004fa84620004d1565b620004db565b620004d1565b9050919050565b6000819050919050565b6200052283620004e5565b6200053a62000531826200050d565b8484546200047b565b825550505050565b600090565b6200055162000542565b6200055e81848462000517565b505050565b5b8181101562000586576200057a60008262000547565b60018101905062000564565b5050565b601f821115620005d5576200059f8162000449565b620005aa846200045e565b81016020851015620005ba578190505b620005d2620005c9856200045e565b83018262000563565b50505b505050565b600082821c905092915050565b6000620005fa60001984600802620005da565b1980831691505092915050565b6000620006158383620005e7565b9150826002028217905092915050565b6200063082620003da565b67ffffffffffffffff8111156200064c576200064b620001f1565b5b62000658825462000414565b620006658282856200058a565b600060209050601f8311600181146200069d576000841562000688578287015190505b62000694858262000607565b86555062000704565b601f198416620006ad8662000449565b60005b82811015620006d757848901518255600182019150602085019450602081019050620006b0565b86831015620006f75784890151620006f3601f891682620005e7565b8355505b6001600288020188555050505b505050505050565b600073ffffffffffffffffffffffffffffffffffffffff82169050919050565b600062000739826200070c565b9050919050565b6200074b816200072c565b82525050565b600060208201905062000768600083018462000740565b92915050565b613c9a806200077e6000396000f3fe60806040526004361061014a5760003560e01c8063715018a6116100b6578063d4ddce8a1161006f578063d4ddce8a146104b3578063d96a094a146104f0578063e0391b091461050c578063e985e9c51461053a578063eb685c4714610577578063f2fde38b146105a05761014a565b8063715018a6146103b75780638da5cb5b146103ce57806395d89b41146103f9578063a22cb46514610424578063b88d4fde1461044d578063c87b56dd146104765761014a565b806323b872dd1161010857806323b872dd1461028557806324d7806c146102ae57806342842e0e146102eb5780634b0bddd2146103145780636352211e1461033d57806370a082311461037a5761014a565b806275a3171461014f57806301ffc9a71461017857806306fdde03146101b5578063081812fc146101e0578063095ea7b31461021d57806318148f1b14610246575b600080fd5b34801561015b57600080fd5b5061017660048036038101906101719190612ad7565b6105c9565b005b34801561018457600080fd5b5061019f600480360381019061019a9190612b8f565b610785565b6040516101ac9190612bd7565b60405180910390f35b3480156101c157600080fd5b506101ca6107e6565b6040516101d79190612c82565b60405180910390f35b3480156101ec57600080fd5b5061020760048036038101906102029190612cda565b610878565b6040516102149190612d16565b60405180910390f35b34801561022957600080fd5b50610244600480360381019061023f9190612d31565b610894565b005b34801561025257600080fd5b5061026d60048036038101906102689190612d71565b6108aa565b60405161027c93929190612f68565b60405180910390f35b34801561029157600080fd5b506102ac60048036038101906102a79190612fb4565b610b33565b005b3480156102ba57600080fd5b506102d560048036038101906102d09190612d71565b610c35565b6040516102e29190612bd7565b60405180910390f35b3480156102f757600080fd5b50610312600480360381019061030d9190612fb4565b610c55565b005b34801561032057600080fd5b5061033b60048036038101906103369190613033565b610c75565b005b34801561034957600080fd5b50610364600480360381019061035f9190612cda565b610d26565b6040516103719190612d16565b60405180910390f35b34801561038657600080fd5b506103a1600480360381019061039c9190612d71565b610d38565b6040516103ae9190613082565b60405180910390f35b3480156103c357600080fd5b506103cc610df2565b005b3480156103da57600080fd5b506103e3610e06565b6040516103f09190612d16565b60405180910390f35b34801561040557600080fd5b5061040e610e30565b60405161041b9190612c82565b60405180910390f35b34801561043057600080fd5b5061044b60048036038101906104469190613033565b610ec2565b005b34801561045957600080fd5b50610474600480360381019061046f91906131cd565b610ed8565b005b34801561048257600080fd5b5061049d60048036038101906104989190612cda565b610efd565b6040516104aa9190612c82565b60405180910390f35b3480156104bf57600080fd5b506104da60048036038101906104d59190612cda565b611010565b6040516104e79190613082565b60405180910390f35b61050a60048036038101906105059190612cda565b611028565b005b34801561051857600080fd5b5061052161127c565b604051610531949392919061330e565b60405180910390f35b34801561054657600080fd5b50610561600480360381019061055c919061336f565b611524565b60405161056e9190612bd7565b60405180910390f35b34801561058357600080fd5b5061059e600480360381019061059991906133af565b6115b8565b005b3480156105ac57600080fd5b506105c760048036038101906105c29190612d71565b61174c565b005b6105d1610e06565b73ffffffffffffffffffffffffffffffffffffffff163373ffffffffffffffffffffffffffffffffffffffff1614806106535750600960003373ffffffffffffffffffffffffffffffffffffffff1673ffffffffffffffffffffffffffffffffffffffff16815260200190815260200160002060009054906101000a900460ff165b610692576040517f08c379a00000000000000000000000000000000000000000000000000000000081526004016106899061343b565b60405180910390fd5b6000600b60008154809291906106a79061348a565b9190505590506106b784826117d2565b6107058184848080601f016020809104026020016040519081016040528093929190818152602001838380828437600081840152601f19601f820116905080830192505050505050506117f0565b600c819080600181540180825580915050600190039060005260206000200160009091909190915055808473ffffffffffffffffffffffffffffffffffffffff167fe7cd4ce7f2a465edc730269a1305e8a48bad821e8fb7e152ec413829c01a53c485856040516107779291906134ff565b60405180910390a350505050565b6000634906490660e01b7bffffffffffffffffffffffffffffffffffffffffffffffffffffffff1916827bffffffffffffffffffffffffffffffffffffffffffffffffffffffff191614806107df57506107de8261184c565b5b9050919050565b6060600080546107f590613552565b80601f016020809104026020016040519081016040528092919081815260200182805461082190613552565b801561086e5780601f106108435761010080835404028352916020019161086e565b820191906000526020600020905b81548152906001019060200180831161085157829003601f168201915b5050505050905090565b60006108838261192e565b5061088d826119b6565b9050919050565b6108a682826108a16119f3565b6119fb565b5050565b60608060606000600c8054905090506000805b82811015610940576000600c82815481106108db576108da613583565b5b906000526020600020015490508773ffffffffffffffffffffffffffffffffffffffff1661090882610d26565b73ffffffffffffffffffffffffffffffffffffffff160361093257828061092e9061348a565b9350505b5080806001019150506108bd565b508067ffffffffffffffff81111561095b5761095a6130a2565b5b6040519080825280602002602001820160405280156109895781602001602082028036833780820191505090505b5094508067ffffffffffffffff8111156109a6576109a56130a2565b5b6040519080825280602002602001820160405280156109d957816020015b60608152602001906001900390816109c45790505b5093508067ffffffffffffffff8111156109f6576109f56130a2565b5b604051908082528060200260200182016040528015610a245781602001602082028036833780820191505090505b5092506000805b83811015610b28576000600c8281548110610a4957610a48613583565b5b906000526020600020015490508873ffffffffffffffffffffffffffffffffffffffff16610a7682610d26565b73ffffffffffffffffffffffffffffffffffffffff1603610b1a5780888481518110610aa557610aa4613583565b5b602002602001018181525050610aba81610efd565b878481518110610acd57610acc613583565b5b6020026020010181905250600a600082815260200190815260200160002054868481518110610aff57610afe613583565b5b6020026020010181815250508280610b169061348a565b9350505b508080600101915050610a2b565b505050509193909250565b600073ffffffffffffffffffffffffffffffffffffffff168273ffffffffffffffffffffffffffffffffffffffff1603610ba55760006040517f64a0ae92000000000000000000000000000000000000000000000000000000008152600401610b9c9190612d16565b60405180910390fd5b6000610bb98383610bb46119f3565b611a0d565b90508373ffffffffffffffffffffffffffffffffffffffff168173ffffffffffffffffffffffffffffffffffffffff1614610c2f578382826040517f64283d7b000000000000000000000000000000000000000000000000000000008152600401610c26939291906135b2565b60405180910390fd5b50505050565b60096020528060005260406000206000915054906101000a900460ff1681565b610c7083838360405180602001604052806000815250610ed8565b505050565b610c7d611c27565b80600960008473ffffffffffffffffffffffffffffffffffffffff1673ffffffffffffffffffffffffffffffffffffffff16815260200190815260200160002060006101000a81548160ff0219169083151502179055508173ffffffffffffffffffffffffffffffffffffffff167f235bc17e7930760029e9f4d860a2a8089976de5b381cf8380fc11c1d88a1113382604051610d1a9190612bd7565b60405180910390a25050565b6000610d318261192e565b9050919050565b60008073ffffffffffffffffffffffffffffffffffffffff168273ffffffffffffffffffffffffffffffffffffffff1603610dab5760006040517f89c62b64000000000000000000000000000000000000000000000000000000008152600401610da29190612d16565b60405180910390fd5b600360008373ffffffffffffffffffffffffffffffffffffffff1673ffffffffffffffffffffffffffffffffffffffff168152602001908152602001600020549050919050565b610dfa611c27565b610e046000611cae565b565b6000600760009054906101000a900473ffffffffffffffffffffffffffffffffffffffff16905090565b606060018054610e3f90613552565b80601f0160208091040260200160405190810160405280929190818152602001828054610e6b90613552565b8015610eb85780601f10610e8d57610100808354040283529160200191610eb8565b820191906000526020600020905b815481529060010190602001808311610e9b57829003601f168201915b5050505050905090565b610ed4610ecd6119f3565b8383611d74565b5050565b610ee3848484610b33565b610ef7610eee6119f3565b85858585611ee3565b50505050565b6060610f088261192e565b506000600660008481526020019081526020016000208054610f2990613552565b80601f0160208091040260200160405190810160405280929190818152602001828054610f5590613552565b8015610fa25780601f10610f7757610100808354040283529160200191610fa2565b820191906000526020600020905b815481529060010190602001808311610f8557829003601f168201915b505050505090506000610fb3612094565b90506000815103610fc857819250505061100b565b600082511115610ffd578082604051602001610fe5929190613625565b6040516020818303038152906040529250505061100b565b611006846120ab565b925050505b919050565b600a6020528060005260406000206000915090505481565b611030612114565b6000600a60008381526020019081526020016000205490506000811161108b576040517f08c379a000000000000000000000000000000000000000000000000000000000815260040161108290613695565b60405180910390fd5b8034146110cd576040517f08c379a00000000000000000000000000000000000000000000000000000000081526004016110c490613701565b60405180910390fd5b60006110d883610d26565b90503373ffffffffffffffffffffffffffffffffffffffff168173ffffffffffffffffffffffffffffffffffffffff1603611148576040517f08c379a000000000000000000000000000000000000000000000000000000000815260040161113f9061376d565b60405180910390fd5b6000611152610e06565b73ffffffffffffffffffffffffffffffffffffffff1634604051611175906137be565b60006040518083038185875af1925050503d80600081146111b2576040519150601f19603f3d011682016040523d82523d6000602084013e6111b7565b606091505b50509050806111fb576040517f08c379a00000000000000000000000000000000000000000000000000000000081526004016111f29061381f565b60405180910390fd5b61120682338661215a565b6000600a600086815260200190815260200160002081905550833373ffffffffffffffffffffffffffffffffffffffff167ff761777482b4b40d2bcc0d050cfba6829900a2d8b3484bd0244ec0feeb3db504856040516112669190613082565b60405180910390a35050506112796122c7565b50565b6060806060806000600c8054905090508067ffffffffffffffff8111156112a6576112a56130a2565b5b6040519080825280602002602001820160405280156112d45781602001602082028036833780820191505090505b5094508067ffffffffffffffff8111156112f1576112f06130a2565b5b60405190808252806020026020018201604052801561131f5781602001602082028036833780820191505090505b5093508067ffffffffffffffff81111561133c5761133b6130a2565b5b60405190808252806020026020018201604052801561136f57816020015b606081526020019060019003908161135a5790505b5092508067ffffffffffffffff81111561138c5761138b6130a2565b5b6040519080825280602002602001820160405280156113ba5781602001602082028036833780820191505090505b5091506000805b8281101561151b576000600c82815481106113df576113de613583565b5b90600052602060002001549050600073ffffffffffffffffffffffffffffffffffffffff1661140d826122d1565b73ffffffffffffffffffffffffffffffffffffffff160361142e575061150e565b8088848151811061144257611441613583565b5b60200260200101818152505061145781610d26565b87848151811061146a57611469613583565b5b602002602001019073ffffffffffffffffffffffffffffffffffffffff16908173ffffffffffffffffffffffffffffffffffffffff16815250506114ad81610efd565b8684815181106114c0576114bf613583565b5b6020026020010181905250600a6000828152602001908152602001600020548584815181106114f2576114f1613583565b5b60200260200101818152505082806115099061348a565b935050505b80806001019150506113c1565b50505090919293565b6000600560008473ffffffffffffffffffffffffffffffffffffffff1673ffffffffffffffffffffffffffffffffffffffff16815260200190815260200160002060008373ffffffffffffffffffffffffffffffffffffffff1673ffffffffffffffffffffffffffffffffffffffff16815260200190815260200160002060009054906101000a900460ff16905092915050565b6115c0610e06565b73ffffffffffffffffffffffffffffffffffffffff163373ffffffffffffffffffffffffffffffffffffffff1614806116425750600960003373ffffffffffffffffffffffffffffffffffffffff1673ffffffffffffffffffffffffffffffffffffffff16815260200190815260200160002060009054906101000a900460ff165b611681576040517f08c379a00000000000000000000000000000000000000000000000000000000081526004016116789061343b565b60405180910390fd5b600073ffffffffffffffffffffffffffffffffffffffff166116a2836122d1565b73ffffffffffffffffffffffffffffffffffffffff16036116f8576040517f08c379a00000000000000000000000000000000000000000000000000000000081526004016116ef9061388b565b60405180910390fd5b80600a600084815260200190815260200160002081905550817fa0f1665b7b659537b52deec61ea64d134a3bccda74c7f4e79f2246e7a8187a8a826040516117409190613082565b60405180910390a25050565b611754611c27565b600073ffffffffffffffffffffffffffffffffffffffff168173ffffffffffffffffffffffffffffffffffffffff16036117c65760006040517f1e4fbdf70000000000000000000000000000000000000000000000000000000081526004016117bd9190612d16565b60405180910390fd5b6117cf81611cae565b50565b6117ec82826040518060200160405280600081525061230e565b5050565b806006600084815260200190815260200160002090816118109190613a57565b507ff8e1a15aba9398e019f0b49df1a4fde98ee17ae345cb5f6b5e2c27f5033e8ce7826040516118409190613082565b60405180910390a15050565b60007f80ac58cd000000000000000000000000000000000000000000000000000000007bffffffffffffffffffffffffffffffffffffffffffffffffffffffff1916827bffffffffffffffffffffffffffffffffffffffffffffffffffffffff1916148061191757507f5b5e139f000000000000000000000000000000000000000000000000000000007bffffffffffffffffffffffffffffffffffffffffffffffffffffffff1916827bffffffffffffffffffffffffffffffffffffffffffffffffffffffff1916145b80611927575061192682612332565b5b9050919050565b60008061193a836122d1565b9050600073ffffffffffffffffffffffffffffffffffffffff168173ffffffffffffffffffffffffffffffffffffffff16036119ad57826040517f7e2732890000000000000000000000000000000000000000000000000000000081526004016119a49190613082565b60405180910390fd5b80915050919050565b60006004600083815260200190815260200160002060009054906101000a900473ffffffffffffffffffffffffffffffffffffffff169050919050565b600033905090565b611a08838383600161239c565b505050565b600080611a19846122d1565b9050600073ffffffffffffffffffffffffffffffffffffffff168373ffffffffffffffffffffffffffffffffffffffff1614611a5b57611a5a818486612561565b5b600073ffffffffffffffffffffffffffffffffffffffff168173ffffffffffffffffffffffffffffffffffffffff1614611aec57611a9d60008560008061239c565b6001600360008373ffffffffffffffffffffffffffffffffffffffff1673ffffffffffffffffffffffffffffffffffffffff168152602001908152602001600020600082825403925050819055505b600073ffffffffffffffffffffffffffffffffffffffff168573ffffffffffffffffffffffffffffffffffffffff1614611b6f576001600360008773ffffffffffffffffffffffffffffffffffffffff1673ffffffffffffffffffffffffffffffffffffffff168152602001908152602001600020600082825401925050819055505b846002600086815260200190815260200160002060006101000a81548173ffffffffffffffffffffffffffffffffffffffff021916908373ffffffffffffffffffffffffffffffffffffffff160217905550838573ffffffffffffffffffffffffffffffffffffffff168273ffffffffffffffffffffffffffffffffffffffff167fddf252ad1be2c89b69c2b068fc378daa952ba7f163c4a11628f55a4df523b3ef60405160405180910390a4809150509392505050565b611c2f6119f3565b73ffffffffffffffffffffffffffffffffffffffff16611c4d610e06565b73ffffffffffffffffffffffffffffffffffffffff1614611cac57611c706119f3565b6040517f118cdaa7000000000000000000000000000000000000000000000000000000008152600401611ca39190612d16565b60405180910390fd5b565b6000600760009054906101000a900473ffffffffffffffffffffffffffffffffffffffff16905081600760006101000a81548173ffffffffffffffffffffffffffffffffffffffff021916908373ffffffffffffffffffffffffffffffffffffffff1602179055508173ffffffffffffffffffffffffffffffffffffffff168173ffffffffffffffffffffffffffffffffffffffff167f8be0079c531659141344cd1fd0a4f28419497f9722a3daafe3b4186f6b6457e060405160405180910390a35050565b600073ffffffffffffffffffffffffffffffffffffffff168273ffffffffffffffffffffffffffffffffffffffff1603611de557816040517f5b08ba18000000000000000000000000000000000000000000000000000000008152600401611ddc9190612d16565b60405180910390fd5b80600560008573ffffffffffffffffffffffffffffffffffffffff1673ffffffffffffffffffffffffffffffffffffffff16815260200190815260200160002060008473ffffffffffffffffffffffffffffffffffffffff1673ffffffffffffffffffffffffffffffffffffffff16815260200190815260200160002060006101000a81548160ff0219169083151502179055508173ffffffffffffffffffffffffffffffffffffffff168373ffffffffffffffffffffffffffffffffffffffff167f17307eab39ab6107e8899845ad3d59bd9653f200f220920489ca2b5937696c3183604051611ed69190612bd7565b60405180910390a3505050565b60008373ffffffffffffffffffffffffffffffffffffffff163b111561208d578273ffffffffffffffffffffffffffffffffffffffff1663150b7a02868685856040518563ffffffff1660e01b8152600401611f429493929190613b7e565b6020604051808303816000875af1925050508015611f7e57506040513d601f19601f82011682018060405250810190611f7b9190613bdf565b60015b612002573d8060008114611fae576040519150601f19603f3d011682016040523d82523d6000602084013e611fb3565b606091505b506000815103611ffa57836040517f64a0ae92000000000000000000000000000000000000000000000000000000008152600401611ff19190612d16565b60405180910390fd5b805160208201fd5b63150b7a0260e01b7bffffffffffffffffffffffffffffffffffffffffffffffffffffffff1916817bffffffffffffffffffffffffffffffffffffffffffffffffffffffff19161461208b57836040517f64a0ae920000000000000000000000000000000000000000000000000000000081526004016120829190612d16565b60405180910390fd5b505b5050505050565b606060405180602001604052806000815250905090565b60606120b68261192e565b5060006120c1612094565b905060008151116120e1576040518060200160405280600081525061210c565b806120eb84612625565b6040516020016120fc929190613625565b6040516020818303038152906040525b915050919050565b600260085403612150576040517f3ee5aeb500000000000000000000000000000000000000000000000000000000815260040160405180910390fd5b6002600881905550565b600073ffffffffffffffffffffffffffffffffffffffff168273ffffffffffffffffffffffffffffffffffffffff16036121cc5760006040517f64a0ae920000000000000000000000000000000000000000000000000000000081526004016121c39190612d16565b60405180910390fd5b60006121da83836000611a0d565b9050600073ffffffffffffffffffffffffffffffffffffffff168173ffffffffffffffffffffffffffffffffffffffff160361224d57816040517f7e2732890000000000000000000000000000000000000000000000000000000081526004016122449190613082565b60405180910390fd5b8373ffffffffffffffffffffffffffffffffffffffff168173ffffffffffffffffffffffffffffffffffffffff16146122c1578382826040517f64283d7b0000000000000000000000000000000000000000000000000000000081526004016122b8939291906135b2565b60405180910390fd5b50505050565b6001600881905550565b60006002600083815260200190815260200160002060009054906101000a900473ffffffffffffffffffffffffffffffffffffffff169050919050565b61231883836126f3565b61232d6123236119f3565b6000858585611ee3565b505050565b60007f01ffc9a7000000000000000000000000000000000000000000000000000000007bffffffffffffffffffffffffffffffffffffffffffffffffffffffff1916827bffffffffffffffffffffffffffffffffffffffffffffffffffffffff1916149050919050565b80806123d55750600073ffffffffffffffffffffffffffffffffffffffff168273ffffffffffffffffffffffffffffffffffffffff1614155b156125095760006123e58461192e565b9050600073ffffffffffffffffffffffffffffffffffffffff168373ffffffffffffffffffffffffffffffffffffffff161415801561245057508273ffffffffffffffffffffffffffffffffffffffff168173ffffffffffffffffffffffffffffffffffffffff1614155b801561246357506124618184611524565b155b156124a557826040517fa9fbf51f00000000000000000000000000000000000000000000000000000000815260040161249c9190612d16565b60405180910390fd5b811561250757838573ffffffffffffffffffffffffffffffffffffffff168273ffffffffffffffffffffffffffffffffffffffff167f8c5be1e5ebec7d5bd14f71427d1e84f3dd0314c0f7b2291e5b200ac8c7c3b92560405160405180910390a45b505b836004600085815260200190815260200160002060006101000a81548173ffffffffffffffffffffffffffffffffffffffff021916908373ffffffffffffffffffffffffffffffffffffffff16021790555050505050565b61256c8383836127ec565b61262057600073ffffffffffffffffffffffffffffffffffffffff168373ffffffffffffffffffffffffffffffffffffffff16036125e157806040517f7e2732890000000000000000000000000000000000000000000000000000000081526004016125d89190613082565b60405180910390fd5b81816040517f177e802f000000000000000000000000000000000000000000000000000000008152600401612617929190613c0c565b60405180910390fd5b505050565b606060006001612634846128ad565b01905060008167ffffffffffffffff811115612653576126526130a2565b5b6040519080825280601f01601f1916602001820160405280156126855781602001600182028036833780820191505090505b509050600082602083010190505b6001156126e8578080600190039150507f3031323334353637383961626364656600000000000000000000000000000000600a86061a8153600a85816126dc576126db613c35565b5b04945060008503612693575b819350505050919050565b600073ffffffffffffffffffffffffffffffffffffffff168273ffffffffffffffffffffffffffffffffffffffff16036127655760006040517f64a0ae9200000000000000000000000000000000000000000000000000000000815260040161275c9190612d16565b60405180910390fd5b600061277383836000611a0d565b9050600073ffffffffffffffffffffffffffffffffffffffff168173ffffffffffffffffffffffffffffffffffffffff16146127e75760006040517f73c6ac6e0000000000000000000000000000000000000000000000000000000081526004016127de9190612d16565b60405180910390fd5b505050565b60008073ffffffffffffffffffffffffffffffffffffffff168373ffffffffffffffffffffffffffffffffffffffff16141580156128a457508273ffffffffffffffffffffffffffffffffffffffff168473ffffffffffffffffffffffffffffffffffffffff16148061286557506128648484611524565b5b806128a357508273ffffffffffffffffffffffffffffffffffffffff1661288b836119b6565b73ffffffffffffffffffffffffffffffffffffffff16145b5b90509392505050565b600080600090507a184f03e93ff9f4daa797ed6e38ed64bf6a1f010000000000000000831061290b577a184f03e93ff9f4daa797ed6e38ed64bf6a1f010000000000000000838161290157612900613c35565b5b0492506040810190505b6d04ee2d6d415b85acef81000000008310612948576d04ee2d6d415b85acef8100000000838161293e5761293d613c35565b5b0492506020810190505b662386f26fc10000831061297757662386f26fc10000838161296d5761296c613c35565b5b0492506010810190505b6305f5e10083106129a0576305f5e100838161299657612995613c35565b5b0492506008810190505b61271083106129c55761271083816129bb576129ba613c35565b5b0492506004810190505b606483106129e857606483816129de576129dd613c35565b5b0492506002810190505b600a83106129f7576001810190505b80915050919050565b6000604051905090565b600080fd5b600080fd5b600073ffffffffffffffffffffffffffffffffffffffff82169050919050565b6000612a3f82612a14565b9050919050565b612a4f81612a34565b8114612a5a57600080fd5b50565b600081359050612a6c81612a46565b92915050565b600080fd5b600080fd5b600080fd5b60008083601f840112612a9757612a96612a72565b5b8235905067ffffffffffffffff811115612ab457612ab3612a77565b5b602083019150836001820283011115612ad057612acf612a7c565b5b9250929050565b600080600060408486031215612af057612aef612a0a565b5b6000612afe86828701612a5d565b935050602084013567ffffffffffffffff811115612b1f57612b1e612a0f565b5b612b2b86828701612a81565b92509250509250925092565b60007fffffffff0000000000000000000000000000000000000000000000000000000082169050919050565b612b6c81612b37565b8114612b7757600080fd5b50565b600081359050612b8981612b63565b92915050565b600060208284031215612ba557612ba4612a0a565b5b6000612bb384828501612b7a565b91505092915050565b60008115159050919050565b612bd181612bbc565b82525050565b6000602082019050612bec6000830184612bc8565b92915050565b600081519050919050565b600082825260208201905092915050565b60005b83811015612c2c578082015181840152602081019050612c11565b60008484015250505050565b6000601f19601f8301169050919050565b6000612c5482612bf2565b612c5e8185612bfd565b9350612c6e818560208601612c0e565b612c7781612c38565b840191505092915050565b60006020820190508181036000830152612c9c8184612c49565b905092915050565b6000819050919050565b612cb781612ca4565b8114612cc257600080fd5b50565b600081359050612cd481612cae565b92915050565b600060208284031215612cf057612cef612a0a565b5b6000612cfe84828501612cc5565b91505092915050565b612d1081612a34565b82525050565b6000602082019050612d2b6000830184612d07565b92915050565b60008060408385031215612d4857612d47612a0a565b5b6000612d5685828601612a5d565b9250506020612d6785828601612cc5565b9150509250929050565b600060208284031215612d8757612d86612a0a565b5b6000612d9584828501612a5d565b91505092915050565b600081519050919050565b600082825260208201905092915050565b6000819050602082019050919050565b612dd381612ca4565b82525050565b6000612de58383612dca565b60208301905092915050565b6000602082019050919050565b6000612e0982612d9e565b612e138185612da9565b9350612e1e83612dba565b8060005b83811015612e4f578151612e368882612dd9565b9750612e4183612df1565b925050600181019050612e22565b5085935050505092915050565b600081519050919050565b600082825260208201905092915050565b6000819050602082019050919050565b600082825260208201905092915050565b6000612ea482612bf2565b612eae8185612e88565b9350612ebe818560208601612c0e565b612ec781612c38565b840191505092915050565b6000612ede8383612e99565b905092915050565b6000602082019050919050565b6000612efe82612e5c565b612f088185612e67565b935083602082028501612f1a85612e78565b8060005b85811015612f565784840389528151612f378582612ed2565b9450612f4283612ee6565b925060208a01995050600181019050612f1e565b50829750879550505050505092915050565b60006060820190508181036000830152612f828186612dfe565b90508181036020830152612f968185612ef3565b90508181036040830152612faa8184612dfe565b9050949350505050565b600080600060608486031215612fcd57612fcc612a0a565b5b6000612fdb86828701612a5d565b9350506020612fec86828701612a5d565b9250506040612ffd86828701612cc5565b9150509250925092565b61301081612bbc565b811461301b57600080fd5b50565b60008135905061302d81613007565b92915050565b6000806040838503121561304a57613049612a0a565b5b600061305885828601612a5d565b92505060206130698582860161301e565b9150509250929050565b61307c81612ca4565b82525050565b60006020820190506130976000830184613073565b92915050565b600080fd5b7f4e487b7100000000000000000000000000000000000000000000000000000000600052604160045260246000fd5b6130da82612c38565b810181811067ffffffffffffffff821117156130f9576130f86130a2565b5b80604052505050565b600061310c612a00565b905061311882826130d1565b919050565b600067ffffffffffffffff821115613138576131376130a2565b5b61314182612c38565b9050602081019050919050565b82818337600083830152505050565b600061317061316b8461311d565b613102565b90508281526020810184848401111561318c5761318b61309d565b5b61319784828561314e565b509392505050565b600082601f8301126131b4576131b3612a72565b5b81356131c484826020860161315d565b91505092915050565b600080600080608085870312156131e7576131e6612a0a565b5b60006131f587828801612a5d565b945050602061320687828801612a5d565b935050604061321787828801612cc5565b925050606085013567ffffffffffffffff81111561323857613237612a0f565b5b6132448782880161319f565b91505092959194509250565b600081519050919050565b600082825260208201905092915050565b6000819050602082019050919050565b61328581612a34565b82525050565b6000613297838361327c565b60208301905092915050565b6000602082019050919050565b60006132bb82613250565b6132c5818561325b565b93506132d08361326c565b8060005b838110156133015781516132e8888261328b565b97506132f3836132a3565b9250506001810190506132d4565b5085935050505092915050565b600060808201905081810360008301526133288187612dfe565b9050818103602083015261333c81866132b0565b905081810360408301526133508185612ef3565b905081810360608301526133648184612dfe565b905095945050505050565b6000806040838503121561338657613385612a0a565b5b600061339485828601612a5d565b92505060206133a585828601612a5d565b9150509250929050565b600080604083850312156133c6576133c5612a0a565b5b60006133d485828601612cc5565b92505060206133e585828601612cc5565b9150509250929050565b7f4e6f742061646d696e0000000000000000000000000000000000000000000000600082015250565b6000613425600983612bfd565b9150613430826133ef565b602082019050919050565b6000602082019050818103600083015261345481613418565b9050919050565b7f4e487b7100000000000000000000000000000000000000000000000000000000600052601160045260246000fd5b600061349582612ca4565b91507fffffffffffffffffffffffffffffffffffffffffffffffffffffffffffffffff82036134c7576134c661345b565b5b600182019050919050565b60006134de8385612bfd565b93506134eb83858461314e565b6134f483612c38565b840190509392505050565b6000602082019050818103600083015261351a8184866134d2565b90509392505050565b7f4e487b7100000000000000000000000000000000000000000000000000000000600052602260045260246000fd5b6000600282049050600182168061356a57607f821691505b60208210810361357d5761357c613523565b5b50919050565b7f4e487b7100000000000000000000000000000000000000000000000000000000600052603260045260246000fd5b60006060820190506135c76000830186612d07565b6135d46020830185613073565b6135e16040830184612d07565b949350505050565b600081905092915050565b60006135ff82612bf2565b61360981856135e9565b9350613619818560208601612c0e565b80840191505092915050565b600061363182856135f4565b915061363d82846135f4565b91508190509392505050565b7f4e6f7420666f722073616c650000000000000000000000000000000000000000600082015250565b600061367f600c83612bfd565b915061368a82613649565b602082019050919050565b600060208201905081810360008301526136ae81613672565b9050919050565b7f496e636f72726563742070726963650000000000000000000000000000000000600082015250565b60006136eb600f83612bfd565b91506136f6826136b5565b602082019050919050565b6000602082019050818103600083015261371a816136de565b9050919050565b7f416c7265616479206f776e657200000000000000000000000000000000000000600082015250565b6000613757600d83612bfd565b915061376282613721565b602082019050919050565b600060208201905081810360008301526137868161374a565b9050919050565b600081905092915050565b50565b60006137a860008361378d565b91506137b382613798565b600082019050919050565b60006137c98261379b565b9150819050919050565b7f5061796d656e74206661696c6564000000000000000000000000000000000000600082015250565b6000613809600e83612bfd565b9150613814826137d3565b602082019050919050565b60006020820190508181036000830152613838816137fc565b9050919050565b7f546f6b656e20646f6573206e6f74206578697374000000000000000000000000600082015250565b6000613875601483612bfd565b91506138808261383f565b602082019050919050565b600060208201905081810360008301526138a481613868565b9050919050565b60008190508160005260206000209050919050565b60006020601f8301049050919050565b600082821b905092915050565b60006008830261390d7fffffffffffffffffffffffffffffffffffffffffffffffffffffffffffffffff826138d0565b61391786836138d0565b95508019841693508086168417925050509392505050565b6000819050919050565b600061395461394f61394a84612ca4565b61392f565b612ca4565b9050919050565b6000819050919050565b61396e83613939565b61398261397a8261395b565b8484546138dd565b825550505050565b600090565b61399761398a565b6139a2818484613965565b505050565b5b818110156139c6576139bb60008261398f565b6001810190506139a8565b5050565b601f821115613a0b576139dc816138ab565b6139e5846138c0565b810160208510156139f4578190505b613a08613a00856138c0565b8301826139a7565b50505b505050565b600082821c905092915050565b6000613a2e60001984600802613a10565b1980831691505092915050565b6000613a478383613a1d565b9150826002028217905092915050565b613a6082612bf2565b67ffffffffffffffff811115613a7957613a786130a2565b5b613a838254613552565b613a8e8282856139ca565b600060209050601f831160018114613ac15760008415613aaf578287015190505b613ab98582613a3b565b865550613b21565b601f198416613acf866138ab565b60005b82811015613af757848901518255600182019150602085019450602081019050613ad2565b86831015613b145784890151613b10601f891682613a1d565b8355505b6001600288020188555050505b505050505050565b600081519050919050565b600082825260208201905092915050565b6000613b5082613b29565b613b5a8185613b34565b9350613b6a818560208601612c0e565b613b7381612c38565b840191505092915050565b6000608082019050613b936000830187612d07565b613ba06020830186612d07565b613bad6040830185613073565b8181036060830152613bbf8184613b45565b905095945050505050565b600081519050613bd981612b63565b92915050565b600060208284031215613bf557613bf4612a0a565b5b6000613c0384828501613bca565b91505092915050565b6000604082019050613c216000830185612d07565b613c2e6020830184613073565b9392505050565b7f4e487b7100000000000000000000000000000000000000000000000000000000600052601260045260246000fdfea26469706673582212202a96ee9e5474eb97dbd299b4b1694e016dec6423e171201afe2a850a1f9e7c2364736f6c63430008180033",
  "linkReferences": {},
  "deployedLinkReferences": {}
}