{
  "_format": "hh-sol-artifact-1",
  "contractName": "DnANFT",
  "sourceName": "contracts/DnANFT.sol",
  "abi": [
    {
      "inputs": [
        {
          "internalType": "string",
          "name": "name_",
          "type": "string"
        },
        {
          "internalType": "string",
          "name": "symbol_",
          "type": "string"
        }
      ],
      "stateMutability": "nonpayable",
      "type": "constructor"
    },
    {
      "inputs": [
        {
          "internalType": "address",
          "name": "sender",
          "type": "address"
        },
        {
          "internalType": "uint256",
          "name": "tokenId",
          "type": "uint256"
        },
        {
          "internalType": "address",
          "name": "owner",
          "type": "address"
        }
      ],
      "name": "ERC721IncorrectOwner",
      "type": "error"
    },
    {
      "inputs": [
        {
          "internalType": "address",
          "name": "operator",
          "type": "address"
        },
        {
          "internalType": "uint256",
          "name": "tokenId",
          "type": "uint256"
        }
      ],
      "name": "ERC721InsufficientApproval",
      "type": "error"
    },
    {
      "inputs": [
        {
          "internalType": "address",
          "name": "approver",
          "type": "address"
        }
      ],
      "name": "ERC721InvalidApprover",
      "type": "error"
    },
    {
      "inputs": [
        {
          "internalType": "address",
          "name": "operator",
          "type": "address"
        }
      ],
      "name": "ERC721InvalidOperator",
      "type": "error"
    },
    {
      "inputs": [
        {
          "internalType": "address",
          "name": "owner",
          "type": "address"
        }
      ],
      "name": "ERC721InvalidOwner",
      "type": "error"
    },
    {
      "inputs": [
        {
          "internalType": "address",
          "name": "receiver",
          "type": "address"
        }
      ],
      "name": "ERC721InvalidReceiver",
      "type": "error"
    },
    {
      "inputs": [
        {
          "internalType": "address",
          "name": "sender",
          "type": "address"
        }
      ],
      "name": "ERC721InvalidSender",
      "type": "error"
    },
    {
      "inputs": [
        {
          "internalType": "uint256",
          "name": "tokenId",
          "type": "uint256"
        }
      ],
      "name": "ERC721NonexistentToken",
      "type": "error"
    },
    {
      "inputs": [
        {
          "internalType": "address",
          "name": "owner",
          "type": "address"
        }
      ],
      "name": "OwnableInvalidOwner",
      "type": "error"
    },
    {
      "inputs": [
        {
          "internalType": "address",
          "name": "account",
          "type": "address"
        }
      ],
      "name": "OwnableUnauthorizedAccount",
      "type": "error"
    },
    {
      "inputs": [],
      "name": "ReentrancyGuardReentrantCall",
      "type": "error"
    },
    {
      "anonymous": false,
      "inputs": [
        {
          "indexed": true,
          "internalType": "address",
          "name": "admin",
          "type": "address"
        },
        {
          "indexed": false,
          "internalType": "bool",
          "name": "enabled",
          "type": "bool"
        }
      ],
      "name": "AdminUpdated",
      "type": "event"
    },
    {
      "anonymous": false,
      "inputs": [
        {
          "indexed": true,
          "internalType": "address",
          "name": "owner",
          "type": "address"
        },
        {
          "indexed": true,
          "internalType": "address",
          "name": "approved",
          "type": "address"
        },
        {
          "indexed": true,
          "internalType": "uint256",
          "name": "tokenId",
          "type": "uint256"
        }
      ],
      "name": "Approval",
      "type": "event"
    },
    {
      "anonymous": false,
      "inputs": [
        {
          "indexed": true,
          "internalType": "address",
          "name": "owner",
          "type": "address"
        },
        {
          "indexed": true,
          "internalType": "address",
          "name": "operator",
          "type": "address"
        },
        {
          "indexed": false,
          "internalType": "bool",
          "name": "approved",
          "type": "bool"
        }
      ],
      "name": "ApprovalForAll",
      "type": "event"
    },
    {
      "anonymous": false,
      "inputs": [
        {
          "indexed": false,
          "internalType": "uint256",
          "name": "_fromTokenId",
          "type": "uint256"
        },
        {
          "indexed": false,
          "internalType": "uint256",
          "name": "_toTokenId",
          "type": "uint256"
        }
      ],
      "name": "BatchMetadataUpdate",
      "type": "event"
    },
    {
      "anonymous": false,
      "inputs": [
        {
          "indexed": false,
          "internalType": "uint256",
          "name": "_tokenId",
          "type": "uint256"
        }
      ],
      "name": "MetadataUpdate",
      "type": "event"
    },
    {
      "anonymous": false,
      "inputs": [
        {
          "indexed": true,
          "internalType": "address",
          "name": "to",
          "type": "address"
        },
        {
          "indexed": true,
          "internalType": "uint256",
          "name": "tokenId",
          "type": "uint256"
        },
        {
          "indexed": false,
          "internalType": "string",
          "name": "uri",
          "type": "string"
        }
      ],
      "name": "Minted",
      "type": "event"
    },
    {
      "anonymous": false,
      "inputs": [
        {
          "indexed": true,
          "internalType": "address",
          "name": "previousOwner",
          "type": "address"
        },
        {
          "indexed": true,
          "internalType": "address",
          "name": "newOwner",
          "type": "address"
        }
      ],
      "name": "OwnershipTransferred",
      "type": "event"
    },
    {
      "anonymous": false,
      "inputs": [
        {
          "indexed": true,
          "internalType": "uint256",
          "name": "tokenId",
          "type": "uint256"
        },
        {
          "indexed": false,
          "internalType": "uint256",
          "name": "price",
          "type": "uint256"
        }
      ],
      "name": "PriceSet",
      "type": "event"
    },
    {
      "anonymous": false,
      "inputs": [
        {
          "indexed": true,
          "internalType": "address",
          "name": "buyer",
          "type": "address"
        },
        {
          "indexed": true,
          "internalType": "uint256",
          "name": "tokenId",
          "type": "uint256"
        },
        {
          "indexed": false,
          "internalType": "uint256",
          "name": "price",
          "type": "uint256"
        }
      ],
      "name": "Purchased",
      "type": "event"
    },
    {
      "anonymous": false,
      "inputs": [
        {
          "indexed": true,
          "internalType": "address",
          "name": "from",
          "type": "address"
        },
        {
          "indexed": true,
          "internalType": "address",
          "name": "to",
          "type": "address"
        },
        {
          "indexed": true,
          "internalType": "uint256",
          "name": "tokenId",
          "type": "uint256"
        }
      ],
      "name": "Transfer",
      "type": "event"
    },
    {
      "inputs": [
        {
          "internalType": "address",
          "name": "to",
          "type": "address"
        },
        {
          "internalType": "uint256",
          "name": "tokenId",
          "type": "uint256"
        }
      ],
      "name": "approve",
      "outputs": [],
      "stateMutability": "nonpayable",
      "type": "function"
    },
    {
      "inputs": [
        {
          "internalType": "address",
          "name": "owner",
          "type": "address"
        }
      ],
      "name": "balanceOf",
      "outputs": [
        {
          "internalType": "uint256",
          "name": "",
          "type": "uint256"
        }
      ],
      "stateMutability": "view",
      "type": "function"
    },
    {
      "inputs": [
        {
          "internalType": "uint256",
          "name": "tokenId",
          "type": "uint256"
        }
      ],
      "name": "buy",
      "outputs": [],
      "stateMutability": "payable",
      "type": "function"
    },
    {
      "inputs": [],
      "name": "getAllNFTs",
      "outputs": [
        {
          "internalType": "uint256[]",
          "name": "ids",
          "type": "uint256[]"
        },
        {
          "internalType": "address[]",
          "name": "owners",
          "type": "address[]"
        },
        {
          "internalType": "string[]",
          "name": "uris",
          "type": "string[]"
        },
        {
          "internalType": "uint256[]",
          "name": "prices",
          "type": "uint256[]"
        }
      ],
      "stateMutability": "view",
      "type": "function"
    },
    {
      "inputs": [
        {
          "internalType": "uint256",
          "name": "tokenId",
          "type": "uint256"
        }
      ],
      "name": "getApproved",
      "outputs": [
        {
          "internalType": "address",
          "name": "",
          "type": "address"
        }
      ],
      "stateMutability": "view",
      "type": "function"
    },
    {
      "inputs": [
        {
          "internalType": "address",
          "name": "",
          "type": "address"
        }
      ],
      "name": "isAdmin",
      "outputs": [
        {
          "internalType": "bool",
          "name": "",
          "type": "bool"
        }
      ],
      "stateMutability": "view",
      "type": "function"
    },
    {
      "inputs": [
        {
          "internalType": "address",
          "name": "owner",
          "type": "address"
        },
        {
          "internalType": "address",
          "name": "operator",
          "type": "address"
        }
      ],
      "name": "isApprovedForAll",
      "outputs": [
        {
          "internalType": "bool",
          "name": "",
          "type": "bool"
        }
      ],
      "stateMutability": "view",
      "type": "function"
    },
    {
      "inputs": [
        {
          "internalType": "address",
          "name": "to",
          "type": "address"
        },
        {
          "internalType": "uint256",
          "name": "tokenId",
          "type": "uint256"
        },
        {
          "internalType": "string",
          "name": "uri",
          "type": "string"
        }
      ],
      "name": "mintTo",
      "outputs": [],
      "stateMutability": "nonpayable",
      "type": "function"
    },
    {
      "inputs": [],
      "name": "name",
      "outputs": [
        {
          "internalType": "string",
          "name": "",
          "type": "string"
        }
      ],
      "stateMutability": "view",
      "type": "function"
    },
    {
      "inputs": [],
      "name": "owner",
      "outputs": [
        {
          "internalType": "address",
          "name": "",
          "type": "address"
        }
      ],
      "stateMutability": "view",
      "type": "function"
    },
    {
      "inputs": [
        {
          "internalType": "uint256",
          "name": "tokenId",
          "type": "uint256"
        }
      ],
      "name": "ownerOf",
      "outputs": [
        {
          "internalType": "address",
          "name": "",
          "type": "address"
        }
      ],
      "stateMutability": "view",
      "type": "function"
    },
    {
      "inputs": [],
      "name": "renounceOwnership",
      "outputs": [],
      "stateMutability": "nonpayable",
      "type": "function"
    },
    {
      "inputs": [
        {
          "internalType": "address",
          "name": "from",
          "type": "address"
        },
        {
          "internalType": "address",
          "name": "to",
          "type": "address"
        },
        {
          "internalType": "uint256",
          "name": "tokenId",
          "type": "uint256"
        }
      ],
      "name": "safeTransferFrom",
      "outputs": [],
      "stateMutability": "nonpayable",
      "type": "function"
    },
    {
      "inputs": [
        {
          "internalType": "address",
          "name": "from",
          "type": "address"
        },
        {
          "internalType": "address",
          "name": "to",
          "type": "address"
        },
        {
          "internalType": "uint256",
          "name": "tokenId",
          "type": "uint256"
        },
        {
          "internalType": "bytes",
          "name": "data",
          "type": "bytes"
        }
      ],
      "name": "safeTransferFrom",
      "outputs": [],
      "stateMutability": "nonpayable",
      "type": "function"
    },
    {
      "inputs": [
        {
          "internalType": "address",
          "name": "account",
          "type": "address"
        },
        {
          "internalType": "bool",
          "name": "enabled",
          "type": "bool"
        }
      ],
      "name": "setAdmin",
      "outputs": [],
      "stateMutability": "nonpayable",
      "type": "function"
    },
    {
      "inputs": [
        {
          "internalType": "address",
          "name": "operator",
          "type": "address"
        },
        {
          "internalType": "bool",
          "name": "approved",
          "type": "bool"
        }
      ],
      "name": "setApprovalForAll",
      "outputs": [],
      "stateMutability": "nonpayable",
      "type": "function"
    },
    {
      "inputs": [
        {
          "internalType": "uint256",
          "name": "tokenId",
          "type": "uint256"
        },
        {
          "internalType": "uint256",
          "name": "priceWei",
          "type": "uint256"
        }
      ],
      "name": "setTokenPrice",
      "outputs": [],
      "stateMutability": "nonpayable",
      "type": "function"
    },
    {
      "inputs": [
        {
          "internalType": "bytes4",
          "name": "interfaceId",
          "type": "bytes4"
        }
      ],
      "name": "supportsInterface",
      "outputs": [
        {
          "internalType": "bool",
          "name": "",
          "type": "bool"
        }
      ],
      "stateMutability": "view",
      "type": "function"
    },
    {
      "inputs": [],
      "name": "symbol",
      "outputs": [
        {
          "internalType": "string",
          "name": "",
          "type": "string"
        }
      ],
      "stateMutability": "view",
      "type": "function"
    },
    {
      "inputs": [
        {
          "internalType": "uint256",
          "name": "",
          "type": "uint256"
        }
      ],
      "name": "tokenPrice",
      "outputs": [
        {
          "internalType": "uint256",
          "name": "",
          "type": "uint256"
        }
      ],
      "stateMutability": "view",
      "type": "function"
    },
    {
      "inputs": [
        {
          "internalType": "uint256",
          "name": "tokenId",
          "type": "uint256"
        }
      ],
      "name": "tokenURI",
      "outputs": [
        {
          "internalType": "string",
          "name": "",
          "type": "string"
        }
      ],
      "stateMutability": "view",
      "type": "function"
    },
    {
      "inputs": [
        {
          "internalType": "address",
          "name": "from",
          "type": "address"
        },
        {
          "internalType": "address",
          "name": "to",
          "type": "address"
        },
        {
          "internalType": "uint256",
          "name": "tokenId",
          "type": "uint256"
        }
      ],
      "name": "transferFrom",
      "outputs": [],
      "stateMutability": "nonpayable",
      "type": "function"
    },
    {
      "inputs": [
        {
          "internalType": "address",
          "name": "newOwner",
          "type": "address"
        }
      ],
      "name": "transferOwnership",
      "outputs": [],
      "stateMutability": "nonpayable",
      "type": "function"
    }
  ],
  "bytecode": "0x60806040523480156200001157600080fd5b506040516200410738038062004107833981810160405281019062000037919062000350565b33828281600090816200004b919062000620565b5080600190816200005d919062000620565b505050600073ffffffffffffffffffffffffffffffffffffffff168173ffffffffffffffffffffffffffffffffffffffff1603620000d55760006040517f1e4fbdf7000000000000000000000000000000000000000000000000000000008152600401620000cc91906200074c565b60405180910390fd5b620000e681620000f760201b60201c565b506001600881905550505062000769565b6000600760009054906101000a900473ffffffffffffffffffffffffffffffffffffffff16905081600760006101000a81548173ffffffffffffffffffffffffffffffffffffffff021916908373ffffffffffffffffffffffffffffffffffffffff1602179055508173ffffffffffffffffffffffffffffffffffffffff168173ffffffffffffffffffffffffffffffffffffffff167f8be0079c531659141344cd1fd0a4f28419497f9722a3daafe3b4186f6b6457e060405160405180910390a35050565b6000604051905090565b600080fd5b600080fd5b600080fd5b600080fd5b6000601f19601f8301169050919050565b7f4e487b7100000000000000000000000000000000000000000000000000000000600052604160045260246000fd5b6200022682620001db565b810181811067ffffffffffffffff82111715620002485762000247620001ec565b5b80604052505050565b60006200025d620001bd565b90506200026b82826200021b565b919050565b600067ffffffffffffffff8211156200028e576200028d620001ec565b5b6200029982620001db565b9050602081019050919050565b60005b83811015620002c6578082015181840152602081019050620002a9565b60008484015250505050565b6000620002e9620002e38462000270565b62000251565b905082815260208101848484011115620003085762000307620001d6565b5b62000315848285620002a6565b509392505050565b600082601f830112620003355762000334620001d1565b5b815162000347848260208601620002d2565b91505092915050565b600080604083850312156200036a5762000369620001c7565b5b600083015167ffffffffffffffff8111156200038b576200038a620001cc565b5b62000399858286016200031d565b925050602083015167ffffffffffffffff811115620003bd57620003bc620001cc565b5b620003cb858286016200031d565b9150509250929050565b600081519050919050565b7f4e487b7100000000000000000000000000000000000000000000000000000000600052602260045260246000fd5b600060028204905060018216806200042857607f821691505b6020821081036200043e576200043d620003e0565b5b50919050565b60008190508160005260206000209050919050565b60006020601f8301049050919050565b600082821b905092915050565b600060088302620004a87fffffffffffffffffffffffffffffffffffffffffffffffffffffffffffffffff8262000469565b620004b4868362000469565b95508019841693508086168417925050509392505050565b6000819050919050565b6000819050919050565b600062000501620004fb620004f584620004cc565b620004d6565b620004cc565b9050919050565b6000819050919050565b6200051d83620004e0565b620005356200052c8262000508565b84845462000476565b825550505050565b600090565b6200054c6200053d565b6200055981848462000512565b505050565b5b8181101562000581576200057560008262000542565b6001810190506200055f565b5050565b601f821115620005d0576200059a8162000444565b620005a58462000459565b81016020851015620005b5578190505b620005cd620005c48562000459565b8301826200055e565b50505b505050565b600082821c905092915050565b6000620005f560001984600802620005d5565b1980831691505092915050565b6000620006108383620005e2565b9150826002028217905092915050565b6200062b82620003d5565b67ffffffffffffffff811115620006475762000646620001ec565b5b6200065382546200040f565b6200066082828562000585565b600060209050601f83116001811462000698576000841562000683578287015190505b6200068f858262000602565b865550620006ff565b601f198416620006a88662000444565b60005b82811015620006d257848901518255600182019150602085019450602081019050620006ab565b86831015620006f25784890151620006ee601f891682620005e2565b8355505b6001600288020188555050505b505050505050565b600073ffffffffffffffffffffffffffffffffffffffff82169050919050565b6000620007348262000707565b9050919050565b620007468162000727565b82525050565b60006020820190506200076360008301846200073b565b92915050565b61398e80620007796000396000f3fe6080604052600436106101405760003560e01c80638da5cb5b116100b6578063d4ddce8a1161006f578063d4ddce8a1461046a578063d96a094a146104a7578063e0391b09146104c3578063e985e9c5146104f1578063eb685c471461052e578063f2fde38b1461055757610140565b80638da5cb5b1461035c57806395d89b41146103875780639f6ed25f146103b2578063a22cb465146103db578063b88d4fde14610404578063c87b56dd1461042d57610140565b806324d7806c1161010857806324d7806c1461023c57806342842e0e146102795780634b0bddd2146102a25780636352211e146102cb57806370a0823114610308578063715018a61461034557610140565b806301ffc9a71461014557806306fdde0314610182578063081812fc146101ad578063095ea7b3146101ea57806323b872dd14610213575b600080fd5b34801561015157600080fd5b5061016c600480360381019061016791906127a3565b610580565b60405161017991906127eb565b60405180910390f35b34801561018e57600080fd5b506101976105e1565b6040516101a49190612896565b60405180910390f35b3480156101b957600080fd5b506101d460048036038101906101cf91906128ee565b610673565b6040516101e1919061295c565b60405180910390f35b3480156101f657600080fd5b50610211600480360381019061020c91906129a3565b61068f565b005b34801561021f57600080fd5b5061023a600480360381019061023591906129e3565b6106a5565b005b34801561024857600080fd5b50610263600480360381019061025e9190612a36565b6107a7565b60405161027091906127eb565b60405180910390f35b34801561028557600080fd5b506102a0600480360381019061029b91906129e3565b6107c7565b005b3480156102ae57600080fd5b506102c960048036038101906102c49190612a8f565b6107e7565b005b3480156102d757600080fd5b506102f260048036038101906102ed91906128ee565b610898565b6040516102ff919061295c565b60405180910390f35b34801561031457600080fd5b5061032f600480360381019061032a9190612a36565b6108aa565b60405161033c9190612ade565b60405180910390f35b34801561035157600080fd5b5061035a610964565b005b34801561036857600080fd5b50610371610978565b60405161037e919061295c565b60405180910390f35b34801561039357600080fd5b5061039c6109a2565b6040516103a99190612896565b60405180910390f35b3480156103be57600080fd5b506103d960048036038101906103d49190612b5e565b610a34565b005b3480156103e757600080fd5b5061040260048036038101906103fd9190612a8f565b610c4c565b005b34801561041057600080fd5b5061042b60048036038101906104269190612d02565b610c62565b005b34801561043957600080fd5b50610454600480360381019061044f91906128ee565b610c87565b6040516104619190612896565b60405180910390f35b34801561047657600080fd5b50610491600480360381019061048c91906128ee565b610d9a565b60405161049e9190612ade565b60405180910390f35b6104c160048036038101906104bc91906128ee565b610db2565b005b3480156104cf57600080fd5b506104d8611006565b6040516104e8949392919061300d565b60405180910390f35b3480156104fd57600080fd5b506105186004803603810190610513919061306e565b61125b565b60405161052591906127eb565b60405180910390f35b34801561053a57600080fd5b50610555600480360381019061055091906130ae565b6112ef565b005b34801561056357600080fd5b5061057e60048036038101906105799190612a36565b611483565b005b6000634906490660e01b7bffffffffffffffffffffffffffffffffffffffffffffffffffffffff1916827bffffffffffffffffffffffffffffffffffffffffffffffffffffffff191614806105da57506105d982611509565b5b9050919050565b6060600080546105f09061311d565b80601f016020809104026020016040519081016040528092919081815260200182805461061c9061311d565b80156106695780601f1061063e57610100808354040283529160200191610669565b820191906000526020600020905b81548152906001019060200180831161064c57829003601f168201915b5050505050905090565b600061067e826115eb565b5061068882611673565b9050919050565b6106a1828261069c6116b0565b6116b8565b5050565b600073ffffffffffffffffffffffffffffffffffffffff168273ffffffffffffffffffffffffffffffffffffffff16036107175760006040517f64a0ae9200000000000000000000000000000000000000000000000000000000815260040161070e919061295c565b60405180910390fd5b600061072b83836107266116b0565b6116ca565b90508373ffffffffffffffffffffffffffffffffffffffff168173ffffffffffffffffffffffffffffffffffffffff16146107a1578382826040517f64283d7b0000000000000000000000000000000000000000000000000000000081526004016107989392919061314e565b60405180910390fd5b50505050565b60096020528060005260406000206000915054906101000a900460ff1681565b6107e283838360405180602001604052806000815250610c62565b505050565b6107ef6118e4565b80600960008473ffffffffffffffffffffffffffffffffffffffff1673ffffffffffffffffffffffffffffffffffffffff16815260200190815260200160002060006101000a81548160ff0219169083151502179055508173ffffffffffffffffffffffffffffffffffffffff167f235bc17e7930760029e9f4d860a2a8089976de5b381cf8380fc11c1d88a111338260405161088c91906127eb565b60405180910390a25050565b60006108a3826115eb565b9050919050565b60008073ffffffffffffffffffffffffffffffffffffffff168273ffffffffffffffffffffffffffffffffffffffff160361091d5760006040517f89c62b64000000000000000000000000000000000000000000000000000000008152600401610914919061295c565b60405180910390fd5b600360008373ffffffffffffffffffffffffffffffffffffffff1673ffffffffffffffffffffffffffffffffffffffff168152602001908152602001600020549050919050565b61096c6118e4565b610976600061196b565b565b6000600760009054906101000a900473ffffffffffffffffffffffffffffffffffffffff16905090565b6060600180546109b19061311d565b80601f01602080910402602001604051908101604052809291908181526020018280546109dd9061311d565b8015610a2a5780601f106109ff57610100808354040283529160200191610a2a565b820191906000526020600020905b815481529060010190602001808311610a0d57829003601f168201915b5050505050905090565b610a3c610978565b73ffffffffffffffffffffffffffffffffffffffff163373ffffffffffffffffffffffffffffffffffffffff161480610abe5750600960003373ffffffffffffffffffffffffffffffffffffffff1673ffffffffffffffffffffffffffffffffffffffff16815260200190815260200160002060009054906101000a900460ff165b610afd576040517f08c379a0000000000000000000000000000000000000000000000000000000008152600401610af4906131d1565b60405180910390fd5b600073ffffffffffffffffffffffffffffffffffffffff16610b1e84611a31565b73ffffffffffffffffffffffffffffffffffffffff1614610b74576040517f08c379a0000000000000000000000000000000000000000000000000000000008152600401610b6b9061323d565b60405180910390fd5b610b7e8484611a6e565b610bcc8383838080601f016020809104026020016040519081016040528093929190818152602001838380828437600081840152601f19601f82011690508083019250505050505050611a8c565b600b839080600181540180825580915050600190039060005260206000200160009091909190915055828473ffffffffffffffffffffffffffffffffffffffff167fe7cd4ce7f2a465edc730269a1305e8a48bad821e8fb7e152ec413829c01a53c48484604051610c3e92919061328a565b60405180910390a350505050565b610c5e610c576116b0565b8383611ae8565b5050565b610c6d8484846106a5565b610c81610c786116b0565b85858585611c57565b50505050565b6060610c92826115eb565b506000600660008481526020019081526020016000208054610cb39061311d565b80601f0160208091040260200160405190810160405280929190818152602001828054610cdf9061311d565b8015610d2c5780601f10610d0157610100808354040283529160200191610d2c565b820191906000526020600020905b815481529060010190602001808311610d0f57829003601f168201915b505050505090506000610d3d611e08565b90506000815103610d52578192505050610d95565b600082511115610d87578082604051602001610d6f9291906132ea565b60405160208183030381529060405292505050610d95565b610d9084611e1f565b925050505b919050565b600a6020528060005260406000206000915090505481565b610dba611e88565b6000600a600083815260200190815260200160002054905060008111610e15576040517f08c379a0000000000000000000000000000000000000000000000000000000008152600401610e0c9061335a565b60405180910390fd5b803414610e57576040517f08c379a0000000000000000000000000000000000000000000000000000000008152600401610e4e906133c6565b60405180910390fd5b6000610e6283610898565b90503373ffffffffffffffffffffffffffffffffffffffff168173ffffffffffffffffffffffffffffffffffffffff1603610ed2576040517f08c379a0000000000000000000000000000000000000000000000000000000008152600401610ec990613432565b60405180910390fd5b6000610edc610978565b73ffffffffffffffffffffffffffffffffffffffff1634604051610eff90613483565b60006040518083038185875af1925050503d8060008114610f3c576040519150601f19603f3d011682016040523d82523d6000602084013e610f41565b606091505b5050905080610f85576040517f08c379a0000000000000000000000000000000000000000000000000000000008152600401610f7c906134e4565b60405180910390fd5b610f90823386611ece565b6000600a600086815260200190815260200160002081905550833373ffffffffffffffffffffffffffffffffffffffff167ff761777482b4b40d2bcc0d050cfba6829900a2d8b3484bd0244ec0feeb3db50485604051610ff09190612ade565b60405180910390a350505061100361203b565b50565b6060806060806000600b8054905090508067ffffffffffffffff8111156110305761102f612bd7565b5b60405190808252806020026020018201604052801561105e5781602001602082028036833780820191505090505b5094508067ffffffffffffffff81111561107b5761107a612bd7565b5b6040519080825280602002602001820160405280156110a95781602001602082028036833780820191505090505b5093508067ffffffffffffffff8111156110c6576110c5612bd7565b5b6040519080825280602002602001820160405280156110f957816020015b60608152602001906001900390816110e45790505b5092508067ffffffffffffffff81111561111657611115612bd7565b5b6040519080825280602002602001820160405280156111445781602001602082028036833780820191505090505b50915060005b81811015611253576000600b828154811061116857611167613504565b5b906000526020600020015490508087838151811061118957611188613504565b5b60200260200101818152505061119e81610898565b8683815181106111b1576111b0613504565b5b602002602001019073ffffffffffffffffffffffffffffffffffffffff16908173ffffffffffffffffffffffffffffffffffffffff16815250506111f481610c87565b85838151811061120757611206613504565b5b6020026020010181905250600a60008281526020019081526020016000205484838151811061123957611238613504565b5b60200260200101818152505050808060010191505061114a565b505090919293565b6000600560008473ffffffffffffffffffffffffffffffffffffffff1673ffffffffffffffffffffffffffffffffffffffff16815260200190815260200160002060008373ffffffffffffffffffffffffffffffffffffffff1673ffffffffffffffffffffffffffffffffffffffff16815260200190815260200160002060009054906101000a900460ff16905092915050565b6112f7610978565b73ffffffffffffffffffffffffffffffffffffffff163373ffffffffffffffffffffffffffffffffffffffff1614806113795750600960003373ffffffffffffffffffffffffffffffffffffffff1673ffffffffffffffffffffffffffffffffffffffff16815260200190815260200160002060009054906101000a900460ff165b6113b8576040517f08c379a00000000000000000000000000000000000000000000000000000000081526004016113af906131d1565b60405180910390fd5b600073ffffffffffffffffffffffffffffffffffffffff166113d983611a31565b73ffffffffffffffffffffffffffffffffffffffff160361142f576040517f08c379a00000000000000000000000000000000000000000000000000000000081526004016114269061357f565b60405180910390fd5b80600a600084815260200190815260200160002081905550817fa0f1665b7b659537b52deec61ea64d134a3bccda74c7f4e79f2246e7a8187a8a826040516114779190612ade565b60405180910390a25050565b61148b6118e4565b600073ffffffffffffffffffffffffffffffffffffffff168173ffffffffffffffffffffffffffffffffffffffff16036114fd5760006040517f1e4fbdf70000000000000000000000000000000000000000000000000000000081526004016114f4919061295c565b60405180910390fd5b6115068161196b565b50565b60007f80ac58cd000000000000000000000000000000000000000000000000000000007bffffffffffffffffffffffffffffffffffffffffffffffffffffffff1916827bffffffffffffffffffffffffffffffffffffffffffffffffffffffff191614806115d457507f5b5e139f000000000000000000000000000000000000000000000000000000007bffffffffffffffffffffffffffffffffffffffffffffffffffffffff1916827bffffffffffffffffffffffffffffffffffffffffffffffffffffffff1916145b806115e457506115e382612045565b5b9050919050565b6000806115f783611a31565b9050600073ffffffffffffffffffffffffffffffffffffffff168173ffffffffffffffffffffffffffffffffffffffff160361166a57826040517f7e2732890000000000000000000000000000000000000000000000000000000081526004016116619190612ade565b60405180910390fd5b80915050919050565b60006004600083815260200190815260200160002060009054906101000a900473ffffffffffffffffffffffffffffffffffffffff169050919050565b600033905090565b6116c583838360016120af565b505050565b6000806116d684611a31565b9050600073ffffffffffffffffffffffffffffffffffffffff168373ffffffffffffffffffffffffffffffffffffffff161461171857611717818486612274565b5b600073ffffffffffffffffffffffffffffffffffffffff168173ffffffffffffffffffffffffffffffffffffffff16146117a95761175a6000856000806120af565b6001600360008373ffffffffffffffffffffffffffffffffffffffff1673ffffffffffffffffffffffffffffffffffffffff168152602001908152602001600020600082825403925050819055505b600073ffffffffffffffffffffffffffffffffffffffff168573ffffffffffffffffffffffffffffffffffffffff161461182c576001600360008773ffffffffffffffffffffffffffffffffffffffff1673ffffffffffffffffffffffffffffffffffffffff168152602001908152602001600020600082825401925050819055505b846002600086815260200190815260200160002060006101000a81548173ffffffffffffffffffffffffffffffffffffffff021916908373ffffffffffffffffffffffffffffffffffffffff160217905550838573ffffffffffffffffffffffffffffffffffffffff168273ffffffffffffffffffffffffffffffffffffffff167fddf252ad1be2c89b69c2b068fc378daa952ba7f163c4a11628f55a4df523b3ef60405160405180910390a4809150509392505050565b6118ec6116b0565b73ffffffffffffffffffffffffffffffffffffffff1661190a610978565b73ffffffffffffffffffffffffffffffffffffffff16146119695761192d6116b0565b6040517f118cdaa7000000000000000000000000000000000000000000000000000000008152600401611960919061295c565b60405180910390fd5b565b6000600760009054906101000a900473ffffffffffffffffffffffffffffffffffffffff16905081600760006101000a81548173ffffffffffffffffffffffffffffffffffffffff021916908373ffffffffffffffffffffffffffffffffffffffff1602179055508173ffffffffffffffffffffffffffffffffffffffff168173ffffffffffffffffffffffffffffffffffffffff167f8be0079c531659141344cd1fd0a4f28419497f9722a3daafe3b4186f6b6457e060405160405180910390a35050565b60006002600083815260200190815260200160002060009054906101000a900473ffffffffffffffffffffffffffffffffffffffff169050919050565b611a88828260405180602001604052806000815250612338565b5050565b80600660008481526020019081526020016000209081611aac919061374b565b507ff8e1a15aba9398e019f0b49df1a4fde98ee17ae345cb5f6b5e2c27f5033e8ce782604051611adc9190612ade565b60405180910390a15050565b600073ffffffffffffffffffffffffffffffffffffffff168273ffffffffffffffffffffffffffffffffffffffff1603611b5957816040517f5b08ba18000000000000000000000000000000000000000000000000000000008152600401611b50919061295c565b60405180910390fd5b80600560008573ffffffffffffffffffffffffffffffffffffffff1673ffffffffffffffffffffffffffffffffffffffff16815260200190815260200160002060008473ffffffffffffffffffffffffffffffffffffffff1673ffffffffffffffffffffffffffffffffffffffff16815260200190815260200160002060006101000a81548160ff0219169083151502179055508173ffffffffffffffffffffffffffffffffffffffff168373ffffffffffffffffffffffffffffffffffffffff167f17307eab39ab6107e8899845ad3d59bd9653f200f220920489ca2b5937696c3183604051611c4a91906127eb565b60405180910390a3505050565b60008373ffffffffffffffffffffffffffffffffffffffff163b1115611e01578273ffffffffffffffffffffffffffffffffffffffff1663150b7a02868685856040518563ffffffff1660e01b8152600401611cb69493929190613872565b6020604051808303816000875af1925050508015611cf257506040513d601f19601f82011682018060405250810190611cef91906138d3565b60015b611d76573d8060008114611d22576040519150601f19603f3d011682016040523d82523d6000602084013e611d27565b606091505b506000815103611d6e57836040517f64a0ae92000000000000000000000000000000000000000000000000000000008152600401611d65919061295c565b60405180910390fd5b805160208201fd5b63150b7a0260e01b7bffffffffffffffffffffffffffffffffffffffffffffffffffffffff1916817bffffffffffffffffffffffffffffffffffffffffffffffffffffffff191614611dff57836040517f64a0ae92000000000000000000000000000000000000000000000000000000008152600401611df6919061295c565b60405180910390fd5b505b5050505050565b606060405180602001604052806000815250905090565b6060611e2a826115eb565b506000611e35611e08565b90506000815111611e555760405180602001604052806000815250611e80565b80611e5f8461235c565b604051602001611e709291906132ea565b6040516020818303038152906040525b915050919050565b600260085403611ec4576040517f3ee5aeb500000000000000000000000000000000000000000000000000000000815260040160405180910390fd5b6002600881905550565b600073ffffffffffffffffffffffffffffffffffffffff168273ffffffffffffffffffffffffffffffffffffffff1603611f405760006040517f64a0ae92000000000000000000000000000000000000000000000000000000008152600401611f37919061295c565b60405180910390fd5b6000611f4e838360006116ca565b9050600073ffffffffffffffffffffffffffffffffffffffff168173ffffffffffffffffffffffffffffffffffffffff1603611fc157816040517f7e273289000000000000000000000000000000000000000000000000000000008152600401611fb89190612ade565b60405180910390fd5b8373ffffffffffffffffffffffffffffffffffffffff168173ffffffffffffffffffffffffffffffffffffffff1614612035578382826040517f64283d7b00000000000000000000000000000000000000000000000000000000815260040161202c9392919061314e565b60405180910390fd5b50505050565b6001600881905550565b60007f01ffc9a7000000000000000000000000000000000000000000000000000000007bffffffffffffffffffffffffffffffffffffffffffffffffffffffff1916827bffffffffffffffffffffffffffffffffffffffffffffffffffffffff1916149050919050565b80806120e85750600073ffffffffffffffffffffffffffffffffffffffff168273ffffffffffffffffffffffffffffffffffffffff1614155b1561221c5760006120f8846115eb565b9050600073ffffffffffffffffffffffffffffffffffffffff168373ffffffffffffffffffffffffffffffffffffffff161415801561216357508273ffffffffffffffffffffffffffffffffffffffff168173ffffffffffffffffffffffffffffffffffffffff1614155b80156121765750612174818461125b565b155b156121b857826040517fa9fbf51f0000000000000000000000000000000000000000000000000000000081526004016121af919061295c565b60405180910390fd5b811561221a57838573ffffffffffffffffffffffffffffffffffffffff168273ffffffffffffffffffffffffffffffffffffffff167f8c5be1e5ebec7d5bd14f71427d1e84f3dd0314c0f7b2291e5b200ac8c7c3b92560405160405180910390a45b505b836004600085815260200190815260200160002060006101000a81548173ffffffffffffffffffffffffffffffffffffffff021916908373ffffffffffffffffffffffffffffffffffffffff16021790555050505050565b61227f83838361242a565b61233357600073ffffffffffffffffffffffffffffffffffffffff168373ffffffffffffffffffffffffffffffffffffffff16036122f457806040517f7e2732890000000000000000000000000000000000000000000000000000000081526004016122eb9190612ade565b60405180910390fd5b81816040517f177e802f00000000000000000000000000000000000000000000000000000000815260040161232a929190613900565b60405180910390fd5b505050565b61234283836124eb565b61235761234d6116b0565b6000858585611c57565b505050565b60606000600161236b846125e4565b01905060008167ffffffffffffffff81111561238a57612389612bd7565b5b6040519080825280601f01601f1916602001820160405280156123bc5781602001600182028036833780820191505090505b509050600082602083010190505b60011561241f578080600190039150507f3031323334353637383961626364656600000000000000000000000000000000600a86061a8153600a858161241357612412613929565b5b049450600085036123ca575b819350505050919050565b60008073ffffffffffffffffffffffffffffffffffffffff168373ffffffffffffffffffffffffffffffffffffffff16141580156124e257508273ffffffffffffffffffffffffffffffffffffffff168473ffffffffffffffffffffffffffffffffffffffff1614806124a357506124a2848461125b565b5b806124e157508273ffffffffffffffffffffffffffffffffffffffff166124c983611673565b73ffffffffffffffffffffffffffffffffffffffff16145b5b90509392505050565b600073ffffffffffffffffffffffffffffffffffffffff168273ffffffffffffffffffffffffffffffffffffffff160361255d5760006040517f64a0ae92000000000000000000000000000000000000000000000000000000008152600401612554919061295c565b60405180910390fd5b600061256b838360006116ca565b9050600073ffffffffffffffffffffffffffffffffffffffff168173ffffffffffffffffffffffffffffffffffffffff16146125df5760006040517f73c6ac6e0000000000000000000000000000000000000000000000000000000081526004016125d6919061295c565b60405180910390fd5b505050565b600080600090507a184f03e93ff9f4daa797ed6e38ed64bf6a1f0100000000000000008310612642577a184f03e93ff9f4daa797ed6e38ed64bf6a1f010000000000000000838161263857612637613929565b5b0492506040810190505b6d04ee2d6d415b85acef8100000000831061267f576d04ee2d6d415b85acef8100000000838161267557612674613929565b5b0492506020810190505b662386f26fc1000083106126ae57662386f26fc1000083816126a4576126a3613929565b5b0492506010810190505b6305f5e10083106126d7576305f5e10083816126cd576126cc613929565b5b0492506008810190505b61271083106126fc5761271083816126f2576126f1613929565b5b0492506004810190505b6064831061271f576064838161271557612714613929565b5b0492506002810190505b600a831061272e576001810190505b80915050919050565b6000604051905090565b600080fd5b600080fd5b60007fffffffff0000000000000000000000000000000000000000000000000000000082169050919050565b6127808161274b565b811461278b57600080fd5b50565b60008135905061279d81612777565b92915050565b6000602082840312156127b9576127b8612741565b5b60006127c78482850161278e565b91505092915050565b60008115159050919050565b6127e5816127d0565b82525050565b600060208201905061280060008301846127dc565b92915050565b600081519050919050565b600082825260208201905092915050565b60005b83811015612840578082015181840152602081019050612825565b60008484015250505050565b6000601f19601f8301169050919050565b600061286882612806565b6128728185612811565b9350612882818560208601612822565b61288b8161284c565b840191505092915050565b600060208201905081810360008301526128b0818461285d565b905092915050565b6000819050919050565b6128cb816128b8565b81146128d657600080fd5b50565b6000813590506128e8816128c2565b92915050565b60006020828403121561290457612903612741565b5b6000612912848285016128d9565b91505092915050565b600073ffffffffffffffffffffffffffffffffffffffff82169050919050565b60006129468261291b565b9050919050565b6129568161293b565b82525050565b6000602082019050612971600083018461294d565b92915050565b6129808161293b565b811461298b57600080fd5b50565b60008135905061299d81612977565b92915050565b600080604083850312156129ba576129b9612741565b5b60006129c88582860161298e565b92505060206129d9858286016128d9565b9150509250929050565b6000806000606084860312156129fc576129fb612741565b5b6000612a0a8682870161298e565b9350506020612a1b8682870161298e565b9250506040612a2c868287016128d9565b9150509250925092565b600060208284031215612a4c57612a4b612741565b5b6000612a5a8482850161298e565b91505092915050565b612a6c816127d0565b8114612a7757600080fd5b50565b600081359050612a8981612a63565b92915050565b60008060408385031215612aa657612aa5612741565b5b6000612ab48582860161298e565b9250506020612ac585828601612a7a565b9150509250929050565b612ad8816128b8565b82525050565b6000602082019050612af36000830184612acf565b92915050565b600080fd5b600080fd5b600080fd5b60008083601f840112612b1e57612b1d612af9565b5b8235905067ffffffffffffffff811115612b3b57612b3a612afe565b5b602083019150836001820283011115612b5757612b56612b03565b5b9250929050565b60008060008060608587031215612b7857612b77612741565b5b6000612b868782880161298e565b9450506020612b97878288016128d9565b935050604085013567ffffffffffffffff811115612bb857612bb7612746565b5b612bc487828801612b08565b925092505092959194509250565b600080fd5b7f4e487b7100000000000000000000000000000000000000000000000000000000600052604160045260246000fd5b612c0f8261284c565b810181811067ffffffffffffffff82111715612c2e57612c2d612bd7565b5b80604052505050565b6000612c41612737565b9050612c4d8282612c06565b919050565b600067ffffffffffffffff821115612c6d57612c6c612bd7565b5b612c768261284c565b9050602081019050919050565b82818337600083830152505050565b6000612ca5612ca084612c52565b612c37565b905082815260208101848484011115612cc157612cc0612bd2565b5b612ccc848285612c83565b509392505050565b600082601f830112612ce957612ce8612af9565b5b8135612cf9848260208601612c92565b91505092915050565b60008060008060808587031215612d1c57612d1b612741565b5b6000612d2a8782880161298e565b9450506020612d3b8782880161298e565b9350506040612d4c878288016128d9565b925050606085013567ffffffffffffffff811115612d6d57612d6c612746565b5b612d7987828801612cd4565b91505092959194509250565b600081519050919050565b600082825260208201905092915050565b6000819050602082019050919050565b612dba816128b8565b82525050565b6000612dcc8383612db1565b60208301905092915050565b6000602082019050919050565b6000612df082612d85565b612dfa8185612d90565b9350612e0583612da1565b8060005b83811015612e36578151612e1d8882612dc0565b9750612e2883612dd8565b925050600181019050612e09565b5085935050505092915050565b600081519050919050565b600082825260208201905092915050565b6000819050602082019050919050565b612e788161293b565b82525050565b6000612e8a8383612e6f565b60208301905092915050565b6000602082019050919050565b6000612eae82612e43565b612eb88185612e4e565b9350612ec383612e5f565b8060005b83811015612ef4578151612edb8882612e7e565b9750612ee683612e96565b925050600181019050612ec7565b5085935050505092915050565b600081519050919050565b600082825260208201905092915050565b6000819050602082019050919050565b600082825260208201905092915050565b6000612f4982612806565b612f538185612f2d565b9350612f63818560208601612822565b612f6c8161284c565b840191505092915050565b6000612f838383612f3e565b905092915050565b6000602082019050919050565b6000612fa382612f01565b612fad8185612f0c565b935083602082028501612fbf85612f1d565b8060005b85811015612ffb5784840389528151612fdc8582612f77565b9450612fe783612f8b565b925060208a01995050600181019050612fc3565b50829750879550505050505092915050565b600060808201905081810360008301526130278187612de5565b9050818103602083015261303b8186612ea3565b9050818103604083015261304f8185612f98565b905081810360608301526130638184612de5565b905095945050505050565b6000806040838503121561308557613084612741565b5b60006130938582860161298e565b92505060206130a48582860161298e565b9150509250929050565b600080604083850312156130c5576130c4612741565b5b60006130d3858286016128d9565b92505060206130e4858286016128d9565b9150509250929050565b7f4e487b7100000000000000000000000000000000000000000000000000000000600052602260045260246000fd5b6000600282049050600182168061313557607f821691505b602082108103613148576131476130ee565b5b50919050565b6000606082019050613163600083018661294d565b6131706020830185612acf565b61317d604083018461294d565b949350505050565b7f4e6f742061646d696e0000000000000000000000000000000000000000000000600082015250565b60006131bb600983612811565b91506131c682613185565b602082019050919050565b600060208201905081810360008301526131ea816131ae565b9050919050565b7f416c7265616479206d696e746564000000000000000000000000000000000000600082015250565b6000613227600e83612811565b9150613232826131f1565b602082019050919050565b600060208201905081810360008301526132568161321a565b9050919050565b60006132698385612811565b9350613276838584612c83565b61327f8361284c565b840190509392505050565b600060208201905081810360008301526132a581848661325d565b90509392505050565b600081905092915050565b60006132c482612806565b6132ce81856132ae565b93506132de818560208601612822565b80840191505092915050565b60006132f682856132b9565b915061330282846132b9565b91508190509392505050565b7f4e6f7420666f722073616c650000000000000000000000000000000000000000600082015250565b6000613344600c83612811565b915061334f8261330e565b602082019050919050565b6000602082019050818103600083015261337381613337565b9050919050565b7f496e636f72726563742070726963650000000000000000000000000000000000600082015250565b60006133b0600f83612811565b91506133bb8261337a565b602082019050919050565b600060208201905081810360008301526133df816133a3565b9050919050565b7f416c7265616479206f776e657200000000000000000000000000000000000000600082015250565b600061341c600d83612811565b9150613427826133e6565b602082019050919050565b6000602082019050818103600083015261344b8161340f565b9050919050565b600081905092915050565b50565b600061346d600083613452565b91506134788261345d565b600082019050919050565b600061348e82613460565b9150819050919050565b7f5061796d656e74206661696c6564000000000000000000000000000000000000600082015250565b60006134ce600e83612811565b91506134d982613498565b602082019050919050565b600060208201905081810360008301526134fd816134c1565b9050919050565b7f4e487b7100000000000000000000000000000000000000000000000000000000600052603260045260246000fd5b7f546f6b656e20646f6573206e6f74206578697374000000000000000000000000600082015250565b6000613569601483612811565b915061357482613533565b602082019050919050565b600060208201905081810360008301526135988161355c565b9050919050565b60008190508160005260206000209050919050565b60006020601f8301049050919050565b600082821b905092915050565b6000600883026136017fffffffffffffffffffffffffffffffffffffffffffffffffffffffffffffffff826135c4565b61360b86836135c4565b95508019841693508086168417925050509392505050565b6000819050919050565b600061364861364361363e846128b8565b613623565b6128b8565b9050919050565b6000819050919050565b6136628361362d565b61367661366e8261364f565b8484546135d1565b825550505050565b600090565b61368b61367e565b613696818484613659565b505050565b5b818110156136ba576136af600082613683565b60018101905061369c565b5050565b601f8211156136ff576136d08161359f565b6136d9846135b4565b810160208510156136e8578190505b6136fc6136f4856135b4565b83018261369b565b50505b505050565b600082821c905092915050565b600061372260001984600802613704565b1980831691505092915050565b600061373b8383613711565b9150826002028217905092915050565b61375482612806565b67ffffffffffffffff81111561376d5761376c612bd7565b5b613777825461311d565b6137828282856136be565b600060209050601f8311600181146137b557600084156137a3578287015190505b6137ad858261372f565b865550613815565b601f1984166137c38661359f565b60005b828110156137eb578489015182556001820191506020850194506020810190506137c6565b868310156138085784890151613804601f891682613711565b8355505b6001600288020188555050505b505050505050565b600081519050919050565b600082825260208201905092915050565b60006138448261381d565b61384e8185613828565b935061385e818560208601612822565b6138678161284c565b840191505092915050565b6000608082019050613887600083018761294d565b613894602083018661294d565b6138a16040830185612acf565b81810360608301526138b38184613839565b905095945050505050565b6000815190506138cd81612777565b92915050565b6000602082840312156138e9576138e8612741565b5b60006138f7848285016138be565b91505092915050565b6000604082019050613915600083018561294d565b6139226020830184612acf565b9392505050565b7f4e487b7100000000000000000000000000000000000000000000000000000000600052601260045260246000fdfea26469706673582212206eaca92b7cadadf60e02fa9c35954636dcf881a23270fc9ee0ffad977f150d0064736f6c63430008180033",
  "linkReferences": {},
  "deployedLinkReferences": {}
}