{
  "_format": "hh-sol-artifact-1",
  "contractName": "DnANFT",
  "sourceName": "contracts/DnANFT.sol",
  "abi": [
    {
      "inputs": [
        {
          "internalType": "string",
          "name": "name_",
          "type": "string"
        },
        {
          "internalType": "string",
          "name": "symbol_",
          "type": "string"
        }
      ],
      "stateMutability": "nonpayable",
      "type": "constructor"
    },
    {
      "inputs": [
        {
          "internalType": "address",
          "name": "sender",
          "type": "address"
        },
        {
          "internalType": "uint256",
          "name": "tokenId",
          "type": "uint256"
        },
        {
          "internalType": "address",
          "name": "owner",
          "type": "address"
        }
      ],
      "name": "ERC721IncorrectOwner",
      "type": "error"
    },
    {
      "inputs": [
        {
          "internalType": "address",
          "name": "operator",
          "type": "address"
        },
        {
          "internalType": "uint256",
          "name": "tokenId",
          "type": "uint256"
        }
      ],
      "name": "ERC721InsufficientApproval",
      "type": "error"
    },
    {
      "inputs": [
        {
          "internalType": "address",
          "name": "approver",
          "type": "address"
        }
      ],
      "name": "ERC721InvalidApprover",
      "type": "error"
    },
    {
      "inputs": [
        {
          "internalType": "address",
          "name": "operator",
          "type": "address"
        }
      ],
      "name": "ERC721InvalidOperator",
      "type": "error"
    },
    {
      "inputs": [
        {
          "internalType": "address",
          "name": "owner",
          "type": "address"
        }
      ],
      "name": "ERC721InvalidOwner",
      "type": "error"
    },
    {
      "inputs": [
        {
          "internalType": "address",
          "name": "receiver",
          "type": "address"
        }
      ],
      "name": "ERC721InvalidReceiver",
      "type": "error"
    },
    {
      "inputs": [
        {
          "internalType": "address",
          "name": "sender",
          "type": "address"
        }
      ],
      "name": "ERC721InvalidSender",
      "type": "error"
    },
    {
      "inputs": [
        {
          "internalType": "uint256",
          "name": "tokenId",
          "type": "uint256"
        }
      ],
      "name": "ERC721NonexistentToken",
      "type": "error"
    },
    {
      "inputs": [
        {
          "internalType": "address",
          "name": "owner",
          "type": "address"
        }
      ],
      "name": "OwnableInvalidOwner",
      "type": "error"
    },
    {
      "inputs": [
        {
          "internalType": "address",
          "name": "account",
          "type": "address"
        }
      ],
      "name": "OwnableUnauthorizedAccount",
      "type": "error"
    },
    {
      "inputs": [],
      "name": "ReentrancyGuardReentrantCall",
      "type": "error"
    },
    {
      "anonymous": false,
      "inputs": [
        {
          "indexed": true,
          "internalType": "address",
          "name": "admin",
          "type": "address"
        },
        {
          "indexed": false,
          "internalType": "bool",
          "name": "enabled",
          "type": "bool"
        }
      ],
      "name": "AdminUpdated",
      "type": "event"
    },
    {
      "anonymous": false,
      "inputs": [
        {
          "indexed": true,
          "internalType": "address",
          "name": "owner",
          "type": "address"
        },
        {
          "indexed": true,
          "internalType": "address",
          "name": "approved",
          "type": "address"
        },
        {
          "indexed": true,
          "internalType": "uint256",
          "name": "tokenId",
          "type": "uint256"
        }
      ],
      "name": "Approval",
      "type": "event"
    },
    {
      "anonymous": false,
      "inputs": [
        {
          "indexed": true,
          "internalType": "address",
          "name": "owner",
          "type": "address"
        },
        {
          "indexed": true,
          "internalType": "address",
          "name": "operator",
          "type": "address"
        },
        {
          "indexed": false,
          "internalType": "bool",
          "name": "approved",
          "type": "bool"
        }
      ],
      "name": "ApprovalForAll",
      "type": "event"
    },
    {
      "anonymous": false,
      "inputs": [
        {
          "indexed": false,
          "internalType": "uint256",
          "name": "_fromTokenId",
          "type": "uint256"
        },
        {
          "indexed": false,
          "internalType": "uint256",
          "name": "_toTokenId",
          "type": "uint256"
        }
      ],
      "name": "BatchMetadataUpdate",
      "type": "event"
    },
    {
      "anonymous": false,
      "inputs": [
        {
          "indexed": false,
          "internalType": "uint256",
          "name": "_tokenId",
          "type": "uint256"
        }
      ],
      "name": "MetadataUpdate",
      "type": "event"
    },
    {
      "anonymous": false,
      "inputs": [
        {
          "indexed": true,
          "internalType": "address",
          "name": "to",
          "type": "address"
        },
        {
          "indexed": true,
          "internalType": "uint256",
          "name": "tokenId",
          "type": "uint256"
        },
        {
          "indexed": false,
          "internalType": "string",
          "name": "uri",
          "type": "string"
        }
      ],
      "name": "Minted",
      "type": "event"
    },
    {
      "anonymous": false,
      "inputs": [
        {
          "indexed": true,
          "internalType": "address",
          "name": "previousOwner",
          "type": "address"
        },
        {
          "indexed": true,
          "internalType": "address",
          "name": "newOwner",
          "type": "address"
        }
      ],
      "name": "OwnershipTransferred",
      "type": "event"
    },
    {
      "anonymous": false,
      "inputs": [
        {
          "indexed": true,
          "internalType": "uint256",
          "name": "tokenId",
          "type": "uint256"
        },
        {
          "indexed": false,
          "internalType": "uint256",
          "name": "price",
          "type": "uint256"
        }
      ],
      "name": "PriceSet",
      "type": "event"
    },
    {
      "anonymous": false,
      "inputs": [
        {
          "indexed": true,
          "internalType": "address",
          "name": "buyer",
          "type": "address"
        },
        {
          "indexed": true,
          "internalType": "uint256",
          "name": "tokenId",
          "type": "uint256"
        },
        {
          "indexed": false,
          "internalType": "uint256",
          "name": "price",
          "type": "uint256"
        }
      ],
      "name": "Purchased",
      "type": "event"
    },
    {
      "anonymous": false,
      "inputs": [
        {
          "indexed": true,
          "internalType": "address",
          "name": "from",
          "type": "address"
        },
        {
          "indexed": true,
          "internalType": "address",
          "name": "to",
          "type": "address"
        },
        {
          "indexed": true,
          "internalType": "uint256",
          "name": "tokenId",
          "type": "uint256"
        }
      ],
      "name": "Transfer",
      "type": "event"
    },
    {
      "inputs": [
        {
          "internalType": "address",
          "name": "to",
          "type": "address"
        },
        {
          "internalType": "uint256",
          "name": "tokenId",
          "type": "uint256"
        }
      ],
      "name": "approve",
      "outputs": [],
      "stateMutability": "nonpayable",
      "type": "function"
    },
    {
      "inputs": [
        {
          "internalType": "address",
          "name": "owner",
          "type": "address"
        }
      ],
      "name": "balanceOf",
      "outputs": [
        {
          "internalType": "uint256",
          "name": "",
          "type": "uint256"
        }
      ],
      "stateMutability": "view",
      "type": "function"
    },
    {
      "inputs": [
        {
          "internalType": "uint256",
          "name": "tokenId",
          "type": "uint256"
        }
      ],
      "name": "buy",
      "outputs": [],
      "stateMutability": "payable",
      "type": "function"
    },
    {
      "inputs": [
        {
          "internalType": "uint256",
          "name": "tokenId",
          "type": "uint256"
        }
      ],
      "name": "getApproved",
      "outputs": [
        {
          "internalType": "address",
          "name": "",
          "type": "address"
        }
      ],
      "stateMutability": "view",
      "type": "function"
    },
    {
      "inputs": [
        {
          "internalType": "address",
          "name": "",
          "type": "address"
        }
      ],
      "name": "isAdmin",
      "outputs": [
        {
          "internalType": "bool",
          "name": "",
          "type": "bool"
        }
      ],
      "stateMutability": "view",
      "type": "function"
    },
    {
      "inputs": [
        {
          "internalType": "address",
          "name": "owner",
          "type": "address"
        },
        {
          "internalType": "address",
          "name": "operator",
          "type": "address"
        }
      ],
      "name": "isApprovedForAll",
      "outputs": [
        {
          "internalType": "bool",
          "name": "",
          "type": "bool"
        }
      ],
      "stateMutability": "view",
      "type": "function"
    },
    {
      "inputs": [
        {
          "internalType": "address",
          "name": "to",
          "type": "address"
        },
        {
          "internalType": "uint256",
          "name": "tokenId",
          "type": "uint256"
        },
        {
          "internalType": "string",
          "name": "uri",
          "type": "string"
        }
      ],
      "name": "mintTo",
      "outputs": [],
      "stateMutability": "nonpayable",
      "type": "function"
    },
    {
      "inputs": [],
      "name": "name",
      "outputs": [
        {
          "internalType": "string",
          "name": "",
          "type": "string"
        }
      ],
      "stateMutability": "view",
      "type": "function"
    },
    {
      "inputs": [],
      "name": "owner",
      "outputs": [
        {
          "internalType": "address",
          "name": "",
          "type": "address"
        }
      ],
      "stateMutability": "view",
      "type": "function"
    },
    {
      "inputs": [
        {
          "internalType": "uint256",
          "name": "tokenId",
          "type": "uint256"
        }
      ],
      "name": "ownerOf",
      "outputs": [
        {
          "internalType": "address",
          "name": "",
          "type": "address"
        }
      ],
      "stateMutability": "view",
      "type": "function"
    },
    {
      "inputs": [],
      "name": "renounceOwnership",
      "outputs": [],
      "stateMutability": "nonpayable",
      "type": "function"
    },
    {
      "inputs": [
        {
          "internalType": "address",
          "name": "from",
          "type": "address"
        },
        {
          "internalType": "address",
          "name": "to",
          "type": "address"
        },
        {
          "internalType": "uint256",
          "name": "tokenId",
          "type": "uint256"
        }
      ],
      "name": "safeTransferFrom",
      "outputs": [],
      "stateMutability": "nonpayable",
      "type": "function"
    },
    {
      "inputs": [
        {
          "internalType": "address",
          "name": "from",
          "type": "address"
        },
        {
          "internalType": "address",
          "name": "to",
          "type": "address"
        },
        {
          "internalType": "uint256",
          "name": "tokenId",
          "type": "uint256"
        },
        {
          "internalType": "bytes",
          "name": "data",
          "type": "bytes"
        }
      ],
      "name": "safeTransferFrom",
      "outputs": [],
      "stateMutability": "nonpayable",
      "type": "function"
    },
    {
      "inputs": [
        {
          "internalType": "address",
          "name": "account",
          "type": "address"
        },
        {
          "internalType": "bool",
          "name": "enabled",
          "type": "bool"
        }
      ],
      "name": "setAdmin",
      "outputs": [],
      "stateMutability": "nonpayable",
      "type": "function"
    },
    {
      "inputs": [
        {
          "internalType": "address",
          "name": "operator",
          "type": "address"
        },
        {
          "internalType": "bool",
          "name": "approved",
          "type": "bool"
        }
      ],
      "name": "setApprovalForAll",
      "outputs": [],
      "stateMutability": "nonpayable",
      "type": "function"
    },
    {
      "inputs": [
        {
          "internalType": "uint256",
          "name": "tokenId",
          "type": "uint256"
        },
        {
          "internalType": "uint256",
          "name": "priceWei",
          "type": "uint256"
        }
      ],
      "name": "setTokenPrice",
      "outputs": [],
      "stateMutability": "nonpayable",
      "type": "function"
    },
    {
      "inputs": [
        {
          "internalType": "bytes4",
          "name": "interfaceId",
          "type": "bytes4"
        }
      ],
      "name": "supportsInterface",
      "outputs": [
        {
          "internalType": "bool",
          "name": "",
          "type": "bool"
        }
      ],
      "stateMutability": "view",
      "type": "function"
    },
    {
      "inputs": [],
      "name": "symbol",
      "outputs": [
        {
          "internalType": "string",
          "name": "",
          "type": "string"
        }
      ],
      "stateMutability": "view",
      "type": "function"
    },
    {
      "inputs": [
        {
          "internalType": "uint256",
          "name": "",
          "type": "uint256"
        }
      ],
      "name": "tokenPrice",
      "outputs": [
        {
          "internalType": "uint256",
          "name": "",
          "type": "uint256"
        }
      ],
      "stateMutability": "view",
      "type": "function"
    },
    {
      "inputs": [
        {
          "internalType": "uint256",
          "name": "tokenId",
          "type": "uint256"
        }
      ],
      "name": "tokenURI",
      "outputs": [
        {
          "internalType": "string",
          "name": "",
          "type": "string"
        }
      ],
      "stateMutability": "view",
      "type": "function"
    },
    {
      "inputs": [
        {
          "internalType": "address",
          "name": "from",
          "type": "address"
        },
        {
          "internalType": "address",
          "name": "to",
          "type": "address"
        },
        {
          "internalType": "uint256",
          "name": "tokenId",
          "type": "uint256"
        }
      ],
      "name": "transferFrom",
      "outputs": [],
      "stateMutability": "nonpayable",
      "type": "function"
    },
    {
      "inputs": [
        {
          "internalType": "address",
          "name": "newOwner",
          "type": "address"
        }
      ],
      "name": "transferOwnership",
      "outputs": [],
      "stateMutability": "nonpayable",
      "type": "function"
    }
  ],
  "bytecode": "0x60806040523480156200001157600080fd5b5060405162003b3838038062003b38833981810160405281019062000037919062000350565b33828281600090816200004b919062000620565b5080600190816200005d919062000620565b505050600073ffffffffffffffffffffffffffffffffffffffff168173ffffffffffffffffffffffffffffffffffffffff1603620000d55760006040517f1e4fbdf7000000000000000000000000000000000000000000000000000000008152600401620000cc91906200074c565b60405180910390fd5b620000e681620000f760201b60201c565b506001600881905550505062000769565b6000600760009054906101000a900473ffffffffffffffffffffffffffffffffffffffff16905081600760006101000a81548173ffffffffffffffffffffffffffffffffffffffff021916908373ffffffffffffffffffffffffffffffffffffffff1602179055508173ffffffffffffffffffffffffffffffffffffffff168173ffffffffffffffffffffffffffffffffffffffff167f8be0079c531659141344cd1fd0a4f28419497f9722a3daafe3b4186f6b6457e060405160405180910390a35050565b6000604051905090565b600080fd5b600080fd5b600080fd5b600080fd5b6000601f19601f8301169050919050565b7f4e487b7100000000000000000000000000000000000000000000000000000000600052604160045260246000fd5b6200022682620001db565b810181811067ffffffffffffffff82111715620002485762000247620001ec565b5b80604052505050565b60006200025d620001bd565b90506200026b82826200021b565b919050565b600067ffffffffffffffff8211156200028e576200028d620001ec565b5b6200029982620001db565b9050602081019050919050565b60005b83811015620002c6578082015181840152602081019050620002a9565b60008484015250505050565b6000620002e9620002e38462000270565b62000251565b905082815260208101848484011115620003085762000307620001d6565b5b62000315848285620002a6565b509392505050565b600082601f830112620003355762000334620001d1565b5b815162000347848260208601620002d2565b91505092915050565b600080604083850312156200036a5762000369620001c7565b5b600083015167ffffffffffffffff8111156200038b576200038a620001cc565b5b62000399858286016200031d565b925050602083015167ffffffffffffffff811115620003bd57620003bc620001cc565b5b620003cb858286016200031d565b9150509250929050565b600081519050919050565b7f4e487b7100000000000000000000000000000000000000000000000000000000600052602260045260246000fd5b600060028204905060018216806200042857607f821691505b6020821081036200043e576200043d620003e0565b5b50919050565b60008190508160005260206000209050919050565b60006020601f8301049050919050565b600082821b905092915050565b600060088302620004a87fffffffffffffffffffffffffffffffffffffffffffffffffffffffffffffffff8262000469565b620004b4868362000469565b95508019841693508086168417925050509392505050565b6000819050919050565b6000819050919050565b600062000501620004fb620004f584620004cc565b620004d6565b620004cc565b9050919050565b6000819050919050565b6200051d83620004e0565b620005356200052c8262000508565b84845462000476565b825550505050565b600090565b6200054c6200053d565b6200055981848462000512565b505050565b5b8181101562000581576200057560008262000542565b6001810190506200055f565b5050565b601f821115620005d0576200059a8162000444565b620005a58462000459565b81016020851015620005b5578190505b620005cd620005c48562000459565b8301826200055e565b50505b505050565b600082821c905092915050565b6000620005f560001984600802620005d5565b1980831691505092915050565b6000620006108383620005e2565b9150826002028217905092915050565b6200062b82620003d5565b67ffffffffffffffff811115620006475762000646620001ec565b5b6200065382546200040f565b6200066082828562000585565b600060209050601f83116001811462000698576000841562000683578287015190505b6200068f858262000602565b865550620006ff565b601f198416620006a88662000444565b60005b82811015620006d257848901518255600182019150602085019450602081019050620006ab565b86831015620006f25784890151620006ee601f891682620005e2565b8355505b6001600288020188555050505b505050505050565b600073ffffffffffffffffffffffffffffffffffffffff82169050919050565b6000620007348262000707565b9050919050565b620007468162000727565b82525050565b60006020820190506200076360008301846200073b565b92915050565b6133bf80620007796000396000f3fe6080604052600436106101355760003560e01c80638da5cb5b116100ab578063c87b56dd1161006f578063c87b56dd14610422578063d4ddce8a1461045f578063d96a094a1461049c578063e985e9c5146104b8578063eb685c47146104f5578063f2fde38b1461051e57610135565b80638da5cb5b1461035157806395d89b411461037c5780639f6ed25f146103a7578063a22cb465146103d0578063b88d4fde146103f957610135565b806324d7806c116100fd57806324d7806c1461023157806342842e0e1461026e5780634b0bddd2146102975780636352211e146102c057806370a08231146102fd578063715018a61461033a57610135565b806301ffc9a71461013a57806306fdde0314610177578063081812fc146101a2578063095ea7b3146101df57806323b872dd14610208575b600080fd5b34801561014657600080fd5b50610161600480360381019061015c91906124ec565b610547565b60405161016e9190612534565b60405180910390f35b34801561018357600080fd5b5061018c6105a8565b60405161019991906125df565b60405180910390f35b3480156101ae57600080fd5b506101c960048036038101906101c49190612637565b61063a565b6040516101d691906126a5565b60405180910390f35b3480156101eb57600080fd5b50610206600480360381019061020191906126ec565b610656565b005b34801561021457600080fd5b5061022f600480360381019061022a919061272c565b61066c565b005b34801561023d57600080fd5b506102586004803603810190610253919061277f565b61076e565b6040516102659190612534565b60405180910390f35b34801561027a57600080fd5b506102956004803603810190610290919061272c565b61078e565b005b3480156102a357600080fd5b506102be60048036038101906102b991906127d8565b6107ae565b005b3480156102cc57600080fd5b506102e760048036038101906102e29190612637565b61085f565b6040516102f491906126a5565b60405180910390f35b34801561030957600080fd5b50610324600480360381019061031f919061277f565b610871565b6040516103319190612827565b60405180910390f35b34801561034657600080fd5b5061034f61092b565b005b34801561035d57600080fd5b5061036661093f565b60405161037391906126a5565b60405180910390f35b34801561038857600080fd5b50610391610969565b60405161039e91906125df565b60405180910390f35b3480156103b357600080fd5b506103ce60048036038101906103c991906128a7565b6109fb565b005b3480156103dc57600080fd5b506103f760048036038101906103f291906127d8565b610bea565b005b34801561040557600080fd5b50610420600480360381019061041b9190612a4b565b610c00565b005b34801561042e57600080fd5b5061044960048036038101906104449190612637565b610c25565b60405161045691906125df565b60405180910390f35b34801561046b57600080fd5b5061048660048036038101906104819190612637565b610d38565b6040516104939190612827565b60405180910390f35b6104b660048036038101906104b19190612637565b610d50565b005b3480156104c457600080fd5b506104df60048036038101906104da9190612ace565b610fa4565b6040516104ec9190612534565b60405180910390f35b34801561050157600080fd5b5061051c60048036038101906105179190612b0e565b611038565b005b34801561052a57600080fd5b506105456004803603810190610540919061277f565b6111cc565b005b6000634906490660e01b7bffffffffffffffffffffffffffffffffffffffffffffffffffffffff1916827bffffffffffffffffffffffffffffffffffffffffffffffffffffffff191614806105a157506105a082611252565b5b9050919050565b6060600080546105b790612b7d565b80601f01602080910402602001604051908101604052809291908181526020018280546105e390612b7d565b80156106305780601f1061060557610100808354040283529160200191610630565b820191906000526020600020905b81548152906001019060200180831161061357829003601f168201915b5050505050905090565b600061064582611334565b5061064f826113bc565b9050919050565b61066882826106636113f9565b611401565b5050565b600073ffffffffffffffffffffffffffffffffffffffff168273ffffffffffffffffffffffffffffffffffffffff16036106de5760006040517f64a0ae920000000000000000000000000000000000000000000000000000000081526004016106d591906126a5565b60405180910390fd5b60006106f283836106ed6113f9565b611413565b90508373ffffffffffffffffffffffffffffffffffffffff168173ffffffffffffffffffffffffffffffffffffffff1614610768578382826040517f64283d7b00000000000000000000000000000000000000000000000000000000815260040161075f93929190612bae565b60405180910390fd5b50505050565b60096020528060005260406000206000915054906101000a900460ff1681565b6107a983838360405180602001604052806000815250610c00565b505050565b6107b661162d565b80600960008473ffffffffffffffffffffffffffffffffffffffff1673ffffffffffffffffffffffffffffffffffffffff16815260200190815260200160002060006101000a81548160ff0219169083151502179055508173ffffffffffffffffffffffffffffffffffffffff167f235bc17e7930760029e9f4d860a2a8089976de5b381cf8380fc11c1d88a11133826040516108539190612534565b60405180910390a25050565b600061086a82611334565b9050919050565b60008073ffffffffffffffffffffffffffffffffffffffff168273ffffffffffffffffffffffffffffffffffffffff16036108e45760006040517f89c62b640000000000000000000000000000000000000000000000000000000081526004016108db91906126a5565b60405180910390fd5b600360008373ffffffffffffffffffffffffffffffffffffffff1673ffffffffffffffffffffffffffffffffffffffff168152602001908152602001600020549050919050565b61093361162d565b61093d60006116b4565b565b6000600760009054906101000a900473ffffffffffffffffffffffffffffffffffffffff16905090565b60606001805461097890612b7d565b80601f01602080910402602001604051908101604052809291908181526020018280546109a490612b7d565b80156109f15780601f106109c6576101008083540402835291602001916109f1565b820191906000526020600020905b8154815290600101906020018083116109d457829003601f168201915b5050505050905090565b610a0361093f565b73ffffffffffffffffffffffffffffffffffffffff163373ffffffffffffffffffffffffffffffffffffffff161480610a855750600960003373ffffffffffffffffffffffffffffffffffffffff1673ffffffffffffffffffffffffffffffffffffffff16815260200190815260200160002060009054906101000a900460ff165b610ac4576040517f08c379a0000000000000000000000000000000000000000000000000000000008152600401610abb90612c31565b60405180910390fd5b600073ffffffffffffffffffffffffffffffffffffffff16610ae58461177a565b73ffffffffffffffffffffffffffffffffffffffff1614610b3b576040517f08c379a0000000000000000000000000000000000000000000000000000000008152600401610b3290612c9d565b60405180910390fd5b610b4584846117b7565b610b938383838080601f016020809104026020016040519081016040528093929190818152602001838380828437600081840152601f19601f820116905080830192505050505050506117d5565b828473ffffffffffffffffffffffffffffffffffffffff167fe7cd4ce7f2a465edc730269a1305e8a48bad821e8fb7e152ec413829c01a53c48484604051610bdc929190612cea565b60405180910390a350505050565b610bfc610bf56113f9565b8383611831565b5050565b610c0b84848461066c565b610c1f610c166113f9565b858585856119a0565b50505050565b6060610c3082611334565b506000600660008481526020019081526020016000208054610c5190612b7d565b80601f0160208091040260200160405190810160405280929190818152602001828054610c7d90612b7d565b8015610cca5780601f10610c9f57610100808354040283529160200191610cca565b820191906000526020600020905b815481529060010190602001808311610cad57829003601f168201915b505050505090506000610cdb611b51565b90506000815103610cf0578192505050610d33565b600082511115610d25578082604051602001610d0d929190612d4a565b60405160208183030381529060405292505050610d33565b610d2e84611b68565b925050505b919050565b600a6020528060005260406000206000915090505481565b610d58611bd1565b6000600a600083815260200190815260200160002054905060008111610db3576040517f08c379a0000000000000000000000000000000000000000000000000000000008152600401610daa90612dba565b60405180910390fd5b803414610df5576040517f08c379a0000000000000000000000000000000000000000000000000000000008152600401610dec90612e26565b60405180910390fd5b6000610e008361085f565b90503373ffffffffffffffffffffffffffffffffffffffff168173ffffffffffffffffffffffffffffffffffffffff1603610e70576040517f08c379a0000000000000000000000000000000000000000000000000000000008152600401610e6790612e92565b60405180910390fd5b6000610e7a61093f565b73ffffffffffffffffffffffffffffffffffffffff1634604051610e9d90612ee3565b60006040518083038185875af1925050503d8060008114610eda576040519150601f19603f3d011682016040523d82523d6000602084013e610edf565b606091505b5050905080610f23576040517f08c379a0000000000000000000000000000000000000000000000000000000008152600401610f1a90612f44565b60405180910390fd5b610f2e823386611c17565b6000600a600086815260200190815260200160002081905550833373ffffffffffffffffffffffffffffffffffffffff167ff761777482b4b40d2bcc0d050cfba6829900a2d8b3484bd0244ec0feeb3db50485604051610f8e9190612827565b60405180910390a3505050610fa1611d84565b50565b6000600560008473ffffffffffffffffffffffffffffffffffffffff1673ffffffffffffffffffffffffffffffffffffffff16815260200190815260200160002060008373ffffffffffffffffffffffffffffffffffffffff1673ffffffffffffffffffffffffffffffffffffffff16815260200190815260200160002060009054906101000a900460ff16905092915050565b61104061093f565b73ffffffffffffffffffffffffffffffffffffffff163373ffffffffffffffffffffffffffffffffffffffff1614806110c25750600960003373ffffffffffffffffffffffffffffffffffffffff1673ffffffffffffffffffffffffffffffffffffffff16815260200190815260200160002060009054906101000a900460ff165b611101576040517f08c379a00000000000000000000000000000000000000000000000000000000081526004016110f890612c31565b60405180910390fd5b600073ffffffffffffffffffffffffffffffffffffffff166111228361177a565b73ffffffffffffffffffffffffffffffffffffffff1603611178576040517f08c379a000000000000000000000000000000000000000000000000000000000815260040161116f90612fb0565b60405180910390fd5b80600a600084815260200190815260200160002081905550817fa0f1665b7b659537b52deec61ea64d134a3bccda74c7f4e79f2246e7a8187a8a826040516111c09190612827565b60405180910390a25050565b6111d461162d565b600073ffffffffffffffffffffffffffffffffffffffff168173ffffffffffffffffffffffffffffffffffffffff16036112465760006040517f1e4fbdf700000000000000000000000000000000000000000000000000000000815260040161123d91906126a5565b60405180910390fd5b61124f816116b4565b50565b60007f80ac58cd000000000000000000000000000000000000000000000000000000007bffffffffffffffffffffffffffffffffffffffffffffffffffffffff1916827bffffffffffffffffffffffffffffffffffffffffffffffffffffffff1916148061131d57507f5b5e139f000000000000000000000000000000000000000000000000000000007bffffffffffffffffffffffffffffffffffffffffffffffffffffffff1916827bffffffffffffffffffffffffffffffffffffffffffffffffffffffff1916145b8061132d575061132c82611d8e565b5b9050919050565b6000806113408361177a565b9050600073ffffffffffffffffffffffffffffffffffffffff168173ffffffffffffffffffffffffffffffffffffffff16036113b357826040517f7e2732890000000000000000000000000000000000000000000000000000000081526004016113aa9190612827565b60405180910390fd5b80915050919050565b60006004600083815260200190815260200160002060009054906101000a900473ffffffffffffffffffffffffffffffffffffffff169050919050565b600033905090565b61140e8383836001611df8565b505050565b60008061141f8461177a565b9050600073ffffffffffffffffffffffffffffffffffffffff168373ffffffffffffffffffffffffffffffffffffffff161461146157611460818486611fbd565b5b600073ffffffffffffffffffffffffffffffffffffffff168173ffffffffffffffffffffffffffffffffffffffff16146114f2576114a3600085600080611df8565b6001600360008373ffffffffffffffffffffffffffffffffffffffff1673ffffffffffffffffffffffffffffffffffffffff168152602001908152602001600020600082825403925050819055505b600073ffffffffffffffffffffffffffffffffffffffff168573ffffffffffffffffffffffffffffffffffffffff1614611575576001600360008773ffffffffffffffffffffffffffffffffffffffff1673ffffffffffffffffffffffffffffffffffffffff168152602001908152602001600020600082825401925050819055505b846002600086815260200190815260200160002060006101000a81548173ffffffffffffffffffffffffffffffffffffffff021916908373ffffffffffffffffffffffffffffffffffffffff160217905550838573ffffffffffffffffffffffffffffffffffffffff168273ffffffffffffffffffffffffffffffffffffffff167fddf252ad1be2c89b69c2b068fc378daa952ba7f163c4a11628f55a4df523b3ef60405160405180910390a4809150509392505050565b6116356113f9565b73ffffffffffffffffffffffffffffffffffffffff1661165361093f565b73ffffffffffffffffffffffffffffffffffffffff16146116b2576116766113f9565b6040517f118cdaa70000000000000000000000000000000000000000000000000000000081526004016116a991906126a5565b60405180910390fd5b565b6000600760009054906101000a900473ffffffffffffffffffffffffffffffffffffffff16905081600760006101000a81548173ffffffffffffffffffffffffffffffffffffffff021916908373ffffffffffffffffffffffffffffffffffffffff1602179055508173ffffffffffffffffffffffffffffffffffffffff168173ffffffffffffffffffffffffffffffffffffffff167f8be0079c531659141344cd1fd0a4f28419497f9722a3daafe3b4186f6b6457e060405160405180910390a35050565b60006002600083815260200190815260200160002060009054906101000a900473ffffffffffffffffffffffffffffffffffffffff169050919050565b6117d1828260405180602001604052806000815250612081565b5050565b806006600084815260200190815260200160002090816117f5919061317c565b507ff8e1a15aba9398e019f0b49df1a4fde98ee17ae345cb5f6b5e2c27f5033e8ce7826040516118259190612827565b60405180910390a15050565b600073ffffffffffffffffffffffffffffffffffffffff168273ffffffffffffffffffffffffffffffffffffffff16036118a257816040517f5b08ba1800000000000000000000000000000000000000000000000000000000815260040161189991906126a5565b60405180910390fd5b80600560008573ffffffffffffffffffffffffffffffffffffffff1673ffffffffffffffffffffffffffffffffffffffff16815260200190815260200160002060008473ffffffffffffffffffffffffffffffffffffffff1673ffffffffffffffffffffffffffffffffffffffff16815260200190815260200160002060006101000a81548160ff0219169083151502179055508173ffffffffffffffffffffffffffffffffffffffff168373ffffffffffffffffffffffffffffffffffffffff167f17307eab39ab6107e8899845ad3d59bd9653f200f220920489ca2b5937696c31836040516119939190612534565b60405180910390a3505050565b60008373ffffffffffffffffffffffffffffffffffffffff163b1115611b4a578273ffffffffffffffffffffffffffffffffffffffff1663150b7a02868685856040518563ffffffff1660e01b81526004016119ff94939291906132a3565b6020604051808303816000875af1925050508015611a3b57506040513d601f19601f82011682018060405250810190611a389190613304565b60015b611abf573d8060008114611a6b576040519150601f19603f3d011682016040523d82523d6000602084013e611a70565b606091505b506000815103611ab757836040517f64a0ae92000000000000000000000000000000000000000000000000000000008152600401611aae91906126a5565b60405180910390fd5b805160208201fd5b63150b7a0260e01b7bffffffffffffffffffffffffffffffffffffffffffffffffffffffff1916817bffffffffffffffffffffffffffffffffffffffffffffffffffffffff191614611b4857836040517f64a0ae92000000000000000000000000000000000000000000000000000000008152600401611b3f91906126a5565b60405180910390fd5b505b5050505050565b606060405180602001604052806000815250905090565b6060611b7382611334565b506000611b7e611b51565b90506000815111611b9e5760405180602001604052806000815250611bc9565b80611ba8846120a5565b604051602001611bb9929190612d4a565b6040516020818303038152906040525b915050919050565b600260085403611c0d576040517f3ee5aeb500000000000000000000000000000000000000000000000000000000815260040160405180910390fd5b6002600881905550565b600073ffffffffffffffffffffffffffffffffffffffff168273ffffffffffffffffffffffffffffffffffffffff1603611c895760006040517f64a0ae92000000000000000000000000000000000000000000000000000000008152600401611c8091906126a5565b60405180910390fd5b6000611c9783836000611413565b9050600073ffffffffffffffffffffffffffffffffffffffff168173ffffffffffffffffffffffffffffffffffffffff1603611d0a57816040517f7e273289000000000000000000000000000000000000000000000000000000008152600401611d019190612827565b60405180910390fd5b8373ffffffffffffffffffffffffffffffffffffffff168173ffffffffffffffffffffffffffffffffffffffff1614611d7e578382826040517f64283d7b000000000000000000000000000000000000000000000000000000008152600401611d7593929190612bae565b60405180910390fd5b50505050565b6001600881905550565b60007f01ffc9a7000000000000000000000000000000000000000000000000000000007bffffffffffffffffffffffffffffffffffffffffffffffffffffffff1916827bffffffffffffffffffffffffffffffffffffffffffffffffffffffff1916149050919050565b8080611e315750600073ffffffffffffffffffffffffffffffffffffffff168273ffffffffffffffffffffffffffffffffffffffff1614155b15611f65576000611e4184611334565b9050600073ffffffffffffffffffffffffffffffffffffffff168373ffffffffffffffffffffffffffffffffffffffff1614158015611eac57508273ffffffffffffffffffffffffffffffffffffffff168173ffffffffffffffffffffffffffffffffffffffff1614155b8015611ebf5750611ebd8184610fa4565b155b15611f0157826040517fa9fbf51f000000000000000000000000000000000000000000000000000000008152600401611ef891906126a5565b60405180910390fd5b8115611f6357838573ffffffffffffffffffffffffffffffffffffffff168273ffffffffffffffffffffffffffffffffffffffff167f8c5be1e5ebec7d5bd14f71427d1e84f3dd0314c0f7b2291e5b200ac8c7c3b92560405160405180910390a45b505b836004600085815260200190815260200160002060006101000a81548173ffffffffffffffffffffffffffffffffffffffff021916908373ffffffffffffffffffffffffffffffffffffffff16021790555050505050565b611fc8838383612173565b61207c57600073ffffffffffffffffffffffffffffffffffffffff168373ffffffffffffffffffffffffffffffffffffffff160361203d57806040517f7e2732890000000000000000000000000000000000000000000000000000000081526004016120349190612827565b60405180910390fd5b81816040517f177e802f000000000000000000000000000000000000000000000000000000008152600401612073929190613331565b60405180910390fd5b505050565b61208b8383612234565b6120a06120966113f9565b60008585856119a0565b505050565b6060600060016120b48461232d565b01905060008167ffffffffffffffff8111156120d3576120d2612920565b5b6040519080825280601f01601f1916602001820160405280156121055781602001600182028036833780820191505090505b509050600082602083010190505b600115612168578080600190039150507f3031323334353637383961626364656600000000000000000000000000000000600a86061a8153600a858161215c5761215b61335a565b5b04945060008503612113575b819350505050919050565b60008073ffffffffffffffffffffffffffffffffffffffff168373ffffffffffffffffffffffffffffffffffffffff161415801561222b57508273ffffffffffffffffffffffffffffffffffffffff168473ffffffffffffffffffffffffffffffffffffffff1614806121ec57506121eb8484610fa4565b5b8061222a57508273ffffffffffffffffffffffffffffffffffffffff16612212836113bc565b73ffffffffffffffffffffffffffffffffffffffff16145b5b90509392505050565b600073ffffffffffffffffffffffffffffffffffffffff168273ffffffffffffffffffffffffffffffffffffffff16036122a65760006040517f64a0ae9200000000000000000000000000000000000000000000000000000000815260040161229d91906126a5565b60405180910390fd5b60006122b483836000611413565b9050600073ffffffffffffffffffffffffffffffffffffffff168173ffffffffffffffffffffffffffffffffffffffff16146123285760006040517f73c6ac6e00000000000000000000000000000000000000000000000000000000815260040161231f91906126a5565b60405180910390fd5b505050565b600080600090507a184f03e93ff9f4daa797ed6e38ed64bf6a1f010000000000000000831061238b577a184f03e93ff9f4daa797ed6e38ed64bf6a1f01000000000000000083816123815761238061335a565b5b0492506040810190505b6d04ee2d6d415b85acef810000000083106123c8576d04ee2d6d415b85acef810000000083816123be576123bd61335a565b5b0492506020810190505b662386f26fc1000083106123f757662386f26fc1000083816123ed576123ec61335a565b5b0492506010810190505b6305f5e1008310612420576305f5e10083816124165761241561335a565b5b0492506008810190505b612710831061244557612710838161243b5761243a61335a565b5b0492506004810190505b60648310612468576064838161245e5761245d61335a565b5b0492506002810190505b600a8310612477576001810190505b80915050919050565b6000604051905090565b600080fd5b600080fd5b60007fffffffff0000000000000000000000000000000000000000000000000000000082169050919050565b6124c981612494565b81146124d457600080fd5b50565b6000813590506124e6816124c0565b92915050565b6000602082840312156125025761250161248a565b5b6000612510848285016124d7565b91505092915050565b60008115159050919050565b61252e81612519565b82525050565b60006020820190506125496000830184612525565b92915050565b600081519050919050565b600082825260208201905092915050565b60005b8381101561258957808201518184015260208101905061256e565b60008484015250505050565b6000601f19601f8301169050919050565b60006125b18261254f565b6125bb818561255a565b93506125cb81856020860161256b565b6125d481612595565b840191505092915050565b600060208201905081810360008301526125f981846125a6565b905092915050565b6000819050919050565b61261481612601565b811461261f57600080fd5b50565b6000813590506126318161260b565b92915050565b60006020828403121561264d5761264c61248a565b5b600061265b84828501612622565b91505092915050565b600073ffffffffffffffffffffffffffffffffffffffff82169050919050565b600061268f82612664565b9050919050565b61269f81612684565b82525050565b60006020820190506126ba6000830184612696565b92915050565b6126c981612684565b81146126d457600080fd5b50565b6000813590506126e6816126c0565b92915050565b600080604083850312156127035761270261248a565b5b6000612711858286016126d7565b925050602061272285828601612622565b9150509250929050565b6000806000606084860312156127455761274461248a565b5b6000612753868287016126d7565b9350506020612764868287016126d7565b925050604061277586828701612622565b9150509250925092565b6000602082840312156127955761279461248a565b5b60006127a3848285016126d7565b91505092915050565b6127b581612519565b81146127c057600080fd5b50565b6000813590506127d2816127ac565b92915050565b600080604083850312156127ef576127ee61248a565b5b60006127fd858286016126d7565b925050602061280e858286016127c3565b9150509250929050565b61282181612601565b82525050565b600060208201905061283c6000830184612818565b92915050565b600080fd5b600080fd5b600080fd5b60008083601f84011261286757612866612842565b5b8235905067ffffffffffffffff81111561288457612883612847565b5b6020830191508360018202830111156128a05761289f61284c565b5b9250929050565b600080600080606085870312156128c1576128c061248a565b5b60006128cf878288016126d7565b94505060206128e087828801612622565b935050604085013567ffffffffffffffff8111156129015761290061248f565b5b61290d87828801612851565b925092505092959194509250565b600080fd5b7f4e487b7100000000000000000000000000000000000000000000000000000000600052604160045260246000fd5b61295882612595565b810181811067ffffffffffffffff8211171561297757612976612920565b5b80604052505050565b600061298a612480565b9050612996828261294f565b919050565b600067ffffffffffffffff8211156129b6576129b5612920565b5b6129bf82612595565b9050602081019050919050565b82818337600083830152505050565b60006129ee6129e98461299b565b612980565b905082815260208101848484011115612a0a57612a0961291b565b5b612a158482856129cc565b509392505050565b600082601f830112612a3257612a31612842565b5b8135612a428482602086016129db565b91505092915050565b60008060008060808587031215612a6557612a6461248a565b5b6000612a73878288016126d7565b9450506020612a84878288016126d7565b9350506040612a9587828801612622565b925050606085013567ffffffffffffffff811115612ab657612ab561248f565b5b612ac287828801612a1d565b91505092959194509250565b60008060408385031215612ae557612ae461248a565b5b6000612af3858286016126d7565b9250506020612b04858286016126d7565b9150509250929050565b60008060408385031215612b2557612b2461248a565b5b6000612b3385828601612622565b9250506020612b4485828601612622565b9150509250929050565b7f4e487b7100000000000000000000000000000000000000000000000000000000600052602260045260246000fd5b60006002820490506001821680612b9557607f821691505b602082108103612ba857612ba7612b4e565b5b50919050565b6000606082019050612bc36000830186612696565b612bd06020830185612818565b612bdd6040830184612696565b949350505050565b7f4e6f742061646d696e0000000000000000000000000000000000000000000000600082015250565b6000612c1b60098361255a565b9150612c2682612be5565b602082019050919050565b60006020820190508181036000830152612c4a81612c0e565b9050919050565b7f416c7265616479206d696e746564000000000000000000000000000000000000600082015250565b6000612c87600e8361255a565b9150612c9282612c51565b602082019050919050565b60006020820190508181036000830152612cb681612c7a565b9050919050565b6000612cc9838561255a565b9350612cd68385846129cc565b612cdf83612595565b840190509392505050565b60006020820190508181036000830152612d05818486612cbd565b90509392505050565b600081905092915050565b6000612d248261254f565b612d2e8185612d0e565b9350612d3e81856020860161256b565b80840191505092915050565b6000612d568285612d19565b9150612d628284612d19565b91508190509392505050565b7f4e6f7420666f722073616c650000000000000000000000000000000000000000600082015250565b6000612da4600c8361255a565b9150612daf82612d6e565b602082019050919050565b60006020820190508181036000830152612dd381612d97565b9050919050565b7f496e636f72726563742070726963650000000000000000000000000000000000600082015250565b6000612e10600f8361255a565b9150612e1b82612dda565b602082019050919050565b60006020820190508181036000830152612e3f81612e03565b9050919050565b7f416c7265616479206f776e657200000000000000000000000000000000000000600082015250565b6000612e7c600d8361255a565b9150612e8782612e46565b602082019050919050565b60006020820190508181036000830152612eab81612e6f565b9050919050565b600081905092915050565b50565b6000612ecd600083612eb2565b9150612ed882612ebd565b600082019050919050565b6000612eee82612ec0565b9150819050919050565b7f5061796d656e74206661696c6564000000000000000000000000000000000000600082015250565b6000612f2e600e8361255a565b9150612f3982612ef8565b602082019050919050565b60006020820190508181036000830152612f5d81612f21565b9050919050565b7f546f6b656e20646f6573206e6f74206578697374000000000000000000000000600082015250565b6000612f9a60148361255a565b9150612fa582612f64565b602082019050919050565b60006020820190508181036000830152612fc981612f8d565b9050919050565b60008190508160005260206000209050919050565b60006020601f8301049050919050565b600082821b905092915050565b6000600883026130327fffffffffffffffffffffffffffffffffffffffffffffffffffffffffffffffff82612ff5565b61303c8683612ff5565b95508019841693508086168417925050509392505050565b6000819050919050565b600061307961307461306f84612601565b613054565b612601565b9050919050565b6000819050919050565b6130938361305e565b6130a761309f82613080565b848454613002565b825550505050565b600090565b6130bc6130af565b6130c781848461308a565b505050565b5b818110156130eb576130e06000826130b4565b6001810190506130cd565b5050565b601f8211156131305761310181612fd0565b61310a84612fe5565b81016020851015613119578190505b61312d61312585612fe5565b8301826130cc565b50505b505050565b600082821c905092915050565b600061315360001984600802613135565b1980831691505092915050565b600061316c8383613142565b9150826002028217905092915050565b6131858261254f565b67ffffffffffffffff81111561319e5761319d612920565b5b6131a88254612b7d565b6131b38282856130ef565b600060209050601f8311600181146131e657600084156131d4578287015190505b6131de8582613160565b865550613246565b601f1984166131f486612fd0565b60005b8281101561321c578489015182556001820191506020850194506020810190506131f7565b868310156132395784890151613235601f891682613142565b8355505b6001600288020188555050505b505050505050565b600081519050919050565b600082825260208201905092915050565b60006132758261324e565b61327f8185613259565b935061328f81856020860161256b565b61329881612595565b840191505092915050565b60006080820190506132b86000830187612696565b6132c56020830186612696565b6132d26040830185612818565b81810360608301526132e4818461326a565b905095945050505050565b6000815190506132fe816124c0565b92915050565b60006020828403121561331a5761331961248a565b5b6000613328848285016132ef565b91505092915050565b60006040820190506133466000830185612696565b6133536020830184612818565b9392505050565b7f4e487b7100000000000000000000000000000000000000000000000000000000600052601260045260246000fdfea26469706673582212203d42bbaa629b138d245388a06602fd34a031adfe3f7ecf90b00e9ca378b3cce764736f6c63430008180033",
  "linkReferences": {},
  "deployedLinkReferences": {}
}